:020000040000fa
:080000000002040000000000f2
:020000040000fa
:10000800c8020000c8020000c8020000c8020000c0
:10001800c8020000c8020000c8020000c8020000b0
:10002800c8020000c8020000c8020000c8020000a0
:10003800c8020000c8020000c8020000c802000090
:10004800c8020000c8020000c8020000c802000080
:10005800c8020000c8020000c8020000c802000070
:10006800c8020000c8020000c8020000c802000060
:10007800c8020000c8020000c8020000c802000050
:10008800c8020000c8020000c8020000c802000040
:10009800c8020000c8020000a0120000c802000048
:1000a800c8020000c8020000c8020000c802000020
:1000b800c8020000c8020000c8020000c802000010
:1000c800c8020000c8020000c8020000c802000000
:1000d800c8020000c8020000c8020000c8020000f0
:1000e800c8020000c8020000c8020000c8020000e0
:1000f800c8020000c8020000c8020000c8020000d0
:10010800c8020000c8020000c8020000c8020000bf
:10011800c8020000c8020000c8020000c8020000af
:10012800c8020000c8020000c8020000c80200009f
:10013800c8020000c8020000c8020000c80200008f
:10014800c8020000c8020000c8020000c80200007f
:10015800c8020000c8020000c8020000c80200006f
:10016800c8020000c8020000c8020000c80200005f
:10017800c8020000c8020000c8020000c80200004f
:10018800c8020000c8020000c8020000c80200003f
:10019800c8020000c8020000c8020000c80200002f
:1001a800c8020000c8020000c8020000c80200001f
:1001b800c8020000c8020000c8020000c80200000f
:1001c800c8020000c8020000c8020000c8020000ff
:1001d800c8020000c8020000c8020000c8020000ef
:1001e800c8020000c8020000c8020000c8020000df
:1001f800c8020000c8020000c8020000c8020000cf
:10020800c8020000c8020000c8020000c8020000be
:10021800c8020000c8020000c8020000c8020000ae
:10022800c8020000c8020000c8020000c80200009e
:10023800c8020000c8020000c8020000c80200008e
:10024800c8020000c8020000c8020000c80200007e
:10025800c8020000c8020000c8020000c80200006e
:020000040000fa
:100400000f9121000eef2d000e018800000000006a
:100410000c00070000e22100010020000f0007008f
:10042000000020000000e000020032000000020096
:10043000000000007c200200000000000040da0004
:100440000000fe00c01020000000e00002003200aa
:10045000002020009001880000000600a102880012
:10046000800078000000eb001a003700e2804000b6
:1004700054a0b4009101ba00e280400054a0b4003e
:100480009102ba00e280400054a0b4000002eb00e8
:10049000472bde00f507b200a6018800602ce100c2
:1004a00008003a000049eb000201e80002003900b0
:1004b0003420ec0002f0a0008301e900f9ff3e00c7
:1004c000040037006128e100010032000082eb00e7
:1004d000040007001101ba000200e000e3ff3a0047
:1004e0000000060004d0a300e20f49001c00390000
:1004f000810278003549ba000201e80002003900a3
:100500003420ec0002f0a0008301e9000f0032006b
:100510002549ba000201e800020039003420ec004d
:1005200002f0a0008301e900080032000400e000ae
:100530000600320015c9ba000201e80002003900c5
:100540003420ec0002f0a0008301e9008180e80083
:1005500054a0b4000300e000e2ff3a0000000600ef
:100560009102ba00055978008301e900f7ff3200d3
:10057000c82ade00055978008301e900f3ff320044
:100580000400e000f1ff320011d9ba00eeff37009d
:100590000040da000000fe0003f0a200889fbe00c9
:1005a0008a9fbe008c1f7800c6000700cd00330074
:1005b0006450e1004f0032006420e100520032003c
:1005c00003826c0007003b000905d0000306d00041
:1005d000820f54000c065d00020039000200320058
:1005e00089017800030678008582550004003d00eb
:1005f0000003fd008103fd008502ea008b854200b7
:10060000840f720002003b0060001000e0801800c0
:100610006011b8000005eb007a28e1000a003900fb
:1006200006007800c75ddd00f707b200878075001f
:100630002d003700828171000a0178006105600099
:100640008180d1000080d3008502e900f9ff3b00e2
:10065000060440008784480002003b006004140048
:10066000e0841c000988a300070032008a81710021
:1006700082817100610164008904d1000884d30083
:100680008b05e800170037000978a30013003a0033
:100690000b00e000130034008b05e900080444005f
:1006a00089844c000a4474000978a3000d003a00c4
:1006b0000b00e000070034008b05e900080444004b
:1006c00089844c0001003a000b0020000978a30047
:1006d000f7ff32000001eb00020037008281710059
:1006e0000a017800510007000cf0a70001f0a000fb
:1006f000850037006420e10002003a00838f6c001f
:10070000850033000801be000200be007e003700f5
:10071000889fbe008a9fbe008c1f7800690007007a
:100720007000330003866c006450e1002e0032003c
:100730006420e100330032006150e1002f003200fc
:100740006120e1003100320085855500eb07b000e3
:1007500009002000080420000500370008044400b8
:1007600089844c000a0031000603430087834b0054
:100770000001530081815b00f8ff33000203be00db
:100780000800a0000804440089844c00f6ff3900ea
:10079000c639dd0083017300010032001300200020
:1007a0008904d1000884d3000998a3000500320011
:1007b0000800a7000300a0008904d1000884d3002a
:1007c0008b05e8008904d1000884d3000001eb0008
:1007d0000281d2001500070001f0a1000cf0a70073
:1007e00001f0a000480037006420e1004a00320018
:1007f0000801be000200be00f7ff37006120e100e3
:10080000450032006000b800f3ff37000000200010
:1008100001f82700f0ff37004f89de0082017800e1
:10082000da0037006011b800e800370081002000ce
:10083000618055000b003d000b00200061fe2f0081
:100840000100e1001d00340082817100610164003b
:100850008904d1000884d3000000e800faff3a00c0
:10086000710020006100640003007000020060005d
:100870000900320061044400e0844c000988a500ae
:10088000050032008b05e8006808e10002003a002c
:100890008904d1000884d300f20f20000258e1003f
:1008a00005003d00c75ddd00f907b20089807500d5
:1008b00008007800000006000bf827008b00780085
:1008c000000005000004be00ef0007000003be00aa
:1008d0000405be000200be00eb000700844f750057
:1008e000000006000200be006450e1000500360072
:1008f0006420e100020036000968a30001003a000c
:100900000800be000160a0004f0678004f05be0041
:100910004f04be0000000600f0ff2f00f1ff27008b
:10092000f9ff3700889fbe008a9fbe008c9fbe00e3
:1009300087000700850478000005be006420e10000
:1009400049003e006220e10003003200090035004a
:100950000bf8a300440032000bf8a300080032009b
:100960001002200070808800f0ff2f00f1ff2700a8
:100970003d00370001f82f00000020003a0037004a
:100980003d00070004ff07000006be000a00be008d
:10099000324f200053f323007a0007000600340092
:1009a0000c00be0034000700fbfe07000006be007e
:1009b0000a00be00020037008904e9000c00be00f6
:1009c0002d0007002e0007002b000700f3fe070094
:1009d0000001be000c00be004dff07000005be0078
:1009e0000001be00260007000006be00a2f323009f
:1009f000430d2c00e9fe0700809fbe000c00be00e6
:100a0000d2e32700d3f02b001d0007004f01be00ea
:100a10003fff07000006be000a01be0018000700e5
:100a20000a01be00ddfe07000006be006148b900f5
:100a300079ff07000005be0032082800e3952b006f
:100a40000f0007000c01be00d4fe07000006be0028
:100a50000a00be000200280013f32300080007006c
:100a60000c01be00cdfe07004f06be004f05be00c4
:100a70004f04be000000060003f023000200050042
:100a8000889fbe008a9fbe008c1f78008dff0700e4
:100a900094ff330003866c006450e10024003200b0
:100aa0006420e100270032006150e10022003200a2
:100ab0006120e100210032008b854200eb07b1008c
:100ac0000134b800003ab8000804420089844a00a2
:100ad000013ab8000030b8008880400009014a009f
:100ae00004003300000040008180480002014900fa
:100af0008b05e900c909dd008301700001003200a7
:100b000013002000c814de004814dd004709de0091
:100b10001200b200c808de000884700043ff07001e
:100b200001f0a1000cf0a70001f0a00076ff370053
:100b30006120e10078ff32000801be000200be0023
:100b4000f7ff37006150e100fcff3a0072ff370009
:100b50000003be004c0007006220e10002003200ea
:100b60000600be0005000500e507b100f107b20070
:100b700004f023008480700007f0a70001f0a000bb
:100b800024000500f4ff2f0054003700881f780070
:100b9000030478000300e00007003d00600010003f
:100ba000e080180060011900e081190002003b009c
:100bb00001f02d00030037000400070008f0a70033
:100bc00001f0a0004f04780000000600889fbe00de
:100bd0008a9fbe00008270000402710004827100ce
:100be000260032000004be000200be006011b80002
:100bf0006b092000950220000182cf000a00390015
:100c00000541b1000082cf00070039000541b10065
:100c10000982cf00040039000541b1000882cf00ed
:100c2000010039000541b1000542520012003200b6
:100c30000a003b0082817100610164008100d100e3
:100c40000080d3008984d3000884d3008b05e8009a
:100c50000442e800f7ff3a000700370008044400a8
:100c600089844c0000004800818048008b05e90021
:100c70000442e900f9ff3a00ecfe07004f05be0010
:100c80004f04be0000000600c70ade00f107b200f4
:100c9000f50fb20008003200e1cf4200020032003e
:100ca0000170a00024000500810f700001003200d7
:100cb0000408050044000500810f700002003a009e
:100cc000140005008502e9000000400081c04800d2
:100cd000fcff3b000170a00024000500889fbe00bf
:100ce0008a9fbe00841f7800f6fe07004f00780040
:100cf00011003300f0ff2f00838f6c0006003b00d3
:100d0000040565000a00a7000800370009f0a600e6
:100d10001000200008003700820f5400838f5c0011
:100d2000030039001000200001003e0000002000f8
:100d300009f0a7000000ea004f05be004f04be0006
:100d40000000e000000006000400fa00889fbe00da
:100d50008a9fbe008c9fbe00e10e2100728780003a
:100d6000e00f51000b003a00648140007287880058
:100d7000c2878800a1009800b187880021419000b7
:100d80000204a000a2409800614190000204a0006b
:100d9000e2409800670440004244de004244dd0027
:100da000b18780000002eb0086102100099121002c
:100db0008684540064004400000f7800614eb9003e
:100dc000010037008b007800214090006100600036
:100dd000020032000a003700930878009101780081
:100de0002340900061006000fbff3200088140005a
:100df000828f510002003900e00f540056003d0080
:100e000091057800818f5500eeff3e00868f5500da
:100e100003003900e00e2100808f5500e9ff390002
:100e2000c0878000808f50005c003a00e00e2100f7
:100e3000808f550059003a000402e800e10f52008b
:100e4000e0ff360022002000811f78001100090019
:100e50008204d800cf007800800f540005003600cf
:100e6000890f5400030031000885e8000a05450099
:100e7000130037006142b800b2ff2f0003002000ca
:100e80000c0151008d815900820f5200838f5a004e
:100e90000a003d003a91210006055500080545006d
:100ea000811f7800110009000985d800000578002d
:100eb000cf0078008955b800010037000805780098
:100ec0000a007800160798003b0407001e039000f4
:100ed000e10f400006003a001e0578000a00780085
:100ee000350407001e039000e10f40002b00320084
:100ef000c187800080087800c1878000e4814000bd
:100f000021419000830f5000020032000204a00033
:100f1000010037000204a100a240980064055500ba
:100f20000a0540000a087800ca878800e10e2100ff
:100f3000010d7800c2878000a24090000104a0004b
:100f400021419800a04090000104a1002140980098
:100f50000002eb009bff3700b2878800828f5100b0
:100f6000070036001202be00d4878800e58788009b
:100f7000110978000040eb00b28780002041980002
:100f8000b587800085087800214090000004a0000b
:100f9000a040980064804000010037000000eb0092
:100fa0004f06be004f05be004f04be000080fa0091
:100fb000000006000000fa0064005000b0878800be
:100fc000a04090000104a100214098000080fa0098
:100fd000000006000000fa00889fbe008a9fbe0045
:100fe0008004780001047800648154009205780040
:100ff00069f9970061016100020032000900780080
:10100000ecff0700080078004fff0700000478009d
:10101000e00f54001b003200890f54001900320009
:1010200068bd97000805550042d5de0009805500cf
:101030004280de000a017800800f55000100360072
:10104000000178004211dd000800be001200070018
:10105000890f54000b0031004255dd000a054400a1
:10106000890f55000700360089045500c2ccde0008
:10107000c24cdd0089044400d0878000e1878000f5
:10108000808cbe00080078004f05be004f04be00f3
:101090000080fa00000006000000fa0080017800dd
:1010a00002003700b1597800040178000202e9001b
:1010b000e00f5100fbff3a000080fa00000006003c
:1010c0000000fa00c10b2100090007000080fa00af
:1010d000000006000000fa0068015700ceb8970033
:1010e000c00b2100490007000080fa000000060044
:1010f0000000fa00889fbe0001047800b80090004c
:10110000628160008084eb003c0032008101780045
:101110000320b2001801900002003a00e00f5100d5
:1011200036003a000190a000310498008004780055
:10113000f90fb200e00f510002003a0028009000c1
:10114000000c7800ea8f540006003a000100780095
:101150000008b20003003a0088007800d0002000a8
:10116000e3ff070018009000d8009000810f5000a6
:101170000b0032000000e80010049800180078000e
:1011800009487800000ce80010c0b300e10f21000e
:1011900080487800ea8f540018003a0005003700b4
:1011a0008800780009407800120307008004780066
:1011b00012003700380090000010b2000f0032001b
:1011c00018019000a8009000480090004b03070011
:1011d00098009000810f5000040032003800900009
:1011e0000003b300300498008084eb000000eb00a3
:1011f0001004980028009000000c78000900780086
:101200004f04be000080fa00000006003600fa001d
:10121000889fbe008a9fbe008c9fbe00601798000a
:1012200001179800620f98000000eb00501798001b
:10123000e50237008e1090008100e8000117980049
:1012400052c2b300824f500006003a008046eb00c5
:1012500003c3b30065415100b1c2b3000e1090004a
:1012600011003700ee119000330190000204b2002b
:101270000400320013017800004978008209e80078
:10128000050037000000fb00ee10900098ff0700fb
:10129000e10f4000cc023200de1290008502e8002f
:1012a00055179800c802370010427800d6c2b30024
:1012b000864f52000b0032008002e800864f520039
:1012c00005003c00824f520009003200814f52005d
:1012d0000e003a0008003700834f52000b003a001e
:1012e000070037000d34a0000000e800eeff3700d3
:1012f0000d04a000030037000d14a000010037000a
:101300000d24a00005007800e7ff370000179800c3
:1013100062816600010032000d04a1006881660050
:10132000010032000d24a1000401fb000203b10002
:10133000e90f51000d003e008004eb008e1090007c
:10134000ea48b80009fd2f00808444001100fb002a
:10135000808444005100fb000003b100e90f5000fd
:10136000f7ff3600011798000a0037008004eb00f1
:10137000a2c2b300824f520006003a006e0c9000e9
:10138000c8047800680f98000e1590000a05e80060
:101390000a1798008005eb007b0f9800e2c2b300ab
:1013a0000e1690009c4f11001c003a006441510041
:1013b0000c06e8000c1798001c407800824f500083
:1013c0000d003a00ee08900041017800610f98008e
:1013d000720f98008c0178008301e80003179800d1
:1013e0000e003700ea18b8000003b1008101400088
:1013f0000201e80002003700fe0990000e11900083
:101400009200fb0000fd2f0001004000e90f50009a
:10141000f4ff3600730f98000217980035c6b3002a
:10142000c1c6b3008e11900033427800044f78009b
:1014300036c7b300864f52001a00320008003c0045
:10144000854f520092003200814f52000c00320052
:1014500003179800e04f520060023200aa003700e4
:101460000317980052c7b300824f5200aa003200ff
:1014700063414100824f5200a3003a00060037004a
:10148000708166000040eb0001003a0000c1b3002b
:1014900080c67600e4ff37000d4078000074a0009d
:1014a0009f003700031798006e0c900048027800e8
:1014b000680f980014179800e00f520002003a00dd
:1014c0006b0d21001b1798000006eb002c179800ed
:1014d000020037008100e80021179800ae1090004c
:1014e0001e119000028040008041eb0090cf11005f
:1014f000f8ff3a00fe0a9000e08f5200050032002b
:101500002e139000868f52000200310005047800ef
:10151000281798002e1290000006eb00848f5400cc
:101520000100360004865400e886660031003a0067
:101530000c01780008c2b300ee14900010003700d0
:10154000390090000004b200040032001900780055
:1015500008487800800ce800050037008900780012
:1015600000022000e2fe0700e10f4000030032000d
:101570005e1590000a05e8005a1798000c017800e3
:101580000c06e900e00f5100edff3a0019003700aa
:10159000340090000004b200090032009401780089
:1015a000080178003240780080497800030ae8009a
:1015b00002047800e04f50000a003a0012003700a1
:1015c000080178003200fb000204780084007800f3
:1015d000241f9800c6fe07002e1a9000e10f40005d
:1015e000090032005e1090000000e80050179800db
:1015f000050037001e149000ae1490003e159000b8
:10160000ce1590006e129000090078008004e90069
:10161000e00f5000deff3a001817980029179800d5
:101620003a1798004b179800e08f5600e6013200f9
:1016300011003700380090000004b20004003200ae
:10164000180078000d487800000ce800050037000d
:101650008800780000022000a5fe0700e10f40008e
:1016600003003200de1090008100e800511798005e
:1016700009067800020037000dc2b3006e14900016
:101680008c04e900e00f5600eaff3a00ce01370073
:10169000031798006e09900042027800620f9800cc
:1016a000cfa2de0005037800860378000400be00a8
:1016b0000601be004800de00480cdd00000074009a
:1016c000004f78007084660009003200e04f50003f
:1016d00007003200e14f400005003200104798003b
:1016e000244798002a0020002a179800030037009a
:1016f000144798001b0020002b1798000e06e800e6
:101700001c1798007bff37001e179800110020005f
:101710002117980077ff370000ccb30000c0760097
:101720000080fb00500f98007001600022079800b5
:101730000e0032006e0e90004c05be006c0f98003b
:101740007a0798000b0f98000000eb00100f98002c
:101750008000eb00210f98007e0090008e08900022
:101760001e099000ae09900007003700ee089000b7
:1017700041027800610f9800040078000100200009
:101780000200200003002000101798002117980085
:101790003217980043179800fe089000e08f500021
:1017a0000d003a0012002000720f98001e109000e9
:1017b000ae1090003e119000ce119000e00f50004e
:1017c000e08f5800e00f5900e08f5900020032000e
:1017d0008000eb00710f98005e099000020cb200cf
:1017e000320f980004082000840f51001b003200c3
:1017f000040c2000840f510037003a0010c0b300e1
:10180000004f780005012100090378000f00370020
:101810000400fb004300dd00008042005001be00d8
:101820004000be001e149000ae1490003e159000c3
:10183000ce1590000040e10001c8e10002d0e100b7
:1018400003d8e10021003900044fe8001e4278006f
:10185000f44f5200eeff3a001c00370010c0b300f6
:10186000004f780004012000050020006033b8001c
:1018700009017800110037001e149000ae1490008a
:101880003e159000ce1590000440e10005c8e1002f
:1018900006d0e10007d8e1000e0039004900200021
:1018a0000402d0008582d2000683d2008783d20052
:1018b0008904e900faff3a00004fe8001e40780072
:1018c000f04f5000ecff3a00020037008604780029
:1018d00001003700820478001e02fb007e0d90009c
:1018e0008a0f520002003d000a4f780004003700c2
:1018f000fe0d9000848f550001003d00740f98008c
:10190000e08f5400040032005e0e90006302660017
:10191000010032008904e9001e02fb000000eb0018
:10192000400f9800848f5400020034000482540059
:10193000440f9800de089000e48160004900320006
:10194000e281600061826000e08f51001900320086
:101950006e119000b20190000304b2000900320041
:1019600092027800b3c2b300e00f520001003200cf
:1019700083c1e800834a7800ee1190008509e800f1
:1019800008003700d0022000e00f520001003a00aa
:101990000080e900ee109000d5fd0700e10f400047
:1019a00017003200de1290008502e80055179800fb
:1019b00013003700e00f5200110032006e13900048
:1019c000b60190000304b2000500320096017800d1
:1019d00000c2b30080497800030be800050037001f
:1019e000ee10900000022000c1fd0700e10f400052
:1019f000030032005e1490000804e80058179800b5
:101a0000ce0c9000e08f5400ca00320008c3b3002f
:101a100009067800de169000ee1490003900900060
:101a20000004b20004003200190078000848780071
:101a3000800ce800050037008900780000032000d2
:101a4000abfd0700e10f4000010032008d06e80009
:101a50000c06e900f1ff3a004c0f98005d17980062
:101a6000b40037004e0d9000e00f55001800320012
:101a7000de0d9000e881650015003a0008c2b30051
:101a80000a067800de169000ee14900039009000ef
:101a90000004b20004003200190078000848780001
:101aa000800ce80005003700890078000002200063
:101ab0008ffd0700e10f4000010032008d06e800b5
:101ac0000c06e900f1ff3a004c0f98005d179800f2
:101ad0005e0e9000e201660061026600e08f510038
:101ae000190032006e109000b00190000304b200a3
:101af0000900320090027800b3c2b300e00f520038
:101b00000100320083c1e800834a7800ee109000a3
:101b10008508e80008003700d0022000e00f5200de
:101b200001003a000080e900ee10900070fd07000f
:101b3000e10f40007f0032005e1190000201e800da
:101b4000521798007b003700e00f520079003200f6
:101b5000ee129000b50190000304b20005003200bf
:101b60009501780000c2b30080497800830ae8003c
:101b700005003700ee109000000220005cfd070019
:101b8000e10f40006b0032005e1390000603e80096
:101b900056179800670037007e0c90000804e90093
:101ba000780f980000082000be0c9000808f540031
:101bb00033003200000c2000808f540040003a00b7
:101bc000080578004350dd00ae059000e08f550019
:101bd0001a0032000406be0001012100008040000e
:101be0003004be002005be000801be000400be0097
:101bf00017010700004f78000000fb00cf80de00d7
:101c00000801be00220107000001560081815e002c
:101c100032079800430798008001eb0053079800b3
:101c20008002eb00650798003e029000ce02900013
:101c30005e039000ee0390000e00370008012100c3
:101c40000000440010017800811f78001100090095
:101c50000282d800cf007800a2002000811f780007
:101c6000110009000280d80001007800cf00780040
:101c7000004f780009c3b3001ecf440010003700a6
:101c80007e0d90004250dd000605be000404be003b
:101c9000000678000c06e900050033008b05d10032
:101ca0000a85d3008984d3000884d300f9ff370064
:101cb0006f006400d10d210001004000104f78003a
:101cc0006e119000320090000004b2000800320053
:101cd000120178001e40780000497800ee11900053
:101ce0008209e800e04f50000e003a00150037006e
:101cf0001e00fb00ee109000241f9800751798003e
:101d0000061f9800171f9800f9fc07002e1a900074
:101d1000fe1290000e1b90009e1b9000e10f4000f1
:101d2000080032005e1490000804e800581798007c
:101d3000040037001e129000ae1290003e13900077
:101d4000ce139000fe0c9000e08f540092ff3a00fa
:101d50001417980025179800361798004717980011
:101d6000de08900068806000170032004e09900085
:101d7000e00f51001400340008c2b30002067800de
:101d8000de169000ee149000390090000004b200be
:101d9000040032001900780008487800800ce80040
:101da000050037008900780000022000d0fc070001
:101db000e10f4000010032008d06e8000c06e9004a
:101dc000f1ff3a005d1798008e11900013407800e3
:101dd000004f7800e04f500016fd3a005e10900072
:101de0004f06be004f05be004f04be000080fa0043
:101df000000006000200fa00889fbe00004f780035
:101e00000104780038009000800078000104b200de
:101e100032003a00e200600005003a000003b3001f
:101e200030049800110498000080eb002c0037006b
:101e3000d8049000e08f540006003a001200200001
:101e40008e007800480090002c00070019049800cc
:101e500022003700a8009000e08f500008003a00f0
:101e60001110210021049800010c780021002000ad
:101e700051049800110498000030a000300498002c
:101e800018019000a8009000480090001b00070077
:101e9000280090008080eb00110498001e48780014
:101ea000000ce800a0c0b3009e4f10000b003a00e9
:101eb000380090000010b2000800320018019000b5
:101ec000a8009000480090000c0007000000eb0004
:101ed0001004980028009000000c78001e00fb0001
:101ee0004f04be000080fa00000006000000fa0067
:101ef00000c0da000080fa00000006000a00fa00c4
:101f0000e20f500021003e0020888000e10f5000c9
:101f100006003200852320004423200023232000d4
:101f200000232000e08f520004003a0085222000a8
:101f30004422200023222000002220000600280046
:101f40009003630002003a00870a780010087300cb
:101f5000004020001300600001003a0013a0a00020
:101f60000200780006003700930278000510b200e6
:101f7000fdff3200b102fb00050a78000000e90015
:101f8000e00f5000f8ff3a0008003700330020004f
:101f9000030f780010079800210798003207980077
:101fa0000e007800d1ff07003e019000020078008b
:101fb0000080fa00000006000000fa00889fbe00c2
:101fc0008004780030888000e00f500004003a0060
:101fd0000f0007000084eb00e00f50000800350000
:101fe00038888000e08f540005003200090044006a
:101ff00007000700e00f500001003d000084eb00e7
:10200000080078004f04be000080fa0000000600bf
:102010000000fa00e00f500004003a008110210097
:102020003188880080007800060037008080eb004f
:1020300002912100820f500002003e00308888008b
:102040008000eb00010078000080fa00000006002c
:102050006022b800060220000000d0008180d2007b
:102060000482d2008582d2000000a0000202520049
:1020700083825a00030031000202420083824a0038
:102080000000a1000603e900f3ff3a00000006008b
:10209000020ab900001bb9000200b800810042002a
:0820a00081004300000006006e
:020000040000fa
:1020a80045720000726f0000722000004275000047
:1020b800666600006572000020460000756c00002e
:1020c8006c0d00000049000032430000205200005f
:1020d80065610000640d0000004900003243000003
:1020e8002057000072690000746500000d000000b0
:1020f8004932000043200000537400006172000060
:10210800740d000000490000324300002052000016
:102118006573000074610000727400000d00000017
:102128004932000043200000537400006f70000023
:102138000d00000049320000432000004164000007
:10214800642000004e610000636b00000d00000079
:102158004932000043200000446900007363000016
:102168006f6e00006e650000637400006564000017
:102178000d000000493200004320000044610000c7
:1021880074610000204e0000616300006b0d0000c8
:10219800004900003243000020420000757300002f
:1021a800793100000d000000493200004320000092
:1021b8004275000073790000320d000000490000ec
:1021c8003243000020540000726100006e200000bd
:1021d800424600000d000000493200004320000084
:1021e8005243000056200000546900006d6500004d
:1021f8006f750000740d00000049000032430000b4
:1022080020520000657300007461000072740000c1
:1022180020410000646400007265000073730000d0
:10222800204e0000616300006b0d000000490000b3
:102238003243000020540000524e00002054000099
:10224800696d0000656f0000757400000d000000e6
:10225800493200004320000052430000562000008d
:102268004f76000065720000666c00006f77000012
:102278000d000000493200004320000054520000c5
:102288004e200000436f00006c6c00006973000072
:10229800696f00006e0d0000005500006e6b0000b5
:1022a8006e6f0000776e00000d0000006162000094
:0822b8006364000065000000f2
:020000040000fa
:1022c0000000fa00620007000080fa00000006002b
:1022d0000800fa00881f780020079800310798004e
:1022e0000000eb00000f78000000eb0010079800e2
:1022f000110037001e007800ae00900000844000fe
:10230000efff0700004c78001e007800ae00900040
:102310000080400010407800ea4f500003003a006f
:102320001000200010079800020037000000eb00aa
:10233000100798001e0fe8003e0090009e007800f5
:10234000808f500003003d001e009000e10f500000
:10235000e8ff3a001e007800ae0090008080400048
:10236000a0c0b300804878004f0478000080fa00d5
:10237000000006000200fa00004f78000000000094
:10238000911180000020200000806000e00f5000cc
:10239000fbff3a009e4078000180fb00a0118800fe
:1023a0000080fa00000006000600fa0010079800fe
:1023b000210798000000eb00000f780006003700ae
:1023c0001e0078009e0090000080400010407800c1
:1023d000e8ff07001e0fe8001e0078009e00900036
:1023e0000080400010407800ea4f500004003200a6
:1023f0002e0090009e007800808f5000f0ff350086
:102400000080fa00000006000200fa000700370012
:1024100030808000000f78001e00780010009000cf
:10242000308088001e007800e2fa070030808000cb
:10243000e00f5000f6ff3a000000eb0040808800fb
:102440000000eb00508088000080fa0000000600c9
:102450000400fa0000c0eb00004f780030808000dc
:10246000e00f50000c003200308080001007980010
:102470001e00900010009000308088001e00900028
:10248000104f78001e009000cafa070050808000ac
:102490000000e900508088001e4078000080fa00ab
:1024a000000006000400fa002047980040002000c9
:1024b00025fa0700000f78001e007800e00f50009a
:1024c00007003a004e0307004d03070010c0b30099
:1024d00027030700400020001bfa0700000f7800c8
:1024e0001e007800ae409000014878001e00780081
:1024f0008000eb001100980030808000e00f500059
:1025000005003a001e007800308088009e007800a8
:102510004180880005003700408080009e007800e0
:10252000110098001e0078004080880050808000d4
:102530000000e800508088000080fa0000000600db
:102540003600f800809fbe00829fbe00849fbe00c0
:10255000869fbe000000fa0003003700b011800023
:1025600000407800cfff07009011800061006000fc
:10257000e00f5000f9ff3a00a171800000802000b8
:102580008080600010c0b300e08f50000100320076
:102590000040eb000080fb00610060004b00dd00ac
:1025a000a2718000f17f2f00810061000080700027
:1025b000a0718800a0718000e100600010c0b3002d
:1025c000e08f5000010032000040eb000080fb0073
:1025d00061006000a2718000e1ff2f0081006100b6
:1025e00000807000a071880003c8a9000080fa0074
:1025f0004f03be004f02be004f01be004f00be00a1
:102600003600f900004006000000fa00508ea800d5
:1026100050aea9003136800000f82f0080806000a5
:102620004006200000807000303688009134800021
:10263000f00f2c00808060000030200000807000cf
:10264000903488003062a80090052000c0118800f6
:1026500081118000f0cf2f00008060008011880081
:10266000714280000070200000807000704288007d
:1026700003c8a90023c8a80031e2a8003342a8007b
:102680000080fa00000006004600fa00508080003a
:10269000e00f50002301340009ff0700204f98008d
:1026a000a1718000004020008080600010c0b30055
:1026b000e08f5000010032000040eb000080fb0082
:1026c000610060004a00dd00a2718000f1bf2f00b0
:1026d0008100610000807000a0718800ae48900009
:1026e00010c3b30080cf500002003a0015eea800de
:1026f0000c013700ae48900020c3b30080cf5000db
:1027000002003a0015eea90006013700ae4890001d
:1027100030c3b30080cf50000e003a00a07080009c
:102720000080ea004f00de00004078000080fb00df
:102730004f00dd00a2708000f1ff270081006100e2
:1027400000807000a070880070c7b30009ff070008
:10275000f4003700ae48900040c3b30080cf500073
:1027600026003a00ce050700600798007107980020
:102770006e00900000407800605f98006e0090004e
:10278000fe0090004809dd004800de0000007100f6
:10279000c888de0000407800705f98006e009000ee
:1027a000fe0090004088de00cf80de000040780010
:1027b000006798006e009000fe0090004888de00e0
:1027c000cf80de0000407800106798000000eb002a
:1027d000000f7800050037009e0178007e804100e0
:1027e0006e407800e3fe07001e0fe8001e00780030
:1027f000e30f5000f8ff3600ca003700ae489000e3
:1028000050c3b30080cf500028003a00b90507003c
:10281000000f9800110f98000e08900000407800fb
:10282000206798000e0890009e0890004809dd007f
:102830004800de0000007100c888de00004078001b
:10284000306798000e0890009e0890004088de00d7
:10285000cf80de0000407800406798000e089000ae
:102860009e0890004888de00cf80de00004078009f
:10287000506798000000eb00100798000700370031
:102880001e0090002002b0006e407800b9fe0700e4
:102890001e0090000000e800100798001e00900045
:1028a000e30f5000f6ff36009e003700ae48900060
:1028b00060c3b30080cf50001e003a00000000004b
:1028c00050808000e30f5000fdff340060022000c4
:1028d0000e004000410020007dfe07006002200045
:1028e0000e0040001001be00220f9800330f980028
:1028f0002e089000be08900093050700a07180008c
:10290000e100600010c0b300e08f50000100320011
:102910000040eb000080fb0061006000a2718000bd
:10292000e1ff2f008100610000807000a07188002d
:102930007c003700ae48900070c3b30080cf5000d9
:102940001e003a000000000050808000e30f50009d
:10295000fdff3400a00220000e00400041002000d6
:102960005bfe0700a00220000e0040001001be0028
:10297000420f9800530f98004e089000de08900018
:102980007c050700a0718000e100600010c0b3006a
:10299000e08f5000010032000040eb000080fb009f
:1029a00061006000a2718000e1ff2f0081006100e2
:1029b00000807000a07188005a003700ae48900077
:1029c00030c6b30080cf500004003a00e00220007f
:1029d0000e0040003e03070052003700ae48900052
:1029e00090c3b30080cf500011003a00f0022000e5
:1029f0000e004000f80207000000eb0020079800de
:102a0000070037002e009000f002b0006e40780002
:102a100058fe07002e0090000000e80020079800f4
:102a20002e009000e50f5000f6ff36003d00370005
:102a3000ae48900010c6b30080cf500011003a009d
:102a4000500320000e004000020307000000eb00ce
:102a500030079800070037003e0090005003b00098
:102a60006e40780043fe07003e0090000000e80042
:102a7000300798003e009000e50f5000f6ff36004a
:102a800028003700ae48900020c6b30080cf500029
:102a900016003a00c00320000e004000600f9800ae
:102aa0003f05070056050700601f9800711f98003a
:102ab0000000eb004007980008003700ee08900087
:102ac0004e009000008040001040780029fe070072
:102ad0004e0090000000e800400798004e00900073
:102ae000e30f5000f5ff36000e003700ae489000af
:102af00080c3b30080cf50000a003a008e017800f6
:102b00000e04b000a015290004000900305f780011
:102b100003077800000420000e0040005100200050
:102b200021fe07000080fa00000006000c00fa00f9
:102b300030079800014f9800520798000000eb0002
:102b4000000f780010002000200798004b0037008d
:102b50002e009000e20f500017003200e40f5000ea
:102b600022003200e10f50002e003a00ed00070075
:102b700020cdb30014010700204798002e4090009c
:102b8000e04f50000900320070c0b3007801070028
:102b900004010700e30007000040eb002047980015
:102ba00020cdb30008010700204798002000200036
:102bb000200798001b0037000e4890000201070014
:102bc000204798004000200020079800150037009b
:102bd0001e007800be009000008040001040780089
:102be000f9000700204798001e0fe8005e009000e3
:102bf0009e007800808f500003003d002e40900022
:102c0000e04f5000f2ff32002e409000e04f5000a5
:102c100001003a00e30007000000eb0020079800e5
:102c2000000000002e409000e04f500013003200e2
:102c30002e009000e20f500005003200e40f50001b
:102c400006003200e00f5000070032000900370094
:102c500080c0b300460107000600370090c0b300f3
:102c6000430107000300370090c0b3004001070094
:102c700000000000cb000700030037002e0090008a
:102c8000e00f5000b2ff3a00411080000008200021
:102c900000806000e00f50000300320000c1b3006c
:102ca0003301070008e2a900411080000004200061
:102cb00000806000e00f50000300320010c1b3003c
:102cc0002b01070008c2a9002e4090000080fb00e5
:102cd0000000e9004f00de00004078000080fa00ac
:102ce000000006000c00fa0030079800014f980021
:102cf000520798000000eb00000f78001000200041
:102d0000200798006b0037002e0090006101b90089
:102d10000080eb008080eb000200400083804800d0
:102d20003200200003002000820f5000838f5800e3
:102d300042003e0000060100030037001500370086
:102d40001a003700280037007600070020cdb300b6
:102d50009d000700204798002e409000e04f500053
:102d60000900320070c0b300010107008d000700a8
:102d70006c0007000040eb002047980020cdb30016
:102d800091000700204798002000200020079800ad
:102d90002a0037000e4890008b000700204798005b
:102da000300020002007980024003700740007003e
:102db00030cdb30084000700204798004000200079
:102dc000200798001d0037001e007800be0090000c
:102dd000008040008040eb00a900070020479800d9
:102de0001e0fe80001003700000000005e009000a8
:102df0000000e9009e0f5000030034002e409000b8
:102e0000e04f5000f0ff32002e409000e04f5000a5
:102e100007003a001e007800be00900000804000cd
:102e200011c0b30096000700204798005d0007001e
:102e30000000eb0020079800000000002e409000ea
:102e4000e04f50001b0032002e009000cf80de00cb
:102e50004200200003002000820f5000838f5800a2
:102e600012003e00000601000d0037000f00370081
:102e700002003700040037000600370080c0b300ae
:102e8000bb0007000900370090c0b300b80007007e
:102e900006003700e0c0b300b500070003003700ac
:102ea00090c0b300b2000700000000003d00070022
:102eb000030037002e009000e00f500092ff3c000e
:102ec000411080000008200000806000e00f5000ea
:102ed0000300320000c1b300a500070008e2a9000a
:102ee000411080000004200000806000e00f5000ce
:102ef0000300320010c1b3009d00070008c2a90002
:102f00002e4090000080fa00000006000000fa0049
:102f1000e00520002010880007e2a8000080fa00e9
:102f2000000006000000fa00401080006800600009
:102f3000e00f5000030032000642a800a0c0b3001a
:102f40008b0007004010800068006000e00f500018
:102f500007003a000602a8000000000030108000c0
:102f600061006000e00f5000fcff3a0002003700f3
:102f7000b0c0b3007e0007000080fa000000060029
:102f80000000fa000622a8000000000030108000b7
:102f900062006000e00f5000fcff3a000080fa0081
:102fa000000006000000fa000642a8000000000031
:102fb0003010800064006000e00f5000fcff3a0019
:102fc0000080fa00000006000600fa004047980062
:102fd0006000b800008fbe004010800061006000fb
:102fe000e00f500021003a004e4090000080fb00ae
:102ff000101088000400370010002000010020009d
:103000001e0f40005e974800411080000000240021
:1030100000806000e00f500006003200f0692800d8
:10302000110020001e01be00800f5100818f590049
:10303000f1ff3400006a2800110020001e01be00cc
:10304000800f5100818f590004003a00f0c0b30096
:103050004700070010c0b300070037004010800091
:103060004f00de000040780003003700c0c0b3000e
:103070003f00070010c0b3000080fa000000060007
:103080000a00fa0030079800014f98006000b8006d
:10309000008fbe000662a800040037001000200068
:1030a000010020001e0f40005e9748004010800085
:1030b00062006000e00f500006003a00f06928004e
:1030c000110020001e01be00800f5100818f5900a9
:1030d000f2ff3400006a2800110020001e01be002b
:1030e000800f5100818f590008003a00d0c0b30012
:1030f0001f000700be0090000040eb0080487800f1
:1031000010c0b30040479800160037000010800040
:1031100000407800be009000804878000e48900083
:10312000614060000080fb00610060004500dd0040
:1031300032108000f1fd2f008100610000807000de
:10314000301088000682a8000000000030108000c7
:1031500070006000e00f5000fcff3a000040eb0000
:10316000404798004e4090000080fa0000000600a2
:103170000400fa002047980040002000f2f6070003
:10318000000f78001e007800e00f500004003a00a5
:103190001b00070010c0b30020479800160037003e
:1031a0002e4090009e007800804878001e00780035
:1031b0008000eb001100980000808000e00f5000bc
:1031c00005003a001e007800008088009e0078000c
:1031d0001180880005003700108080009e00780074
:1031e000110098001e007800108088002080800068
:1031f0000000e800208088000080fa00000006003f
:103200000400fa0000c0eb00004f7800008080004e
:10321000e00f50000c003200008080001007980082
:103220001e00900010009000008088001e0090009a
:10323000104f78001e0090005ef70700208080008d
:103240000000e900208088001e4078000080fa001d
:10325000000006000200fa0007003700008080002e
:10326000000f78001e007800100090000080880099
:103270001e0078004ff7070000808000e00f50002c
:10328000f6ff3a000000eb00108088000000eb0021
:10329000208088000080fa00000006000200fa008a
:1032a0000040eb00004f7800d000200084f70700ba
:1032b0008e003700d2ff0700004f78001e407800d4
:1032c000e14f500005003a0040052900801f7800ba
:1032d00080f707008f87e900840037001e407800e0
:1032e000e44f500005003a0070062900801f780066
:1032f00078f707008f87e9007c0037001e407800d0
:10330000e54f500005003a0010072900801f7800a3
:1033100070f707008f87e900740037001e407800bf
:10332000e24f500005003a00c0072900801f7800d6
:1033300068f707008f87e9006c0037001e407800af
:10334000e64f500005003a0070082900801f780001
:1033500060f707008f87e900640037001e4078009f
:10336000e34f500005003a0040092900801f780013
:1033700058f707008f87e9005c0037001e4078008f
:10338000e74f500005003a00e0092900801f78004f
:1033900050f707008f87e900540037001e4078007f
:1033a000e84f500005003a00c00a2900801f78004d
:1033b00048f707008f87e9004c0037001e4078006f
:1033c000e94f500005003a00e00b2900801f78000b
:1033d00040f707008f87e900440037001e4078005f
:1033e000ea4f500005003a00d00c2900801f7800f9
:1033f00038f707008f87e9003c0037001e4078004f
:10340000eb4f500005003a00800d2900801f780026
:1034100030f707008f87e900340037001e4078003e
:10342000ec4f500005003a00300e2900801f780054
:1034300028f707008f87e9002c0037001e4078002e
:10344000ed4f500005003a00000f2900801f780062
:1034500020f707008f87e900240037001e4078001e
:10346000ee4f500005003a0010102900801f780030
:1034700018f707008f87e9001c0037001e4078000e
:10348000ee4f500005003a00b0112900801f78006f
:1034900010f707008f87e900140037001e407800fe
:1034a000f14f500005003a00c0122900801f78003b
:1034b00008f707008f87e9000c0037001e407800ee
:1034c000f04f500005003a00e0132900801f7800fb
:1034d00000f707008f87e900040037001015290066
:1034e000801f7800fbf607008f87e90020808000ae
:1034f000e00f50006fff3c000080fa000000060063
:103500000200fa0010c0b300004f78001200200043
:10351000b1c6b3000e00780084fd070010c0b300f0
:10352000004f780012002000a1c6b3000e00780002
:103530007efd07000040eb00004f780012002000e5
:10354000a1c1b3000e00780078fd070070c0b30081
:10355000004f78001200200091c1b3000e007800e7
:1035600072fd070080c1b300004f780012002000f8
:10357000b1c1b3000e0078006cfd070080c1b3003c
:10358000004f780012002000c1c1b3000e00780087
:1035900066fd07000040eb00004f7800120020009d
:1035a00071c3b3000e00780060fd07000040eb001f
:1035b000004f78001200200081c3b3000e00780095
:1035c0005afd07000080fa00000006000000fa0023
:1035d0000080fa00000006000200fa00000f7800e8
:1035e00012002000c1c3b3001e007800bdfd07001b
:1035f0001e00e80012002000b1c3b300b9fd0700af
:103600001e80e80012002000e1c3b300b5fd0700f2
:103610009e0078006380400012002000d1c3b300f8
:10362000b0fd07009e00780064804000120020007a
:1036300001c4b300abfd07009e0078006580400028
:1036400012002000f1c3b300a6fd07000080fa00bd
:10365000000006000200fa00000f780012002000af
:1036600041c4b3001e0078009efd07001e00e80064
:103670001200200031c4b3009afd07001e80e8004c
:103680001200200061c4b30096fd07009e00780080
:10369000638040001200200051c4b30091fd070078
:1036a0009e007800648040001200200081c4b300b6
:1036b0008cfd07009e00780065804000120020000d
:1036c00071c4b30087fd07000080fa000000060007
:1036d0000200fa00000f78001200200051c7b3006a
:1036e0001e0078007ffd07001e0078001040780063
:1036f0000080fb001ffb07000080fa0000000600ae
:103700000600fa00200798002e0090000000e80054
:10371000104078000080fb00c800dd002e00900003
:10372000104078000080fb0000807000cf80de0039
:1037300039f40700008fbe000200200003a0230020
:103740001e00be00cef40700008fbe001e00be00ab
:103750000080fa00000006000600fa00200798002a
:103760002e0090000000e800104078000080fb0070
:10377000c800dd002e009000104078000080fb00a3
:1037800000807000cf80de0023f40700008fbe00b1
:1037900002192c0093d723001e00be00b8f40700c6
:1037a000008fbe001e00be000080fa000000060070
:1037b0000000fa00213a800000fe2f000080600027
:1037c000203a8800313a800000e02f0080806000bd
:1037d000a002200000807000303a8800213a80006a
:1037e000f0f32f0000806000203a880012002000d3
:1037f00080072000a1092000337420008049780050
:103800008149780082497800103a800000017800f0
:103810000200a00060042000710520002374200035
:1038200080497800814978008249780000000000d2
:10383000113a800000002700808060000000210015
:10384000808f5000faff3a0000000000113a80001b
:103850000002200000806000e00f5000fbff3200fb
:10386000310ea800312ea900314ea900316ea900f9
:10387000300ea90011eea900003a80006080880097
:103880000000eb00003a8800650007005efb0700bf
:103890009efd07005b01070019ff070002000700fb
:1038a0000080fa00000006000000fa00352ea80093
:1038b000354ea800356ea800340ea800352ea9009c
:1038c00000202100a107200060020700352ea8007b
:1038d000354ea90000202100a10720005b0207004f
:1038e000354ea800356ea90000202100a107200058
:1038f00056020700356ea800340ea90000202100f2
:10390000a107200051020700340ea800005a22002f
:10391000610220004d02070060808000e10060002d
:1039200010c0b300e08f5000010032000040eb00f7
:103930000080fb00610060004900dd00a271800092
:10394000f1df2f008100610000807000a07188000d
:1039500060808000e200600010c0b300e08f500083
:10396000010032000040eb000080fb0061006000bd
:103970004a00dd00a2718000f1bf2f0081006100cc
:1039800000807000a0718800618080000008200025
:103990008080600010c0b300e08f50000100320052
:1039a0000040eb000080fb00610060004b00dd0088
:1039b000a2718000f17f2f00810061000080700003
:1039c000a07188006180800000202000808060005d
:1039d00010c0b300e08f5000010032000040eb0047
:1039e0000080fb0061006000a2718000e1ff2f00f9
:1039f0008100610000807000a071880000682900cb
:103a00008109200011020700352ea800354ea800bc
:103a1000356ea800340ea8000080fa0000000600f1
:103a20000000fa002043a8002143a8002183a80039
:103a300001198000000e200000807000001988002d
:103a40002083a90021198000f00f2e0080806000e3
:103a500000f02000008070002019880090c0b300a2
:103a600024e3b7003303a8004119800000fe2f00b3
:103a700000806000a001b30040198800d000200041
:103a8000105888000030200060588800f00720009f
:103a9000705888000000eb003058880000f02d00be
:103aa000205888000088a9002088a90001eba80000
:103ab0002023a90021e3a8000080fa0000000600ee
:103ac0000600fa006011b80012079800230798005a
:103ad0000001eb00020f78001e0037001e01780085
:103ae000020141006111b90000f02d001100200019
:103af0000202d0008002d000050142004220a8004e
:103b0000818149004200a9004220ae004200a80085
:103b10000281d3009401800083027800950188001f
:103b20000000000002017800120178009401880072
:103b300000000000030020001e029000ae02900072
:103b4000040141008581490012079800230798006d
:103b50001e0fe800f20720009e017800828f5100be
:103b6000deff34001e009000ae0090004909dd0029
:103b70004700de0000007100c708de001007980053
:103b8000210798001e0090000080fa000000060047
:103b90000000fa0001198000f0cf2f0000806000c3
:103ba000001988002143a8002203a9002043a9008e
:103bb00001198000000e20000080700000198800ac
:103bc0002083a90011198000f0ff2100008060000f
:103bd0001019880021198000f00f2e0080806000ed
:103be00000f02000008070002019880090c0b30011
:103bf00024e3b7004119800000fe2f000080600020
:103c0000a001b300401988002023a90021e3a800e7
:103c10000080fa00000006000000fa002023a8003f
:103c2000000000000019800061006000e00f5000fb
:103c3000fcff3200001880000080fa00000006003f
:020000040000fa
:103c400000100000060000008000000006100000c8
:103c500006000000800000000c10000002000000c0
:103c60008000000000df0000000100008000000074
:103c70000e1000000200000080000000ee100000a6
:103c80001000000080000000fe1000000600000090
:103c900080000000b010000026000000820000003c
:103ca000ff10000000ff10000900000000020000eb
:103cb00001110000000111000e02010000000000cf
:103cc00000000000000000000602020000000000ea
:103cd000b0100000d61000001800000082000000a4
:103ce000286e75006c6c29000030310032333400ce
:103cf000353637003839610062636400656600005c
:103d000010100000a0000000820000000100000070
:103d10000000000000000a00000000000000000099
:103d2000006400000000000000000000e803000044
:103d3000000000000000100027000000000000004c
:103d400000a08600010000000000000040420f00bb
:103d500000000000000080009698000000000000b5
:103d60000000e100f50500000000000000ca9a0014
:103d70003b00000000000000e40b540002000000c3
:103d80000000e80076481700000000000010a500c1
:103d9000d4e8000000000000a0724e0018090000e6
:103da000000040007a10f3005a0000000080c600b6
:103db000a47e8d000300000000c16f00f286230086
:103dc000000000008a5d7800456301000000640087
:103dd000a7b3b600e00d000000e889000423c70087
:103de0008a000000041100000200000082000000b0
:103df0000100000006110000020000008000000029
:043e000000000000be
:020000040000fa
:103e04000000fa001f2ea9001f4ea900e135800012
:103e140000f82f0080806000a00220000080700065
:103e2400e0358800e1358000f00f280080806000d4
:103e34000090220000807000e03588000000eb0054
:103e4400300e88000000eb00400e88000136800030
:103e540000f82f00808060002006200000807000a1
:103e64000036880001368000f00f28008080600052
:103e74000030260000807000003688000000eb004f
:103e8400302e88000000eb00402e8800c1e1a8001d
:103e9400c1e5a8000080fa00000006000c00fa004a
:103ea400300e800001002000008fbe00500e800004
:103eb4000100200020079800310798002e00900090
:103ec400be009000c000dd00000020003e01700034
:103ed400ae8170000200be004007980051079800b0
:103ee4004e009000de0090000080fa000000060002
:103ef4000c00fa00302e800001002000008fbe006c
:103f0400502e8000010020002007980031079800ff
:103f14002e009000be009000c000dd0000002000d4
:103f24003e017000ae8170000200be0040079800a0
:103f3400510798004e009000de0090000080fa00c7
:103f4400000006000400fa00008fbe001e00be0040
:103f54004088de00cf80de0000007800500e88002c
:103f64001e007800300e88000080fa000000060071
:103f74000400fa00008fbe001e00be004088de0070
:103f8400cf80de0000007800502e88001e007800ec
:103f9400302e88000080fa00000006000800fa00b5
:103fa400c6fe0700010020001df207003233230083
:103fb40033052400b1f20700020020000358240056
:103fc400d2f10700008fbe001e01be0000802e004b
:103fd40001702400cdf1070002002400c361240015
:103fe4006cf1070020079800310798002e0090001c
:103ff400be0090000080fa00000006000800fa00ed
:10400400889fbe0020079800310798000200240012
:10401400c36124002e009000be009000bbf1070095
:104024003ff20700f2232d009399230093f2070037
:10403400d2f02c00b3b5230057f107000004be00f2
:1040440002002400c36124002e009000be009000f2
:10405400aef1070032f20700b2fd2700a36e230081
:1040640086f207000001be000800be004af1070006
:104074000004be0002002400c36124002e0090004e
:10408400be009000a1f1070025f20700726e240023
:10409400b361230079f207000001be000800be00ee
:1040a4003cf107000001be000000200001f82300dd
:1040b40096f10700008fbe000200200003112400c7
:1040c4001e00be006df2070002002000030a240057
:1040d4008ef10700325c2d00533e24002df10700c1
:1040e400008fbe001e00be004f04be000080fa0018
:1040f400000006000000fa00acfd070020808000ec
:10410400e00f50000f003400a17180000040200037
:104114008080600010c0b300e08f500001003200c6
:104124000040eb000080fb00610060004a00dd00fd
:10413400a2718000f1bf2f00810061000080700037
:10414400a071880091718000001020000080600040
:10415400e00f50003a003200a171800000202000de
:104164008080600010c0b300e08f50000100320076
:104174000040eb000080fb00610060004900dd00ae
:10418400a2718000f1df2f008100610000807000c7
:10419400a0718800a1718000004020008080600030
:1041a40010c0b300e08f5000010032000040eb006b
:1041b4000080fb00610060004a00dd00a271800005
:1041c400f1bf2f008100610000807000a0718800a1
:1041d400a1718000008020008080600010c0b300c6
:1041e400e08f5000010032000040eb000080fb0033
:1041f400610060004b00dd00a2718000f17f2f00a0
:104204008100610000807000a0718800a0718000ae
:10421400e100600010c0b300e08f500001003200e4
:104224000040eb000080fb0061006000a271800090
:10423400e1ff2f008100610000807000a071880000
:0842440010f90700bfff37006d
:020000040000fa
:10424c00f03fb1000180b10006003500ee0309001b
:10425c0000000000403fb1000180b100fbff3d00b9
:10426c001000b000203fb0000200350000800900b3
:08427c00000000000000060034
:020000040000fa
:0200000401f009
:04000c0078ff000079
:020000040000fa
:0200000401f009
:040010007fff00006e
:020000040000fa
:0200000401f009
:040014007fff00006a
:020000040000fa
:0200000401f009
:04001800ffff0000e6
:020000040000fa
:0200000401f009
:04001c00dfff000002
:00000001FF
