:020000040000fa
:080000000002040000000000f2
:020000040000fa
:1000080006060000060600000606000006060000b8
:1000180006060000060600000606000006060000a8
:100028000606000006060000060600000606000098
:100038000606000006060000060600000606000088
:1000480006060000060600000606000078230000e9
:100058000606000006060000060600000606000068
:10006800060600000606000006060000c80200009a
:100078000606000006060000060600000606000048
:100088000606000006060000060600000606000038
:100098000606000006060000060600000606000028
:1000a8000606000006060000060600000606000018
:1000b8000606000006060000060600000606000008
:1000c80006060000060600000606000006060000f8
:1000d80006060000060600000606000006060000e8
:1000e80006060000060600000606000006060000d8
:1000f80006060000060600000606000006060000c8
:1001080006060000060600000606000006060000b7
:1001180006060000060600000606000006060000a7
:100128000606000006060000060600000606000097
:100138000606000006060000060600000606000087
:100148000606000006060000060600000606000077
:100158000606000006060000060600000606000067
:100168000606000006060000060600000606000057
:100178000606000006060000060600000606000047
:100188000606000006060000060600000606000037
:100198000606000006060000060600000606000027
:1001a8000606000006060000060600000606000017
:1001b8000606000006060000060600000606000007
:1001c80006060000060600000606000006060000f7
:1001d80006060000060600000606000006060000e7
:1001e80006060000060600000606000006060000d7
:1001f80006060000060600000606000006060000c7
:1002080006060000060600000606000006060000b6
:1002180006060000060600000606000006060000a6
:100228000606000006060000060600000606000096
:100238000606000006060000060600000606000086
:100248000606000006060000060600000606000076
:100258000606000006060000060600000606000066
:020000040000fa
:10040000afe221000eef2d000e0188000000000079
:100410000c000700204f2200010020000f00070001
:10042000000020000000e000020032000000020096
:1004300000000000b4260200000000000040da00c6
:100440000000fe00a01020000000e00002003200ca
:10045000002020009001880000000600a102880012
:10046000800078000000eb001a003700e2804000b6
:1004700054a0b4009101ba00e280400054a0b4003e
:100480009102ba00e280400054a0b4000002eb00e8
:10049000472bde00f507b200a6018800602ce100c2
:1004a00008003a000049eb000201e80002003900b0
:1004b0003420ec0002f0a0008301e900f9ff3e00c7
:1004c000040037006128e100010032000082eb00e7
:1004d000040007001101ba000200e000e3ff3a0047
:1004e0000000060004d0a300e20f49001c00390000
:1004f000810278003549ba000201e80002003900a3
:100500003420ec0002f0a0008301e9000f0032006b
:100510002549ba000201e800020039003420ec004d
:1005200002f0a0008301e900080032000400e000ae
:100530000600320015c9ba000201e80002003900c5
:100540003420ec0002f0a0008301e9008180e80083
:1005500054a0b4000300e000e2ff3a0000000600ef
:100560009102ba00055978008301e900f7ff3200d3
:10057000c82ade00055978008301e900f3ff320044
:100580000400e000f1ff320011d9ba00eeff37009d
:100590003600f800809fbe00829fbe00849fbe0090
:1005a000869fbe000000fa00907180004500de00ca
:1005b000614060000080fb004200dd008040780068
:1005c000907180004400de00614060000080fb000c
:1005d000000040000040780080c0700090718000f2
:1005e0004300de006140600000c0700017f9b700f2
:1005f00016d9bf00e14f500004003a0017d9bf00e0
:100600000000fb00b9000700020037000000eb000b
:10061000b600070017d9bf000000fb00801f78005c
:10062000c0542900801f78005d020700e48757004e
:10063000907180000268a9000080fa004f03be009c
:100640004f02be004f01be004f00be003600f90051
:10065000004006000000fa00506080000080fa00b0
:10066000000006000200fa00000f7800803e200023
:100670009e007800808f500003003400803e2000f0
:1006800050608800080037001e007800e00f50001e
:1006900003003d000000eb005060880002003700be
:1006a0001e007800506088000080fa0000000600fc
:1006b0000000fa001160800080ff2f0000806000c1
:1006c0000010a00010608800803e2000206088009c
:1006d00011618000f03f2f000080600010618800f1
:1006e00011628000f03f2f000080600010628800df
:1006f00011638000f03f2f000080600010638800cd
:10070000a000200050638800506380005062880081
:100710005062800050618800a00020006063880063
:1007200060638000606288006062800060618800b1
:1007300023eca80023cca80043eca80043cca800dd
:1007400063eca80063cca80023aca80043aca800cd
:1007500063aca800238ca900438ca900638ca9007a
:10076000210ca800410ca800610ca8004006200044
:10077000506088000000eb005c00070001eca8005e
:100780000080fa00000006000000fa00386ea800a1
:10079000388ea80038aea8000268a9004142800047
:1007a000f0ff2800808060000000240000807000be
:1007b000404288002268a8000080fa00000006007d
:1007c0000200fa00000f78001e007800e10f5000d0
:1007d00003003a00232ca900230ca9000b003700ca
:1007e0001e007800e20f500003003a00432ca900dd
:1007f000430ca900050037001e007800e30f5000ed
:1008000002003a00632ca900630ca9000080fa00e2
:10081000000006000200fa00000f78001e007800b9
:10082000e10f500005003a0022eca90022cca800fc
:10083000232ca800230ca8000f0037001e0078000e
:10084000e20f500005003a0042eca90042cca8009b
:10085000432ca800430ca800070037001e007800b6
:10086000e30f500004003a0062eca90062cca8003b
:10087000632ca800630ca8000080fa0000000600aa
:100880000200fa00000f78001e007800e10f50000f
:1008900005003a0022eca90022cca900232ca800d4
:1008a000230ca8000f0037001e007800e20f500054
:1008b00005003a0042eca90042cca900432ca80054
:1008c000430ca800070037001e007800e30f50001b
:1008d00004003a0062eca90062cca900632ca800d5
:1008e000630ca8000080fa00000006000200fa0075
:1008f000000f78001e007800cf80de00620020002c
:1009000003002000820f5000838f580075003e00c6
:1009100000060100060037000c0037001c003700fd
:100920002c0037003c0037004c0037005c003700db
:1009300010002000d2ff070020002000d0ff070099
:1009400030002000ceff07006d003700c0c88000d7
:10095000e00f5000070032001000200098ff070051
:1009600020002000c6ff070030002000a9ff07007c
:100970006300370010002000a6ff070020002000c1
:10098000bfff0700300020008dff07005c0037002c
:10099000c0c88000e00f50000700320010002000a7
:1009a0009cff07002000200085ff0700300020008a
:1009b000b3ff0700520037001000200080ff07003f
:1009c0002000200093ff070030002000acff07004c
:1009d0004b003700c0c88000e00f50000700320015
:1009e00010002000a6ff07002000200074ff070071
:1009f0003000200087ff0700410037001000200072
:100a00009fff07002000200082ff07003000200029
:100a10006bff07003a003700c0c88000e00f5000ad
:100a2000070032001000200095ff07002000200082
:100a300078ff07003000200061ff0700300037001a
:100a4000100020008eff0700200020005cff070040
:100a5000300020006fff070029003700c0c8800069
:100a6000e00f5000070032001000200054ff070084
:100a70002000200067ff07003000200080ff0700f3
:100a80001f0037001000200062ff07002000200038
:100a90004bff07003000200079ff070018003700e7
:100aa000c0c88000e00f5000070032001000200096
:100ab00058ff07002000200071ff070030002000d1
:100ac0003fff07000e003700100020003cff07002a
:100ad000200020006aff0700300020004dff0700c3
:100ae000070037001000200065ff070020002000ed
:100af00063ff07003000200061ff070000000000d6
:100b00000080fa00000006001c00fa0050002000df
:100b100020079800300020003007980010002000c7
:100b20004007980060002000500798004000200017
:100b30006007980020002000700798003000200017
:100b4000000f980060002000100f98002000200087
:100b5000200f980050002000300f98001000200057
:100b6000400f980040002000500f980090718000c6
:100b70004500de00614060000080fb00c200dd0037
:100b8000907180004400de00614060000080fb0046
:100b90000000400080807000907180004300de0003
:100ba000614060000080fb0000807000100798002a
:100bb000c0c88000e00f500006003a001e00900000
:100bc0000000e90000004000640040006e0f780063
:100bd000050037001e0090000000e9000000400002
:100be000700040006e0f78009e1f7800c0542900ee
:100bf000801f7800ea000700e48757001e00780095
:100c00003aff07000080fa00000006000040da000a
:100c10000000fe000400fa00889fbe008a9fbe000c
:100c20008c9fbe00c1a0210062d08000e00f510067
:100c30000b003a006481400062d08800b2d0880086
:100c4000a1009800a1d08800214190000204a000da
:100c5000a2409800614190000204a000e240980088
:100c6000670440004244de004244dd00a1d0800021
:100c70000002eb0066a22100a9e221008684540054
:100c800064004400000f7800614eb9000100370095
:100c90008b0078002140900061006000020032006b
:100ca0000a003700930878009101780023409000f3
:100cb00061006000fbff320008814000828f51001c
:100cc00002003900e00f540056003d009105780005
:100cd000818f5500eeff3e00868f550003003900de
:100ce000c0a02100808f5500e9ff3900b0d08000fe
:100cf000808f50005c003a00c0a02100808f55001a
:100d000059003a000402e800e10f5200e0ff36000b
:100d100022002000811f7800110009008204d80001
:100d2000cf007800800f540005003600890f540072
:100d3000030031000885e8000a054500130037006c
:100d40006142b800b2ff2f00030020000c015100e7
:100d50008d815900820f5200838f5a000a003d0096
:100d6000dae221000605550008054500811f7800dc
:100d7000110009000985d80000057800cf0078002f
:100d80008955b80001003700080578000a0078008e
:100d900016079800480107001e039000e10f40006d
:100da00006003a001e0578000a007800420107009c
:100db0001e039000e10f40002b003200b1d08000f4
:100dc00080087800b1d08000e4814000214190008b
:100dd000830f5000020032000204a000010037001f
:100de0000204a100a2409800640555000a054000d5
:100df0000a087800bad08800c1a02100010d78004f
:100e0000b2d08000a24090000104a00021419800cf
:100e1000a04090000104a100214098000002eb00d6
:100e20009bff3700a2d08800828f51000700360058
:100e30001202be00c4d08800d5d088001109780005
:100e40000040eb00a2d0800020419800a5d0800097
:100e500085087800214090000004a000a040980080
:100e600064804000010037000000eb004f06be0028
:100e70004f05be004f04be000080fa0000000600cf
:100e80000000fa0064005000a0d08800a04090004c
:100e90000104a100214098000080fa000000060033
:100ea0000000fa00889fbe008a9fbe008004780080
:100eb00001047800648154009205780069f9970074
:100ec000610161000200320009007800ecff0700b8
:100ed000080078004fff070000047800e00f54007e
:100ee0001b003200890f54001900320068bd9700c2
:100ef0000805550042d5de00098055004280de001d
:100f00000a017800800f55000100360000017800ca
:100f10004211dd000800be0012000700890f5400d6
:100f20000b0031004255dd000a054400890f5500d1
:100f30000700360089045500c2ccde00c24cdd003b
:100f400089044400c0d08000d1d08000808cbe00d5
:100f5000080078004f05be004f04be000080fa0074
:100f6000000006000000fa0080017800020037004f
:100f7000b1597800040178000202e900e00f510045
:100f8000fbff3a000080fa00000006000000fa00b3
:100f9000219f2100100007000080fa0000000600d9
:100fa0000000fa0068015700ceb89700209f21008a
:100fb000480207000080fa00000006000000fa0066
:100fc00068015700ceb89700209f2100410207001a
:100fd0000080fa00000006000000fa00889fbe00b2
:100fe00001047800b8009000628160008084eb000a
:100ff0003c003200810178000320b200180190000b
:1010000002003a00e00f510036003a000190a000c3
:101010003104980080047800f90fb200e00f51000d
:1010200002003a0028009000000c7800ea8f54007b
:1010300006003a00010078000008b20003003a0000
:1010400088007800d0002000e3ff0700180090001f
:10105000d8009000810f50000b0032000000e80023
:10106000100498001800780009487800000ce80087
:1010700010c0b300c1a1210080487800ea8f54005d
:1010800018003a0005003700880078000940780011
:101090001800070080047800120037003800900024
:1010a0000010b2000f00320018019000a80090005c
:1010b000480090005100070098009000810f5000f8
:1010c00004003200380090000003b30030049800a0
:1010d0008084eb000000eb001004980028009000d2
:1010e000000c7800090078004f04be000080fa0070
:1010f000000006000200fa00889fbe00004f780042
:101100000104780038009000800078000104b200eb
:1011100032003a00e200600005003a000003b3002c
:1011200030049800110498000080eb002c00370078
:10113000d8049000e08f540006003a00120020000e
:101140008e007800480090002c00070019049800d9
:1011500022003700a8009000e08f500008003a00fd
:10116000f1a1210021049800010c78002100200049
:1011700051049800110498000030a0003004980039
:1011800018019000a8009000480090001b00070084
:10119000280090008080eb00110498001e48780021
:1011a000000ce800a0c0b3009e4f10000b003a00f6
:1011b000380090000010b2000800320018019000c2
:1011c000a8009000480090000c0007000000eb0011
:1011d0001004980028009000000c78001e00fb000e
:1011e0004f04be000080fa00000006000000fa0074
:1011f00000c0da000080fa00000006000a00fa00d1
:10120000e20f500021003e0010d18000e10f50009d
:1012100006003200852320004423200023232000e1
:1012200000232000e08f520004003a0085222000b5
:101230004422200023222000002220000600280053
:101240009003630002003a00870a780010087300d8
:10125000004020001300600001003a0013a0a0002d
:101260000200780006003700930278000510b200f3
:10127000fdff3200b102fb00050a78000000e90022
:10128000e00f5000f8ff3a0008003700330020005c
:10129000030f780010079800210798003207980084
:1012a0000e007800d1ff07003e0190000200780098
:1012b0000080fa00000006000000fa00889fbe00cf
:1012c0008004780020d18000e00f500004003a0034
:1012d0000f0007000084eb00e00f5000080035000d
:1012e00028d18000e08f540005003200090044003e
:1012f00007000700e00f500001003d000084eb00f4
:10130000080078004f04be000080fa0000000600cc
:101310000000fa00e00f500004003a0061a2210032
:1013200021d1880080007800060037008080eb0023
:10133000a2e22100820f500002003e0020d188006e
:101340008000eb00010078000080fa000000060039
:101350006022b800060220000000d0008180d20088
:101360000482d2008582d2000000a0000202520056
:1013700083825a00030031000202420083824a0045
:101380000000a1000603e900f3ff3a000000060098
:10139000020ab900001bb9000200b8008100420037
:1013a00081004300000006000000fa00889fbe0094
:1013b0008a9fbe003004be002005be000404440025
:1013c00085844c0006054d0087854d000898be00b9
:1013d0000a90be000440e10005c8e10006d0e1002b
:1013e00007d8e10002003100680040001008e80062
:1013f0004f05be004f04be000080fa00000006004a
:101400000000fa00889fbe008a9fbe008c1f7800f3
:10141000000678003c04be002c05be000400540009
:1014200085805c0006015d0087815d00009ebe0036
:10143000029ebe00100020000440e10005c8e1004b
:1014400006d0e10007d8e100010039000000eb0000
:101450001c0e10004f0678004f05be004f04be0062
:101460000080fa00000006001200fa00889fbe000b
:101470008a9fbe008c9fbe000205be000004be0015
:10148000540798006507980076079800070f9800a2
:101490000000eb00400798003007980020079800f4
:1014a00010079800000f780000067800fd03200068
:1014b000ce0190003e00900003814100ae009000fc
:1014c000e08f510003003d0021000700b6ff070038
:1014d000020037001e000700c9ff0700ce00900081
:1014e000e08f5000070035001400200005002000a8
:1014f0006033b80008047200898472000a05730022
:101500008b8573000c06e8008d0f5600e8ff340051
:10151000e08f500002003d0027000700a2ff0700f7
:101520004eb89700e00f500002003a003e04be00a3
:101530002e05be000800be000a01be004f06be0018
:101540004f05be004f04be000080fa0000000600f8
:10155000cf01de0002817100420798004f09de00d2
:101560000000400000007100300798001e0090004d
:101570004f01de008180400081007100210798004a
:101580001e027800cf20de000000400000807000c6
:10159000100798000800be000a01be004f18de00c8
:1015a00004024200000f72000804440089844c00c9
:1015b0000a054d008b854d005e029000ee02900002
:1015c0007e0390008e0b90000e0078000000060055
:1015d0000000fa00881f780018002000881f78009b
:1015e000a1ff07008f87e9004f0478000080fa0010
:1015f000000006000000fa00801feb009aff0700c1
:101600008f87e9000080fa00000006000000fa0061
:10161000889fbe008a9fbe008c1f7800e00f50009c
:10162000e08f5800e00f5900e08f59000f003d0097
:101630006044b8006055b8000000540081805c0030
:1016400002015d0083815d001c0020000820e10094
:1016500009a8e1000ab0e1000bb8e1000d003d006f
:101660001a0007000006eb000a0037000006eb0036
:10167000e00f5200e08f5a00e00f5b00e08f5b004c
:1016800004003d006044b8006055b8000f0007003a
:101690001c002000ceff0700e00f560006003200bd
:1016a0006022b8006033b8000000520081805a0008
:1016b00002015b0083815b004f0678004f05be008e
:1016c0004f04be000080fa0000000600040254002f
:1016d00085825c0006035d0087835d0000000600d4
:1016e0000000fa00889fbe008a9fbe008c1f780011
:1016f000e00f5000e08f5800e00f5900e08f5900d4
:101700000d003d006044b8006055b8000000540072
:1017100081805c0002015d0083815d001c0020006f
:101720000820e10009a8e1000ab0e1000bb8e100df
:101730000d003d00080037000006eb00e00f5200ee
:10174000e08f5a00e00f5b00e08f5b0006003d0079
:101750006044b8006055b8000402540085825c0003
:1017600006035d0087835d00a2ff0700e00f5600bf
:10177000060032006022b8006033b800000052005a
:1017800081805a0002015b0083815b004f06780074
:101790004f05be004f04be000080fa0000000600a6
:1017a0000000fa00889fbe008a9fbe008c1f780050
:1017b0000006eb00e00f5000e08f5800e00f5900ea
:1017c000e08f590007003d006044b8006055b80044
:1017d0000000540081805c0002015d0083815d0097
:1017e0001c002000e00f5200e08f5a00e00f5b0069
:1017f000e08f5b0007003d006044b8006055b80012
:101800000402540085825c0006035d0087835d004e
:101810000c00a2000d000700e00f56000600320089
:101820006022b8006033b8000000520081805a0086
:1018300002015b0083815b004f0678004f05be000c
:101840004f04be000080fa0000000600889fbe0022
:101850008a9fbe008c9fbe000404b8000506b80035
:101860008904460060854e000606b8000a05460059
:10187000e0854e000706b8008b054600040eb80050
:10188000890446000a854e00e0854d00050eb8002b
:101890000a0546008b854e00060eb8008b054600f3
:1018a0000416b8000a0546008b854e000516b800e0
:1018b0008b054600041eb8008b0546000800be00dc
:1018c0000a01be004f06be004f05be004f04be0019
:1018d000000006004200fa00889fbe008a9fbe00fa
:1018e0008c9fbe00201f9800611798007217980007
:1018f0000000eb00101f9800d9033700ee10900095
:101900008100e8006117980052c2b300824f520074
:1019100007003a000001eb00721f980006c3b300f5
:1019200003c2b300b1c2b3006e10900014003700c0
:10193000ae199000330190000204b200050032009d
:1019400093017800844978002e1a9000030ae80079
:10195000070037000401fb00ae1890000200780079
:101960009dfd070000017800e10f4100bc0332003b
:101970009e1a90008502e800151f9800b8033700f2
:1019800010427800d7c2b300874f52000b003200dc
:101990008002e800874f520005003c00834f520050
:1019a00009003200814f52000e003a000800370053
:1019b000864f52000b003a00070037000230a000ab
:1019c0000000e800eeff37000200a000030037002f
:1019d0000210a000010037000220a00005007800de
:1019e000e7ff3700721f980060179800e20161005e
:1019f000020032000200a100721f98007e1c9000bd
:101a0000e8016400020032000820a100781f98005d
:101a10008401fb000303b100e98f51000e003e007a
:101a2000010020006e119000ea08b80001fd2f00af
:101a3000808040001200fb00808040005200fb00cc
:101a40000003b100e90f5000f7ff3600211798009e
:101a5000621798000c0037000005eb002a17980069
:101a6000a2c2b300824f520007003a00fe15900058
:101a70004b0078007b17980020179800ee1090001c
:101a80008100e800611798000001eb00021f980038
:101a9000e2c2b300ee119000934f110022003a0011
:101aa0007e1a900004e0a000741f98006441510069
:101ab0008301e800631798009342780082cf5200b8
:101ac0000e003a007e139000c60378007617980047
:101ad000071f9800030478000804e8000401780058
:101ae0008801780012003700ea18b8000003b1003e
:101af000810140000201e800020037008e199000c9
:101b00006e1190009200fb0000fd2f0001004000cc
:101b1000e90f5000f4ff3600031f9800820178009f
:101b20007e199000020037007e199000ee1190009f
:101b3000b3427800054f7800c9c6b30089cf520080
:101b400024003200721f9800631798000f003c00b9
:101b500036c6b30086cf5200ab00320004003c0012
:101b6000e0cf52004303320082c5b3000f003700bc
:101b700042c6b30082cf5200c80032006541410026
:101b800082cf5200be003a00c400370036c7b3000f
:101b900086cf52002000320007003c00f2c6b3009e
:101ba00082cf5200110032000241e80082cf520081
:101bb000b3003a001100370052c7b30082cf520081
:101bc000b30032006341410082cf5200ac003a00c2
:101bd0000d003700700061000100280001003a008c
:101be0000101200001017100d1ff37007e1d90002e
:101bf0000a60a0007a1f9800a8003700fe1d900020
:101c00000b50a0007b1f98007e1890000070a00071
:101c1000701f9800a1003700fe109000410378006b
:101c200071179800361f9800e00f530002003a0029
:101c3000e39d2100331f98000002eb00441f980031
:101c4000020037008100e800411f9800ce18900084
:101c5000be1a9000058040000043eb00904f130037
:101c6000f8ff3a008e1b9000e08f53000500320011
:101c70004e1c9000888f53000200310087047800ca
:101c8000491f98004e1a90000006eb002e15900098
:101c9000840f55000100360004065500fe1d90001b
:101ca000e886650031003a008c01780008c2b30074
:101cb000ae1c900010003700390090000004b20004
:101cc000040032001900780008487800800ce80011
:101cd000050037008900780000022000befc0700e4
:101ce000e10f4000030032001e1890000000e800e1
:101cf000101f98008c0178000c06e900e08f51005d
:101d0000edff3a0019003700340090000004b200e3
:101d10000900320094017800080178003240780010
:101d200080497800030ae80002047800e04f500080
:101d30000a003a0012003700080178003200fb0068
:101d4000020478008400780004279800a2fc0700b1
:101d50000e229000e10f4000090032009e18900012
:101d60008100e800111f9800050037003e1c90001c
:101d7000ce1c90005e1d9000ee1d90002e1a90006b
:101d8000090078008004e900e00f5000deff3a000f
:101d9000381f9800491f98005a1f98006b1f980021
:101da000e08f5600ae02320011003700380090007c
:101db0000004b20004003200180078000d487800da
:101dc000000ce800050037008800780000022000c1
:101dd00081fc0700e10f4000030032009e1a9000d2
:101de0008502e800151f98000906780002003700f8
:101df0000dc2b3002e1c90008c04e900e00f5600c9
:101e0000eaff3a00960237007e13900046047800fd
:101e100076179800cfc4de00090578008a0578009f
:101e20000802be000a03be004822de004828dd008a
:101e300004027000044f7800fe1890007086600065
:101e400009003200e04f520007003200e14f42002b
:101e5000050032001447980028479800220020000f
:101e6000421f980003003700184798001300200015
:101e7000431f98000e02e800341f980079ff3700d6
:101e80003e1f980016002000461f980075ff37007f
:101e9000fe1b9000070cb300771f98007e1890007f
:101ea000000cb2003f003a007e1c9000e00f54008e
:101eb00005003d007e1290004401be004400be00bb
:101ec0007417980010003700fe1a900070806200ae
:101ed000120032007e1490004803be00781798006c
:101ee0004607980057079800180090004f80de00c2
:101ef00060079800700798004e009000de00900088
:101f00006e019000fe019000301f9800411f980064
:101f1000521f9800631f98000b003700fe109000be
:101f2000c10278007117980005047800cfc4de0064
:101f3000090578008a057800381f9800491f980025
:101f40005a1f98006b1f98003e189000ce18900002
:101f50005e199000ee199000e00f5000e08f5800dd
:101f6000e00f5900e08f590036003d00fe18900048
:101f70003100b300711f98006022b8006033b800d0
:101f80003e1c9000ce1c90005e1d9000ee1d900047
:101f90000804520089845a000a055b008b855b00a7
:101fa00024003700fe1c9000e08f540005003d0027
:101fb0007e1290004401be004400be0074179800d9
:101fc00010003700fe1a900070806200120032008c
:101fd0007e1490004803be0078179800460f9800c2
:101fe000570f98008004eb00690f98000005eb0084
:101ff0007a0f98004e089000de0890006e0990005d
:10200000fe099000301f9800411f9800521f980051
:10201000631f98000b003700fe109000c10278008b
:102020007117980005047800090020000a002000bc
:102030000b002000381f9800491f98005a1f980075
:102040006b1f98008e1c9000e08f54000d003a002a
:102050001a0020000a1f98003e189000ce18900029
:102060005e199000ee199000e00f5000e08f5800cc
:10207000e00f5900e08f5900020032008000eb00b1
:10208000011f98007e199000020cb20012179800f0
:1020900006042000860f51003d00320003003c0082
:1020a000e00f5100080032005300370005082000ff
:1020b0009e119000858f51001a003200050c2000ff
:1020c000858f51004c003a0012c0b300024f7800d7
:1020d000c19121000f0037000200fb004300dd002a
:1020e000008040003002be002003be003e1c900075
:1020f000ce1c90005e1d9000ee1d90000440e1009b
:1021000005c8e10006d0e10007d8e1003a00390037
:10211000024fe8001e417800f44f5100eeff3a00f4
:102120003500370012c0b300024f780004012000d0
:10213000050020006033b800110037003e1c9000fd
:10214000ce1c90005e1d9000ee1d90000440e1004a
:1021500005c8e10006d0e10007d8e10026003900fb
:10216000490020000402d0008582d2000683d200fc
:102170008783d2008904e900faff3a00004fe800a3
:102180001e407800f04f5000ecff3a001a00370074
:1021900012c0b300024f7800840020000500200028
:1021a0006033b800110037003e1c9000ce1c900038
:1021b0005e1d9000ee1d90000440e10005c8e100a6
:1021c00006d0e10007d8e1000b00390039002000fb
:1021d0000402d0008582d2000683d2008783d20019
:1021e0008904e900faff3a00004fe8001e40780039
:1021f000f54f5000ecff3a001e03fb000e1d90004f
:102200008a0f530002003d000a4f78000400370097
:102210008e1d9000868f550001003d00061f98001e
:102220002e109000e00f500005003200fe189000c4
:10223000e3826000020032000000e90020179800ed
:10224000050024007e19900085026100090032001b
:10225000ae1190000e1a9000848f510003003400dc
:102260008481510023179800020037008002eb00a0
:10227000251798001e03fb008003eb00071798004a
:102280002e149000860f5400020034000603540000
:1022900006179800fe1c9000e48264004c00320097
:1022a00062836400e1836400e00f53001b0032008e
:1022b0002e1d9000ba0290000504b2000900320001
:1022c0001a047800b6c2b300e08f53000100320058
:1022d00006c3e800064c7800ae1d9000880de800ab
:1022e0000a003700d6022000e08f530001003a00b8
:1022f0000683e900ae1890000600780036fb070060
:1023000000017800e10f4100180032001e18900013
:102310000000e800101f980014003700e08f530001
:1023200012003200ae189000b10290000504b20015
:10233000050032001103780002c2b300024b78009e
:102340008608e80006003700ae1890000002200062
:1023500021fb070000017800e10f4100030032007b
:102360001e1990000201e800121f98008e119000c3
:10237000e08f51001701320008c3b30083067800d4
:102380002e1e90003c0090000004b20004003200b9
:102390001c00780008487800000ee80005003700af
:1023a0008c007800000320000bfb0700e10f4000c9
:1023b000030032001e1a90000402e800141f980067
:1023c0008d06e900efff3a000d1798000101370074
:1023d0008e129000e08f5200180032007e1b900099
:1023e000e802630015003a0008c2b3008e169000a0
:1023f0002e1e90003c0090000004b2000400320049
:102400001c00780008487800000ee800050037003e
:102410008c00780000022000effa0700e10f400076
:10242000030032009e1b90008703e800171f9800ee
:102430008d06e900efff3a000d1798007e1c900012
:1024400062036400e1036400e00f53001b003200ec
:10245000ae1c9000b90290000504b20009003200e1
:1024600019047800b6c2b300e08f530001003200b7
:1024700006c3e800064c78002e1d9000080de80009
:102480000a003700d6022000e08f530001003a0016
:102490000683e900ae18900006007800cefa070027
:1024a00000017800e10f4100ca0032009e1d90003b
:1024b0008b05e8001b1f9800c6003700e08f530013
:1024c000c40032002e189000b00290000504b20043
:1024d000050032001003780002c2b300024b7800fe
:1024e0000608e80006003700ae1890000002200041
:1024f000b9fa070000017800e10f4100b500320091
:102500009e1890008100e800111f9800b10037006c
:102510000e1990000201e900021f9800000420003b
:102520009e119000808f51008500320003003c0016
:10253000e08f5100080032009200370000082000b0
:102540001e129000800f520066003200000c200026
:10255000800f52008b003a008e1a90004328dd0055
:102560007e1b9000e00f53002a003d00c791210020
:10257000008043003004be002005be0028179800ec
:10258000391798004a1798005b1798000802be0098
:102590000a03be003e189000ce1890005e1990000d
:1025a000ee1990000afc0700004f78000004fb00c1
:1025b000cfc4de00090578008a0578002e1290004d
:1025c000be1290004e139000de1390000800be0073
:1025d0000a01be0072fc07000203be000002be003a
:1025e0003e189000ce1890005e199000ee199000f1
:1025f0000400500085805800060159008781590069
:10260000301f9800411f9800521f9800631f9800c8
:1026100031003700be009000e08f50001f003200f4
:102620003e1e9000ce1e9000c2912100000041008d
:102630003004be002005be000801be000c00be0034
:1026400043fb0700004f78000000fb00cf80de0056
:102650000801be004efb07000002560081825e00aa
:10266000040f9800150f98008002eb00250f9800ca
:102670000003eb00360f98000e0c90009e0c9000ab
:102680002e0d9000be0d9000381f9800491f980035
:102690005a1f98006b1f98000f003700c991210046
:1026a00000804400100178003e1d9000811f7800da
:1026b000110009000285d800cf007800a200200098
:1026c000811f7800110009000280d8000100780005
:1026d000cf007800004f78000bc3b3001ecf450039
:1026e00028003700c49b21002e009000e00f50000e
:1026f00001003a00d49c21008e1890004209dd00b0
:102700003e1c9000ce1c90005e1d9000ee1d9000bf
:10271000820278008502e900050033008b05d100b4
:102720000a85d3008984d3000884d300f9ff3700d9
:102730006f00640000004200104f78001100370065
:102740000e1b9000e330b8003e1c9000ce1c9000a1
:102750005e1d9000ee1d9000000278000402e9006a
:10276000050033008b05d1000a85d3008984d3008e
:102770000884d300f9ff37006740640005c3b30045
:10278000054f40002e1b9000360090000004b20060
:1027900007003200160178001e40780000497800da
:1027a000020be800e04f500006003a000f0037002f
:1027b0001e00fb00ae18900007fa0700e10f400072
:1027c0000a0032009e1b90008703e800171f980044
:1027d000060037007e1c90007004640038079800e3
:1027e000fe1c90000902b200290798000e1d9000ff
:1027f000e00f550046ff3a00fe1d9000688165001d
:10280000170032000e109000e00f5000140034004a
:1028100008c2b300800678002e1e90003c00900095
:102820000004b200040032001c0078000848780060
:10283000000ee800050037008c0078000002200040
:10284000e5f90700e10f4000030032009e189000f8
:102850008100e800111f98008d06e900efff3a00a3
:102860006e11900012427800044f7800e04f520041
:1028700022fc3a001e1890004f06be004f05be0015
:0c2880004f04be000080fa0000000600bb
:020000040000fa
:10288c0045720000726f000072200000427500005b
:10289c00666600006572000020460000756c000042
:1028ac006c0d000000490000324300002052000073
:1028bc0065610000640d0000004900003243000017
:1028cc002057000072690000746500000d000000c4
:1028dc004932000043200000537400006172000074
:1028ec00740d00000049000032430000205200002b
:1028fc006573000074610000727400000d0000002c
:10290c004932000043200000537400006f70000037
:10291c000d0000004932000043200000416400001b
:10292c00642000004e610000636b00000d0000008d
:10293c00493200004320000044690000736300002a
:10294c006f6e00006e65000063740000656400002b
:10295c000d000000493200004320000044610000db
:10296c0074610000204e0000616300006b0d0000dc
:10297c000049000032430000204200007573000043
:10298c00793100000d0000004932000043200000a6
:10299c004275000073790000320d00000049000000
:1029ac003243000020540000726100006e200000d1
:1029bc00424600000d000000493200004320000098
:1029cc005243000056200000546900006d65000061
:1029dc006f750000740d00000049000032430000c8
:1029ec0020520000657300007461000072740000d6
:1029fc0020410000646400007265000073730000e5
:102a0c00204e0000616300006b0d000000490000c7
:102a1c003243000020540000524e000020540000ad
:102a2c00696d0000656f0000757400000d000000fa
:102a3c0049320000432000005243000056200000a1
:102a4c004f76000065720000666c00006f77000026
:102a5c000d000000493200004320000054520000d9
:102a6c004e200000436f00006c6c00006973000086
:102a7c00696f00006e0d0000005500006e6b0000c9
:102a8c006e6f0000776e00000d00000025640000e2
:042a9c000000000036
:020000040000fa
:102aa0001801fa00889fbe000040eb0050579800c4
:102ab0000000eb00000f78006000b80010079800dd
:102ac000210798000000eb003007980002c8800042
:102ad00013c8800000fa200001002000800f510080
:102ae000818f590013003400daf6070021c88000f6
:102af000810f500004003d00d6f607000000e800fa
:102b0000d8f6070007003700d2f6070021c880007a
:102b1000810f500003003400cef607000000e900ea
:102b2000d0f607006000b80000c8880011c888000f
:102b30000600370000c8800011c880006100400016
:102b4000e080480000c8880011c8880070c8800074
:102b5000e00f50005e02340086060700004f980028
:102b6000a1718000002020008080600010c0b300b0
:102b7000e08f5000010032000040eb000080fb00bd
:102b8000610060004900dd00a2718000f1df2f00cc
:102b90008100610000807000a07188008e48900064
:102ba00000c3b30080cf50000a003a002d07070091
:102bb000500798005e009000004078007106070002
:102bc0005e0090004800de00004078006d060700bf
:102bd0003f0237008e48900010c3b30080cf5000f2
:102be0000a003a0000642000010020001a080700d3
:102bf000406a2000010020000f08070080702000bc
:102c0000010020001c080700310237008e489000a8
:102c100020c3b30080cf50004f003a002f080700b8
:102c200060079800710798006e00900000407800df
:102c3000540607006e009000fe0090004809dd0079
:102c40004800de0000007100c888de000040780007
:102c50004c0607006e009000fe0090004088de00e9
:102c6000cf80de0000407800460607006e0090002e
:102c7000fe0090004888de00cf80de000040780033
:102c800040060700070807006007980071079800d2
:102c90006e009000004078003a0607006e00900039
:102ca000fe0090004809dd004800de0000007100d1
:102cb000c888de0000407800320607006e009000f1
:102cc000fe0090004088de00cf80de0000407800eb
:102cd0002c0607006e009000fe0090004888de0081
:102ce000cf80de00004078002606070009080700b4
:102cf00060079800710798006e009000004078000f
:102d0000200607006e009000fe0090004809dd00dc
:102d10004800de0000007100c888de000040780036
:102d2000180607006e009000fe0090004088de004c
:102d3000cf80de0000407800120607006e00900091
:102d4000fe0090004888de00cf80de000040780062
:102d50000c060700de0137008e48900030c3b30038
:102d600080cf500007003a00c1c88000100020004a
:102d7000e08f5000010032000000eb00c0c8880066
:102d8000d30137008e48900040c3b30080cf50007d
:102d900004003a0010c0b30016f9b7005af7070054
:102da000cb0137008e48900050c3b30080cf500055
:102db00003003a000040eb0016f9b700c4013700e9
:102dc0008e48900060c3b30080cf500016003a00d8
:102dd00021c88000503b2000808f500004003c0040
:102de00020c880002003b00020c88800b801370048
:102df000a0718000e100600010c0b300e08f5000bf
:102e0000010032000040eb000080fb006100600028
:102e1000a2718000e1ff2f0081006100008070003e
:102e2000a0718800aa0137008e48900070c3b300db
:102e300080cf500016003a0021c8800020032000f7
:102e4000808f50000400340020c880002003b100af
:102e500020c888009e013700a0718000e10060005a
:102e600010c0b300e08f5000010032000040eb00c2
:102e70000080fb0061006000a2718000e1ff2f0074
:102e80008100610000807000a0718800900137000f
:102e90008e48900080c3b30080cf500013003a00ea
:102ea000803e200020c8880017f70700a17180002d
:102eb000008020008080600010c0b300e08f5000d0
:102ec000010032000040eb000080fb006100600068
:102ed0004b00dd00a2718000f17f2f0081006100b6
:102ee00000807000a0718800790137008e48900042
:102ef00090c3b30080cf500012003a006009200058
:102f000020c88800a17180000080200080806000bf
:102f100010c0b300e08f5000010032000040eb0011
:102f20000080fb00610060004b00dd00a2718000aa
:102f3000f17f2f008100610000807000a071880087
:102f4000630137008e48900010c6b30080cf500058
:102f50002a003a00340ea9001b00370070c8800018
:102f6000e00f50001200340082050700505798000f
:102f7000750047001200200031c0b3006c0207004a
:102f8000601120000e0040001200200031c0b3008c
:102f9000d50207006e5092000080fb0020118800cf
:102fa0001e0fe8006000b800100798002107980085
:102fb0001e009000ae00900061004000e0804800dc
:102fc0001007980021079800f00f20009e0078005d
:102fd000808f500007003c001e019000ae01900061
:102fe000f0232400f1002000800f5100818f590050
:102ff000daff3400340ea800350137008e48900007
:1030000020c6b30080cf500059003a00340ea9000a
:103010004a00370070c88000e00f500041003400c3
:10302000be009000e00f2000808f50000b003c009d
:1030300050050700505798005e5090003e019000e8
:103040000100210081004100804878003e0090008e
:103050000000e800300798002f0037004505070002
:10306000505798005e5090003e01900001002100f2
:103070008100410080487800021020008040eb0071
:10308000000021002a0207007600470002102000fd
:103090008040eb00940207006000b80000c8880080
:1030a00011c88800120037000000000011118000d4
:1030b0000020200000806000e00f5000fbff3a007d
:1030c00000c8800011c88000760040006e40780083
:1030d0000080fb002011880000c8800011c880001b
:1030e00061004000e080480000c8880011c88800e6
:1030f00002c8800013c88000f00f200001002000eb
:10310000800f5100818f5900e7ff34003e0090008e
:103110000000e800300798006000b80000c8880090
:1031200011c888001e009000ae00900061004000b1
:10313000e08048001007980021079800be0090002a
:10314000f00f2000808f500007003c001e0190000f
:10315000ae019000f0232400f1002000800f510008
:10316000818f5900abff3400340ea800d80037001f
:103170008e48900030c6b30080cf50000e003a0059
:10318000a0728000e100600010c0b300e08f50002a
:10319000010032000040eb000080fb006100600095
:1031a000a2728000e1ff2f008100610000807000aa
:1031b000a0728800c60037008e48900040c6b30059
:1031c00080cf500002003a00540ea800c000370023
:1031d0008e48900050c6b30080cf500002003a00e5
:1031e000540ea900ba0037008e48900060c6b300a4
:1031f00080cf500007003a0020c0b300405798002d
:10320000740047001200200011c1b300c80107007c
:10321000af0037008e48900070c6b30080cf5000da
:1032200007003a0010c0b3004057980074004700f0
:103230001200200011c1b300bd010700a400370037
:103240008e48900080c6b30080cf500007003a003f
:103250000040eb0040579800740047001200200027
:1032600011c1b300b2010700990037008e489000e9
:1032700090c6b30080cf500002003a0088030700d8
:10328000930037008e489000a0c6b30080cf500056
:1032900002003a001cf607008d0037008e489000af
:1032a000b0c6b30080cf500003003a000000eb002e
:1032b0008ef50700860037008e489000c0c6b30028
:1032c00080cf50003e003a006000b80000c888007f
:1032d00011c888002100370008c8800019c8800084
:1032e00060050700800078000800780000014000b9
:1032f00000102100000041000108780080852900ad
:1033000001002000c9060700a171800000202000f4
:103310008080600010c0b300e08f500001003200d8
:103320000040eb000080fb00610060004900dd0010
:10333000a2718000f1df2f00810061000080700029
:10334000a071880000c8800011c8800061004000a2
:10335000e080480000c8880011c8880002c88000ca
:1033600013c88000f03f200001002000800f5100b2
:10337000818f5900d8ff3400a171800000402000e7
:103380008080600010c0b300e08f50000100320068
:103390000040eb000080fb00610060004a00dd009f
:1033a000a2718000f1bf2f008100610000807000d9
:1033b000a07188000000eb0040c88800440037007e
:1033c0008e489000d0c6b30080cf500040003a0035
:1033d00041c88000f0032000808f50003a003c007c
:1033e00040c880004400dd00000f9800011021005b
:1033f0000e0890000000400000804000100f980070
:103400006000b80000c8880011c888002300370099
:1034100000000000111180000020200000806000ea
:10342000e00f5000fbff3a0000c8800011c8800088
:10343000000078009e089000008040001040780056
:103440000000fb0020118800a17180000080200096
:103450008080600010c0b300e08f50000100320097
:103460000040eb000080fb00610060004b00dd00cd
:10347000a2718000f17f2f00810061000080700048
:10348000a071880000c8800011c880006100400061
:10349000e080480000c8880011c8880002c8800089
:1034a00013c88000f001200001002000800f5100af
:1034b000818f5900d6ff340040c880000000e8002a
:1034c00040c88800020037000000eb0040c88800b8
:1034d0004f04be000080fa00000006000a00fa0057
:1034e00070c88000e00f50009800340021040700ed
:1034f00040479800ce40900050c6b30080cf5000a7
:1035000009003a00400620005060880010002000aa
:10351000c0c8880010c0b30016f9b700352ea90046
:1035200079f5070089003700ce40900020c7b3002e
:1035300080cf500038003a006000b800008fbe0015
:103540001d003700c7040700800078001e007800c7
:103550000001400000102100000041000108780037
:10356000808529000100200030060700a17180003d
:10357000002020008080600010c0b300e08f500069
:10358000010032000040eb000080fb0061006000a1
:103590004900dd00a2718000f1df2f008100610091
:1035a00000807000a0718800100020000100200041
:1035b0001e0f40005e974800f03f200001002000f1
:1035c0001e01be00800f5100818f5900ddff3400c5
:1035d000a1718000004020008080600010c0b30016
:1035e000e08f5000010032000040eb000080fb0043
:1035f000610060004a00dd00a2718000f1bf2f0071
:103600008100610000807000a07188000000eb0064
:1036100040c888004d003700ce40900040c7b3003e
:1036200080cf50003b003a0041c88000f0032000ea
:10363000808f500034003c0040c880004400dd0012
:1036400030079800011021003e009000000040006b
:1036500000804000400798006000b800008fbe0066
:103660001f00370000000000111180000020200022
:1036700000806000e00f5000fbff3a001e00780061
:10368000ce00900000804000104078000000fb0059
:1036900020118800a17180000080200080806000df
:1036a00010c0b300e08f5000010032000040eb007a
:1036b0000080fb00610060004b00dd00a271800013
:1036c000f17f2f008100610000807000a0718800f0
:1036d00010002000010020001e0f40005e974800ef
:1036e0001e01be00f001200001002000800f5100eb
:1036f000818f5900dbff340040c880000000e800e3
:1037000040c88800110037000000eb0040c8880066
:103710000e003700ce40900090c7b30080cf50001d
:1037200003003a000040eb0016f9b700070037002d
:10373000ce40900050c7b30080cf500003003a0045
:10374000c4f307002003b000c6f307000080fa00ae
:10375000000006000800fa0070c88000e00f50006a
:1037600071003400a603070020479800ae40900087
:1037700010c6b30080cf500033003a000000eb00c9
:10378000000f78001a003700360407008000780028
:103790001e007800000140000010210000004100e0
:1037a0000108780080852900010020009f0507009e
:1037b000a1718000002020008080600010c0b30054
:1037c000e08f5000010032000040eb000080fb0061
:1037d000610060004900dd00a2718000f1df2f0070
:1037e0008100610000807000a07188001e0fe80059
:1037f000f03f20009e007800808f5000e2ff3400f0
:10380000a1718000004020008080600010c0b300e3
:10381000e08f5000010032000040eb000080fb0010
:10382000610060004a00dd00a2718000f1bf2f003e
:103830008100610000807000a07188000000eb0032
:1038400040c8880038003700ae40900020c6b30062
:1038500080cf500034003a0041c88000f0032000bf
:10386000808f50002e003c0040c880004400dd00e6
:1038700020079800011021002e0090000000400059
:1038800000804000300798000000eb00000f780037
:103890001c003700000000001111800000202000f3
:1038a00000806000e00f5000fbff3a001e0078002f
:1038b000be00900000804000104078000000fb0037
:1038c00020118800a17180000080200080806000ad
:1038d00010c0b300e08f5000010032000040eb0048
:1038e0000080fb00610060004b00dd00a2718000e1
:1038f000f17f2f008100610000807000a0718800be
:103900001e0fe8001e007800ff0f5000e1ff34009a
:1039100040c880000000e80040c88800020037006e
:103920000000eb0040c888000080fa00000006009c
:103930000c00fa0030079800014f980052079800d9
:103940000000eb00000f7800100020002007980016
:103950004b0037002e009000e20f5000170032009d
:10396000e40f500022003200e10f50002e003a0018
:10397000ed000700a0cdb300140107002047980018
:103980002e409000e04f50000900320070c0b3009c
:103990007801070004010700e30007000040eb0086
:1039a00020479800a0cdb3000801070020479800e9
:1039b00020002000200798001b0037000e489000d0
:1039c00002010700204798004000200020079800cf
:1039d000150037001e007800be00900000804000f7
:1039e00010407800f9000700204798001e0fe800fb
:1039f0005e0090009e007800808f500003003d0024
:103a00002e409000e04f5000f2ff32002e40900018
:103a1000e04f500001003a00e30007000000eb0017
:103a200020079800000000002e409000e04f50005a
:103a3000130032002e009000e20f5000050032000b
:103a4000e40f500006003200e00f50000700320083
:103a50000900370080c0b3004601070006003700a8
:103a600090c0b300430107000300370090c0b300cb
:103a70004001070000000000cb00070003003700f2
:103a80002e009000e00f5000b2ff3a00c1108000fd
:103a90000008200000806000e00f500003003200aa
:103aa00000c1b3003301070018e2a900c110800073
:103ab0000004200000806000e00f5000030032008e
:103ac00010c1b3002b01070018c2a9002e409000be
:103ad0000080fb000000e9004f00de00004078009d
:103ae0000080fa00000006000c00fa003007980081
:103af000014f9800520798000000eb00000f78007b
:103b000010002000200798006b0037002e00900066
:103b10006101b9000080eb008080eb0002004000f2
:103b2000838048003200200003002000820f5000f4
:103b3000838f580042003e0000060100030037005a
:103b4000150037001a0037002800370076000700fc
:103b5000a0cdb3009d000700204798002e409000a4
:103b6000e04f50000900320070c0b30001010700af
:103b70008d0007006c0007000040eb002047980014
:103b8000a0cdb3009100070020479800200020003e
:103b9000200798002a0037000e4890008b0007008d
:103ba00020479800300020002007980024003700ac
:103bb00074000700b0cdb3008400070020479800d0
:103bc00040002000200798001d0037001e007800ec
:103bd000be009000008040008040eb00a90007007c
:103be000204798001e0fe800010037000000000089
:103bf0005e0090000000e9009e0f500003003400ba
:103c00002e409000e04f5000f0ff32002e40900018
:103c1000e04f500007003a001e007800be00900000
:103c20000080400011c0b3009600070020479800b4
:103c30005d0007000000eb00200798000000000076
:103c40002e409000e04f50001b0032002e009000ec
:103c5000cf80de004200200003002000820f5000d1
:103c6000838f580012003e00000601000d0037004f
:103c70000f0037000200370004003700060037004d
:103c800080c0b300bb0007000900370090c0b3003c
:103c9000b800070006003700e0c0b300b500070019
:103ca0000300370090c0b300b2000700000000001e
:103cb0003d000700030037002e009000e00f500089
:103cc00092ff3c00c11080000008200000806000ce
:103cd000e00f50000300320000c1b300a500070050
:103ce00018e2a900c11080000004200000806000dc
:103cf000e00f50000300320010c1b3009d00070028
:103d000018c2a9002e4090000080fa0000000600b2
:103d10000000fa00e0052000a010880017e2a800cb
:103d20000080fa00000006000000fa00c0108000c9
:103d300068006000e00f5000030032001642a80047
:103d4000a0c0b3008b000700c010800068006000b6
:103d5000e00f500007003a001602a8000000000023
:103d6000b010800061006000e00f5000fcff3a00de
:103d700002003700b0c0b3007e0007000080fa00e8
:103d8000000006000000fa001622a8000000000053
:103d9000b010800062006000e00f5000fcff3a00ad
:103da0000080fa00000006000000fa001642a80099
:103db00000000000b010800064006000e00f5000c0
:103dc000fcff3a000080fa00000006000600fa003e
:103dd000404798006000b800008fbe00c01080000f
:103de00061006000e00f500021003a004e4090005a
:103df0000080fb00901088000400370010002000b5
:103e0000010020001e0f40005e974800c110800096
:103e10000000240000806000e00f50000600320027
:103e2000f0692800110020001e01be00800f510023
:103e3000818f5900f1ff3400006a28001100200032
:103e40001e01be00800f5100818f590004003a000e
:103e5000f0c0b3004700070010c0b30007003700f0
:103e6000c01080004f00de000040780003003700e3
:103e7000c0c0b3003f00070010c0b3000080fa00cc
:103e8000000006000a00fa0030079800014f980071
:103e90006000b800008fbe001662a8000400370062
:103ea00010002000010020001e0f40005e97480017
:103eb000c010800062006000e00f500006003a0071
:103ec000f0692800110020001e01be00800f510083
:103ed000818f5900f2ff3400006a28001100200091
:103ee0001e01be00800f5100818f590008003a006a
:103ef000d0c0b3001f000700be0090000040eb00e0
:103f00008048780010c0b300404798001600370082
:103f10008010800000407800be009000804878004b
:103f20000e489000614060000080fb00610060006e
:103f30004500dd00b2108000f1fd2f00810061001e
:103f400000807000b01088001682a80000000000f9
:103f5000b010800070006000e00f5000fcff3a00dd
:103f60000040eb00404798004e4090000080fa006f
:103f7000000006000400fa002047980040002000de
:103f800024f30700000f78001e007800e00f5000b7
:103f900004003a001b00070010c0b300204798003f
:103fa000160037002e4090009e0078008048780070
:103fb0001e0078008000eb001100980080c880008f
:103fc000e00f500005003a001e00780080c888000d
:103fd0009e00780091c888000500370090c88000d6
:103fe0009e007800110098001e00780090c888009c
:103ff000a0c880000000e800a0c888000080fa0087
:10400000000006000400fa0000c0eb00004f78003a
:1040100080c88000e00f50000c00320080c8800093
:10402000100798001e0090001000900080c88800c3
:104030001e009000104f78001e00900090f30700c3
:10404000a0c880000000e900a0c888001e407800d9
:104050000080fa00000006000200fa0007003700a6
:1040600080c88000000f78001e00780010009000cb
:1040700080c888001e00780081f3070080c8800097
:10408000e00f5000f6ff3a000000eb0090c88800f7
:104090000000eb00a0c888000080fa0000000600c5
:1040a0000200fa000040eb00004f7800d000200032
:1040b000b6f307008e003700d2ff0700004f7800ec
:1040c0001e407800e14f500005003a00604429008e
:1040d000801f7800b9f307008f87e900840037005c
:1040e0001e407800e44f500005003a00904529003a
:1040f000801f7800b1f307008f87e9007c0037004c
:104100001e407800e54f500005003a003046290077
:10411000801f7800a9f307008f87e900740037003b
:104120001e407800e24f500005003a00e0462900aa
:10413000801f7800a1f307008f87e9006c0037002b
:104140001e407800e64f500005003a0090472900d5
:10415000801f780099f307008f87e900640037001b
:104160001e407800e34f500005003a0060482900e7
:10417000801f780091f307008f87e9005c0037000b
:104180001e407800e74f500005003a000049290022
:10419000801f780089f307008f87e90054003700fb
:1041a0001e407800e84f500005003a00e049290021
:1041b000801f780081f307008f87e9004c003700eb
:1041c0001e407800e94f500005003a00004b2900de
:1041d000801f780079f307008f87e90044003700db
:1041e0001e407800ea4f500005003a00f04b2900cd
:1041f000801f780071f307008f87e9003c003700cb
:104200001e407800eb4f500005003a00a04c2900fa
:10421000801f780069f307008f87e90034003700ba
:104220001e407800ec4f500005003a00504d290028
:10423000801f780061f307008f87e9002c003700aa
:104240001e407800ed4f500005003a00204e290036
:10425000801f780059f307008f87e900240037009a
:104260001e407800ee4f500005003a00304f290004
:10427000801f780051f307008f87e9001c0037008a
:104280001e407800ee4f500005003a00d050290043
:10429000801f780049f307008f87e900140037007a
:1042a0001e407800f14f500005003a00e05129000f
:1042b000801f780041f307008f87e9000c0037006a
:1042c0001e407800f04f500005003a0000532900ce
:1042d000801f780039f307008f87e900040037005a
:1042e00030542900801f780034f307008f87e900dd
:1042f000a0c88000e00f50006fff3c000080fa0073
:10430000000006000000fa00213a800000fe2f00a5
:1043100000806000203a8800313a800000e02f00e1
:1043200080806000a002200000807000303a880089
:10433000213a8000f0f32f0000806000203a8800ce
:104340001200200080072000a10920003374200003
:10435000804978008149780082497800103a8000cd
:10436000000178000200a000600420007105200018
:1043700023742000804978008149780082497800c0
:1043800000000000113a80000000270080806000db
:1043900000002100808f5000faff3a00000000006a
:1043a000113a80000002200000806000e00f500001
:1043b000fbff3200310ea800312ea900314ea900ba
:1043c000316ea900300ea900500ea900003a8000fd
:1043d000d0c888000000eb00003a8800b4f0070065
:1043e000e9f00700f700070049fe0700fe0107009b
:1043f000d5000700020007000080fa000000060058
:104400000000fa00352ea900354ea800356ea80030
:10441000340ea80000202100a1072000830207001d
:10442000352ea800354ea90000202100a10720004c
:104430007e020700354ea800356ea900002021003d
:10444000a107200079020700356ea800340ea900ec
:1044500000202100a107200074020700340ea800ec
:10446000005a22006102200070020700d0c88000bc
:10447000e100600010c0b300e08f50000100320086
:104480000040eb000080fb00610060004900dd009f
:10449000a2718000f1df2f008100610000807000b8
:1044a000a0718800d0c88000e200600010c0b30096
:1044b000e08f5000010032000040eb000080fb0064
:1044c000610060004a00dd00a2718000f1bf2f0092
:1044d0008100610000807000a0718800d1c8800058
:1044e000000820008080600010c0b300e08f500002
:1044f000010032000040eb000080fb006100600022
:104500004b00dd00a2718000f17f2f00810061006f
:1045100000807000a0718800d1c8800000202000b9
:104520008080600010c0b300e08f500001003200b6
:104530000040eb000080fb0061006000a271800081
:10454000e1ff2f008100610000807000a0718800f1
:10455000006829008109200034020700352ea800d8
:10456000354ea800356ea800340ea8000080fa0071
:10457000000006000000fa00210007000080fa0099
:10458000000006000200fa00004f78000000000062
:10459000111180000020200000806000e00f50001a
:1045a000fbff3a009e4078000180fb00201188004c
:1045b0000080fa00000006000200fa000700370041
:1045c00050c88000000f78001e0078001000900096
:1045d00050c888001e00780029f2070050c88000eb
:1045e000e00f5000f6ff3a000000eb0060c88800c2
:1045f0000000eb0070c888000080fa000000060090
:104600000400fa0000c0eb00004f780050c88000a2
:10461000e00f50000c00320050c8800010079800d6
:104620001e0090001000900050c888001e009000ee
:10463000104f78001e00900011f2070070c8800033
:104640000000e90070c888001e4078000080fa0071
:10465000000006000400fa002047980040002000f7
:104660006cf10700000f78001e007800e00f50008a
:1046700007003a0063fe070062fe070010c0b300a7
:104680003cfe07004000200062f10700000f7800a8
:104690001e007800ae409000014878001e007800af
:1046a0008000eb001100980050c88000e00f50001f
:1046b00005003a001e00780050c888009e0078006f
:1046c00061c888000500370060c880009e0078003f
:1046d000110098001e00780060c8880070c8800033
:1046e0000000e80070c888000080fa0000000600a2
:1046f0003600f800809fbe00829fbe00849fbe00ef
:10470000869fbe000000fa000300370030118000d1
:1047100000407800cfff07001011800061006000aa
:10472000e00f5000f9ff3a000168a9000080fa008c
:104730004f03be004f02be004f01be004f00be003f
:104740003600f900004006000000fa0030cea90053
:1047500030eea8002136800000f82f008080600035
:104760007004200000807000203688003134800002
:1047700000fc2f00008060000000a00030348800a2
:104780002062a800900520004011880001118000df
:10479000f0cf2f00008060000011880021428000cf
:1047a0000000270000807000204288000168a900f6
:1047b0002168a80021e2a8002342a8000080fa0096
:1047c000000006000000fa002043a8002143a800d2
:1047d0002183a80001198000000e200000807000d5
:1047e000001988002083a90021198000f00f2e00f5
:1047f0008080600000f02000008070002019880098
:1048000090c0b30024e3b7003303a800411980002f
:1048100000fe2f00008060000030a00040198800da
:10482000d000200010588800003020006058880018
:10483000f0072000705888000000eb003058880016
:1048400000f02d00205888000088a9002088a900c9
:1048500001eba8002023a90021e3a8000080fa00b2
:10486000000006000600fa006011b8001207980068
:10487000230798000001eb00020f78001e003700ac
:104880001e017800020141006111b90000f02d0005
:10489000110020000202d0008002d0000501420079
:1048a0004220a800818149004200a9004220ae00b8
:1048b0004200a8000281d3009401800083027800a6
:1048c00095018800000000000201780012017800c4
:1048d0009401880000000000030020001e029000e8
:1048e000ae02900004014100858149001207980042
:1048f000230798001e0fe800f20720009e017800b1
:10490000828f5100deff34001e009000ae00900048
:104910004909dd004700de0000007100c708de0025
:1049200010079800210798001e0090000080fa00f0
:10493000000006000000fa0001198000f0cf2f00ef
:1049400000806000001988002143a8002203a9000c
:104950002043a90001198000000e20000080700093
:10496000001988002083a90011198000f0ff2100a0
:10497000008060001019880021198000f00f2e00bf
:104980008080600000f02000008070002019880006
:1049900090c0b30024e3b7004119800000fe2f004f
:1049a000008060000030a000401988002023a9008a
:1049b00021e3a8000080fa00000006000000fa00d1
:1049c0002023a800000000000019800061006000a2
:1049d000e00f5000fcff3200001880000080fa0059
:0449e00000000600cd
:020000040000fa
:1049e4001a190000020000008000000016190000df
:1049f400040000008200000000000000000000002d
:104a040000100000040900008000000004190000e8
:104a140006000000820000002c01000000000000dd
:104a24000a190000060000008000000010190000b0
:104a3400060000008000000000df0000000100000c
:104a4400800000000c1a000010000000800000002c
:104a54001c1a00000600000080000000e619000097
:104a640026000000820000001d1a0000001d1a002c
:104a740009000000000200001f1a0000001f1a00b5
:104a84000e02010000000000000000000000000011
:104a94000602020000000000e6190000221a0000cd
:104aa400020000008200000001000000241a00003f
:104ab4000200000080000000bc1900002a00000071
:104ac400820000003031320033343500363738008c
:104ad400394142004344450046003000313233003e
:104ae4003435360037383900616263006465660026
:104af40000286e00756c6c00290000001c19000071
:104b0400a00000008200000001000000000000007e
:104b140000000a0000000000000000000064000023
:104b24000000000000000000e80300000000000096
:104b340000001000270000000000000000a0860014
:104b4400010000000000000040420f0000000000cf
:104b54000000800096980000000000000000e100c2
:104b6400f50500000000000000ca9a003b000000a8
:104b740000000000e40b5400020000000000e80004
:104b840076481700000000000010a500d4e80000db
:104b940000000000a0724e00180900000000400050
:104ba4007a10f3005a0000000080c600a47e8d0035
:104bb4000300000000c16f00f28623000000000023
:104bc4008a5d78004563010000006400a7b3b60065
:104bd400e00d000000e889000423c7008a000000fb
:044be40000000000cd
:020000040000fa
:104be8000000fa00e135800000f82f0080806000a6
:104bf8003006200000807000e0358800e135800034
:104c0800f00f2800808060000020260000807000df
:104c1800e03588000000eb00400e88000000eb0043
:104c2800300e8800c1e1a8000080fa0000000600ec
:104c38000400fa00008fbe000e0078004200200039
:104c480091c0b30038fb07000080fa00000006009e
:104c58000400fa00008fbe000e0078004200200019
:104c6800d1c0b30030fb07000080fa000000060046
:104c78000400fa00008fbe001e00be004088de005f
:104c8800cf80de0000007800500e88001e007800fb
:104c9800300e88000080fa00000006000800fa00c4
:104ca8006000b800200798003107980064004700aa
:104cb8004200200091c0b30089fb07006400470050
:104cc8001001be00028fbe001e00be000080fa0068
:104cd800000006000800fa006000b80020079800ed
:104ce800310798006400470042002000d1c0b3009b
:104cf8007bfb0700640047001001be00028fbe0066
:104d08001e00be000080fa00000006000c00fa0039
:104d1800300e800001002000008fbe00500e800081
:104d28000100200020079800310798002e0090000d
:104d3800be009000c000dd00000020003e017000b1
:104d4800ae8170000200be0040079800510798002d
:104d58004e009000de0090000080fa00000006007f
:104d68000000fa0065fd070010c0b30016f9b7008f
:104d780091718000000220008080600010c0b300a4
:104d8800e08f5000010032000040eb000080fb0083
:104d9800610060004900dd00a2718000f1df2f0092
:104da8008100610000807000a0718800907180000f
:104db800f000600010c0b300e08f50000100320026
:104dc8000040eb000080fb00610060004a00dd004d
:104dd800a2718000f1bf2f00810061000080700087
:104de800a071880090718000e800600010c0b300d6
:104df800e08f5000010032000040eb000080fb0013
:104e0800610060004b00dd00a2718000f17f2f007f
:104e18008100610000807000a07188001ef7070003
:044e2800d3ff37007d
:020000040000fa
:104e2c00f03fb1000180b10006003500ee0309002f
:104e3c0000000000403fb1000180b100fbff3d00cd
:104e4c001000b000203fb0000200350000800900c7
:084e5c00000000000000060048
:020000040000fa
:0200000401f009
:04000c00f8ff0000f9
:020000040000fa
:0200000401f009
:040010007fff00006e
:020000040000fa
:0200000401f009
:040014007fff00006a
:020000040000fa
:0200000401f009
:04001800ffff0000e6
:020000040000fa
:0200000401f009
:04001c00ffff0000e2
:00000001FF
