:020000040000fa
:080000000002040000000000f2
:020000040000fa
:10000800c8020000c8020000c8020000c8020000c0
:10001800c8020000c8020000c8020000c8020000b0
:10002800c8020000c8020000c8020000c8020000a0
:10003800c8020000c8020000c8020000c802000090
:10004800c8020000c8020000c8020000c802000080
:10005800c8020000c8020000c8020000c802000070
:10006800c8020000c8020000c8020000c802000060
:10007800c8020000c8020000c8020000c802000050
:10008800c8020000c8020000c8020000c802000040
:10009800c8020000c8020000ea140000c8020000fc
:1000a800c8020000c8020000c8020000c802000020
:1000b800c8020000c8020000c8020000c802000010
:1000c800c8020000c8020000c8020000c802000000
:1000d800c8020000c8020000c8020000c8020000f0
:1000e800c8020000c8020000c8020000c8020000e0
:1000f800c8020000c8020000c8020000c8020000d0
:10010800c8020000c8020000c8020000c8020000bf
:10011800c8020000c8020000c8020000c8020000af
:10012800c8020000c8020000c8020000c80200009f
:10013800c8020000c8020000c8020000c80200008f
:10014800c8020000c8020000c8020000c80200007f
:10015800c8020000c8020000c8020000c80200006f
:10016800c8020000c8020000c8020000c80200005f
:10017800c8020000c8020000c8020000c80200004f
:10018800c8020000c8020000c8020000c80200003f
:10019800c8020000c8020000c8020000c80200002f
:1001a800c8020000c8020000c8020000c80200001f
:1001b800c8020000c8020000c8020000c80200000f
:1001c800c8020000c8020000c8020000c8020000ff
:1001d800c8020000c8020000c8020000c8020000ef
:1001e800c8020000c8020000c8020000c8020000df
:1001f800c8020000c8020000c8020000c8020000cf
:10020800c8020000c8020000c8020000c8020000be
:10021800c8020000c8020000c8020000c8020000ae
:10022800c8020000c8020000c8020000c80200009e
:10023800c8020000c8020000c8020000c80200008e
:10024800c8020000c8020000c8020000c80200007e
:10025800c8020000c8020000c8020000c80200006e
:020000040000fa
:10040000cf5121000eff2d000e01880000000000da
:100410000c00070080ef2100010020000f00070002
:10042000000020000000e000020032000000020096
:1004300000000000a8200200000000000040da00d8
:100440000000fe00001120000000e0000200320069
:10045000002020009001880000000600a102880012
:10046000800078000000eb001a003700e2804000b6
:1004700054a0b4009101ba00e280400054a0b4003e
:100480009102ba00e280400054a0b4000002eb00e8
:10049000472bde00f507b200a6018800602ce100c2
:1004a00008003a000049eb000201e80002003900b0
:1004b0003420ec0002f0a0008301e900f9ff3e00c7
:1004c000040037006128e100010032000082eb00e7
:1004d000040007001101ba000200e000e3ff3a0047
:1004e0000000060004d0a300e20f49001c00390000
:1004f000810278003549ba000201e80002003900a3
:100500003420ec0002f0a0008301e9000f0032006b
:100510002549ba000201e800020039003420ec004d
:1005200002f0a0008301e900080032000400e000ae
:100530000600320015c9ba000201e80002003900c5
:100540003420ec0002f0a0008301e9008180e80083
:1005500054a0b4000300e000e2ff3a0000000600ef
:100560009102ba00055978008301e900f7ff3200d3
:10057000c82ade00055978008301e900f3ff320044
:100580000400e000f1ff320011d9ba00eeff37009d
:100590000040da000000fe004f89de008201780092
:1005a00034003700889fbe008a9fbe008c1f7800f1
:1005b000950007009c00330003866c006450e10046
:1005c000240032006420e100270032006150e10085
:1005d000220032006120e100210032008b854200c0
:1005e000eb07b1000134b800003ab800080442003b
:1005f00089844a00013ab8000030b8008880400081
:1006000009014a00040033000000400081804800d6
:10061000020149008b05e900c909dd008301700072
:100620000100320013002000c814de004814dd0071
:100630004709de001200b200c808de00088470001e
:100640004b00070001f0a1000cf0a70001f0a00092
:100650007e0037006120e100800032000801be000a
:100660000200be00f7ff37006150e100fcff3a00d6
:100670007a003700881f7800030478000300e00048
:1006800007003d0060001000e080180060011900c4
:10069000e081190002003b0001f02d00030037004b
:1006a0000400070008f0a70001f0a0004f04780044
:1006b00000000600889fbe008a9fbe000082700076
:1006c0000402710004827100260032000004be00a2
:1006d0000200be006011b8006b09200095022000e6
:1006e0000182cf000a0039000541b1000082cf002d
:1006f000070039000541b1000982cf00040039002c
:100700000541b1000882cf00010039000541b10068
:1007100005425200120032000a003b008281710043
:10072000610164008100d1000080d3008984d3007e
:100730000884d3008b05e8000442e800f7ff3a0084
:10074000070037000804440089844c00000048007a
:10075000818048008b05e9000442e900f9ff3a0076
:10076000030007004f05be004f04be000000060056
:1007700081002000618055000b003d000b0020002f
:1007800061fe2f000100e1001d0034008281710034
:10079000610164008904d1000884d3000000e800ee
:1007a000faff3a007100200061006400030070004d
:1007b000020060000900320061044400e0844c0043
:1007c0000988a500050032008b05e8006808e100f3
:1007d00002003a008904d1000884d300f20f2000ff
:1007e0000258e10005003d00c75ddd00f907b200d9
:1007f0008980750008007800000006000bf82700cb
:100800008b007800000005000004be001600070001
:100810000003be000405be000200be001200070077
:10082000844f7500000006000200be006450e10025
:10083000050036006420e100020036000968a300cc
:1008400001003a000800be000160a0004f067800d9
:100850004f05be004f04be0000000600f0ff2f0051
:10086000f1ff2700f9ff3700c70ade00f107b200e9
:10087000f50fb20008003200e1cf42000200320062
:100880000170a00024000500810f700001003200fb
:100890000408050044000500810f700002003a00c2
:1008a000140005008502e9000000400081c04800f6
:1008b000fcff3b000170a000240005000400fa00ca
:1008c000889fbe008a9fbe008c9fbe00e10f210062
:1008d000f2878000e00f51000b003a006481400075
:1008e000f287880042888800a1009800318888003b
:1008f000214190000204a000a240980061419000b4
:100900000204a000e2409800670440004244de0078
:100910004244dd00318880000002eb008611210096
:10092000c95121008684540064004400000f7800ff
:10093000614eb900010037008b0078002140900023
:1009400061006000020032000a003700930878005e
:10095000910178002340900061006000fbff3200ad
:1009600008814000828f510002003900e00f5400de
:1009700056003d0091057800818f5500eeff3e0046
:10098000868f550003003900e00f2100808f55004d
:10099000e9ff390040888000808f50005c003a00f9
:1009a000e00f2100808f550059003a000402e80052
:1009b000e10f5200e0ff360022002000811f780086
:1009c000110009008204d800cf007800800f540085
:1009d00005003600890f5400030031000885e80047
:1009e0000a054500130037006142b800b2ff2f002e
:1009f000030020000c0151008d815900820f52002c
:100a0000838f5a000a003d00fa5121000605550067
:100a100008054500811f7800110009000985d800ec
:100a200000057800cf0078008955b8000100370034
:100a3000080578000a0078001607980048010700aa
:100a40001e039000e10f400006003a001e057800ea
:100a50000a007800420107001e039000e10f4000e9
:100a60002b00320041888000800878004188800097
:100a7000e481400021419000830f500002003200c9
:100a80000204a000010037000204a100a240980067
:100a9000640555000a0540000a0878004a88880065
:100aa000e10f2100010d780042888000a2409000f3
:100ab0000104a00021419800a04090000104a10081
:100ac000214098000002eb009bff3700328888002d
:100ad000828f5100070036001202be005488880041
:100ae00065888800110978000040eb00328880009a
:100af00020419800358880008508780021409000ca
:100b00000004a000a040980064804000010037006d
:100b10000000eb004f06be004f05be004f04be00b4
:100b20000080fa00000006000000fa006400500097
:100b300030888800a04090000104a1002140980066
:100b40000080fa00000006000000fa00889fbe0046
:100b50008a9fbe00800478000104780064815400fc
:100b60009205780069f99700610161000200320086
:100b700009007800ecff0700080078004fff07002d
:100b800000047800e00f54001b003200890f54006d
:100b90001900320068bd97000805550042d5de00f7
:100ba000098055004280de000a017800800f550060
:100bb00001003600000178004211dd000800be008f
:100bc00012000700890f54000b0031004255dd0070
:100bd0000a054400890f55000700360089045500b6
:100be000c2ccde00c24cdd00890444005088800085
:100bf00061888000808cbe00080078004f05be0030
:100c00004f04be000080fa00000006000000fa0059
:100c10008001780002003700b159780004017800a3
:100c20000202e900e00f5100fbff3a000080fa00e9
:100c3000000006000000fa00410e2100100007002d
:100c40000080fa00000006000000fa00680157006a
:100c5000ceb89700400e2100480207000080fa003d
:100c6000000006000000fa0068015700ceb89700a7
:100c7000400e2100410207000080fa00000006003b
:100c80000000fa00889fbe0001047800b8009000c0
:100c9000628160008084eb003c00320081017800ba
:100ca0000320b2001801900002003a00e00f51004a
:100cb00036003a000190a0003104980080047800ca
:100cc000f90fb200e00f510002003a002800900036
:100cd000000c7800ea8f540006003a00010078000a
:100ce0000008b20003003a0088007800d00020001d
:100cf000e3ff070018009000d8009000810f50001b
:100d00000b0032000000e800100498001800780082
:100d100009487800000ce80010c0b300e110210081
:100d200080487800ea8f540018003a000500370028
:100d300088007800094078001800070080047800d7
:100d400012003700380090000010b2000f0032008f
:100d500018019000a8009000480090005100070082
:100d600098009000810f500004003200380090007d
:100d70000003b300300498008084eb000000eb0017
:100d80001004980028009000000c780009007800fa
:100d90004f04be000080fa00000006000200fa00c6
:100da000889fbe00004f7800010478003800900052
:100db000800078000104b20032003a00e2006000d6
:100dc00005003a000003b3003004980011049800b5
:100dd0000080eb002c003700d8049000e08f540016
:100de00006003a00120020008e00780048009000b3
:100df0002c0007001904980022003700a80090007a
:100e0000e08f500008003a001111210021049800e1
:100e1000010c780021002000510498001104980072
:100e20000030a0003004980018019000a800900045
:100e3000480090001b000700280090008080eb0015
:100e4000110498001e487800000ce800a0c0b30010
:100e50009e4f10000b003a00380090000010b200c6
:100e60000800320018019000a8009000480090008f
:100e70000c0007000000eb00100498002800900010
:100e8000000c78001e00fb004f04be000080fa003a
:100e9000000006000000fa0000c0da000080fa003e
:100ea000000006000a00fa00e20f500021003e0098
:100eb000a0888000e10f500006003200852320004a
:100ec000442320002323200000232000e08f520031
:100ed00004003a0085222000442220002322200022
:100ee00000222000060028009003630002003a0060
:100ef000870a78001008730000402000130060008b
:100f000001003a0013a0a00002007800060037009c
:100f1000930278000510b200fdff3200b102fb0021
:100f2000050a78000000e900e00f5000f8ff3a00e1
:100f30000800370033002000030f780010079800e6
:100f400021079800320798000e007800d1ff0700b3
:100f50003e019000020078000080fa0000000600c8
:100f60000000fa00889fbe0080047800b0888000ee
:100f7000e00f500004003a000f0007000084eb006f
:100f8000e00f500008003500b8888000e08f540062
:100f9000050032000900440007000700e00f500080
:100fa00001003d000084eb00080078004f04be0003
:100fb0000080fa00000006000000fa00e00f500078
:100fc00004003a0081112100b18888008000780077
:100fd000060037008080eb00c2512100820f5000d4
:100fe00002003e00b08888008000eb00010078001d
:100ff0000080fa00000006006022b800060220000f
:101000000000d0008180d2000482d2008582d2000c
:101010000000a0000202520083825a000300310047
:101020000202420083824a000000a1000603e90098
:10103000f3ff3a0000000600020ab900001bb900e5
:101040000200b80081004200810043000000060059
:101050000000fa00889fbe008a9fbe003004be00d8
:101060002005be000404440085844c0006054d00a4
:1010700087854d000898be000a90be000440e1003c
:1010800005c8e10006d0e10007d8e1000200310008
:10109000680040001008e8004f05be004f04be0085
:1010a0000080fa00000006000000fa00889fbe00e1
:1010b0008a9fbe008c1f7800000678003c04be00aa
:1010c0002c05be000400540085805c0006015d0014
:1010d00087815d00009ebe00029ebe0010002000c1
:1010e0000440e10005c8e10006d0e10007d8e100b6
:1010f000010039000000eb001c0e10004f067800c4
:101100004f05be004f04be000080fa00000006003c
:101110001200fa00889fbe008a9fbe008c9fbe000e
:101120000205be000004be00540798006507980041
:1011300076079800070f98000000eb004007980022
:10114000300798002007980010079800000f7800db
:1011500000067800fd032000ce0190003e009000c4
:1011600003814100ae009000e08f510003003d007c
:1011700021000700b6ff0700020037001e0007002d
:10118000c9ff0700ce009000e08f50000700350037
:1011900014002000050020006033b800080472002d
:1011a000898472000a0573008b8573000c06e800c1
:1011b0008d0f5600e8ff3400e08f500002003d0024
:1011c00027000700a2ff07004eb89700e00f50006d
:1011d00002003a003e04be002e05be000800be001c
:1011e0000a01be004f06be004f05be004f04be0000
:1011f0000080fa0000000600cf01de0002817100cd
:10120000420798004f09de00000040000000710016
:10121000300798001e0090004f01de0081804000e2
:1012200081007100210798001e027800cf20de00a7
:101230000000400000807000100798000800be0009
:101240000a01be004f18de0004024200000f7200c7
:101250000804440089844c000a054d008b854d002c
:101260005e029000ee0290007e0390008e0b9000d4
:101270000e007800000006000000fa00881f7800c9
:1012800018002000881f7800a1ff07008f87e90061
:101290004f0478000080fa00000006000000fa0009
:1012a000801feb009aff07008f87e9000080fa009b
:1012b000000006000000fa00889fbe008a9fbe0062
:1012c0008c1f7800e00f5000e08f5800e00f5900ad
:1012d000e08f59000f003d006044b8006055b80031
:1012e0000000540081805c0002015d0083815d008c
:1012f0001c0020000820e10009a8e1000ab0e1007c
:101300000bb8e1000d003d001a0007000006eb00dd
:101310000a0037000006eb00e00f5200e08f5a0091
:10132000e00f5b00e08f5b0004003d006044b8000c
:101330006055b8000f0007001c002000ceff07001a
:10134000e00f5600060032006022b8006033b8009b
:101350000000520081805a0002015b0083815b0023
:101360004f0678004f05be004f04be000080fa0013
:10137000000006000402540085825c0006035d0044
:1013800087835d00000006000000fa00889fbe0011
:101390008a9fbe008c1f7800e00f5000e08f58003d
:1013a000e00f5900e08f59000d003d006044b80087
:1013b0006055b8000000540081805c0002015d00af
:1013c00083815d001c0020000820e10009a8e100e5
:1013d0000ab0e1000bb8e1000d003d000800370045
:1013e0000006eb00e00f5200e08f5a00e00f5b00b8
:1013f000e08f5b0006003d006044b8006055b80017
:101400000402540085825c0006035d0087835d0052
:10141000a2ff0700e00f5600060032006022b8006d
:101420006033b8000000520081805a0002015b0066
:1014300083815b004f0678004f05be004f04be005d
:101440000080fa00000006000000fa00889fbe003d
:101450008a9fbe008c1f78000006eb00e00f500052
:10146000e08f5800e00f5900e08f590007003d0061
:101470006044b8006055b8000000540081805c00f2
:1014800002015d0083815d001c002000e00f52001e
:10149000e08f5a00e00f5b00e08f5b0007003d002b
:1014a0006044b8006055b8000402540085825c00b6
:1014b00006035d0087835d000c00a2000d0007009d
:1014c000e00f5600060032006022b8006033b8001a
:1014d0000000520081805a0002015b0083815b00a2
:1014e0004f0678004f05be004f04be000080fa0092
:1014f00000000600889fbe008a9fbe008c9fbe0031
:101500000404b8000506b8008904460060854e0052
:101510000606b8000a054600e0854e000706b8003a
:101520008b054600040eb800890446000a854e006b
:10153000e0854d00050eb8000a0546008b854e007b
:10154000060eb8008b0546000416b8000a054600d2
:101550008b854e000516b8008b054600041eb800aa
:101560008b0546000800be000a01be004f06be0003
:101570004f05be004f04be00000006004200fa0006
:10158000889fbe008a9fbe008c9fbe00201f9800cf
:1015900061179800721798000000eb00101f980068
:1015a000d9033700ee1090008100e8006117980021
:1015b00052c2b300824f520007003a000001eb0014
:1015c000721f980006c3b30003c2b300b1c2b300d8
:1015d0006e10900014003700ae1990003301900097
:1015e0000204b200050032009301780084497800bb
:1015f0002e1a9000030ae800070037000401fb00e0
:10160000ae189000020078009dfd070000017800f0
:10161000e10f4100bc0332009e1a90008502e800f1
:10162000151f9800b803370010427800d7c2b300e6
:10163000874f52000b0032008002e800874f5200b3
:1016400005003c00834f520009003200814f5200d8
:101650000e003a0008003700864f52000b003a0097
:10166000070037000230a0000000e800eeff37005e
:101670000200a000030037000210a00001003700a4
:101680000220a00005007800e7ff3700721f9800d5
:1016900060179800e2016100020032000200a10020
:1016a000721f98007e1c9000e80164000200320066
:1016b0000820a100781f98008401fb000303b100fb
:1016c000e98f51000e003e00010020006e119000d5
:1016d000ea08b80001fd2f00808040001200fb00e6
:1016e000808040005200fb000003b100e90f500071
:1016f000f7ff360021179800621798000c0037009a
:101700000005eb002a179800a2c2b300824f5200d6
:1017100007003a00fe1590004b0078007b179800f8
:1017200020179800ee1090008100e80061179800e3
:101730000001eb00021f9800e2c2b300ee1190001e
:10174000934f110022003a007e1a900004e0a0009e
:10175000741f9800644151008301e80063179800ea
:101760009342780082cf52000e003a007e13900020
:10177000c603780076179800071f980003047800c6
:101780000804e8000401780088017800120037009e
:10179000ea18b8000003b100810140000201e8002e
:1017a000020037008e1990006e1190009200fb002d
:1017b00000fd2f0001004000e90f5000f4ff36004b
:1017c000031f9800820178007e1990000200370004
:1017d0007e199000ee119000b3427800054f78001a
:1017e000c9c6b30089cf520024003200721f98008e
:1017f000631798000f003c0036c6b30086cf520036
:10180000ab00320004003c00e0cf52004303320042
:1018100082c5b3000f00370042c6b30082cf52002a
:10182000c80032006541410082cf5200be003a003c
:10183000c400370036c7b30086cf52002000320004
:1018400007003c00f2c6b30082cf52001100320004
:101850000241e80082cf5200b3003a001100370085
:1018600052c7b30082cf5200b3003200634141003f
:1018700082cf5200ac003a000d00370070006100ca
:101880000100280001003a0001012000010171005f
:10189000d1ff37007e1d90000a60a0007a1f9800db
:1018a000a8003700fe1d90000b50a0007b1f980081
:1018b0007e1890000070a000701f9800a1003700f3
:1018c000fe1090004103780071179800361f9800b1
:1018d000e00f530002003a00030d2100331f98006f
:1018e0000002eb00441f9800020037008100e8006e
:1018f000411f9800ce189000be1a9000058040004d
:101900000043eb00904f1300f8ff3a008e1b90004d
:10191000e08f5300050032004e1c9000888f53006a
:101920000200310087047800491f98004e1a900089
:101930000006eb002e159000840f550001003600c4
:1019400004065500fe1d9000e886650031003a004f
:101950008c01780008c2b300ae1c90001000370064
:10196000390090000004b200040032001900780031
:1019700008487800800ce8000500370089007800ee
:1019800000022000befc0700e10f4000030032000f
:101990001e1890000000e800101f98008c017800cd
:1019a0000c06e900e08f5100edff3a001900370006
:1019b000340090000004b200090032009401780065
:1019c000080178003240780080497800030ae80076
:1019d00002047800e04f50000a003a00120037007d
:1019e000080178003200fb000204780084007800cf
:1019f00004279800a2fc07000e229000e10f40008f
:101a0000090032009e1890008100e800111f980024
:101a1000050037003e1c9000ce1c90005e1d90001b
:101a2000ee1d90002e1a9000090078008004e90055
:101a3000e00f5000deff3a00381f9800491f980061
:101a40005a1f98006b1f9800e08f5600ae023200bc
:101a500011003700380090000004b200040032008a
:101a6000180078000d487800000ce80005003700e9
:101a7000880078000002200081fc0700e10f400090
:101a8000030032009e1a90008502e800151f98009e
:101a900009067800020037000dc2b3002e1c90002a
:101aa0008c04e900e00f5600eaff3a009602370086
:101ab0007e1390004604780076179800cfc4de00ad
:101ac000090578008a0578000802be000a03be00f6
:101ad0004822de004828dd0004027000044f780030
:101ae000fe1890007086600009003200e04f52003e
:101af00007003200e14f4200050032001447980011
:101b00002847980022002000421f98000300370059
:101b10001847980013002000431f98000e02e800a9
:101b2000341f980079ff37003e1f980016002000f0
:101b3000461f980075ff3700fe1b9000070cb3008e
:101b4000771f98007e189000000cb2003f003a000a
:101b50007e1c9000e00f540005003d007e129000b6
:101b60004401be004400be00741798001000370006
:101b7000fe1a900070806200120032007e14900005
:101b80004803be007817980046079800570798004a
:101b9000180090004f80de006007980070079800e2
:101ba0004e009000de0090006e019000fe0190005b
:101bb000301f9800411f9800521f9800631f980023
:101bc0000b003700fe109000c102780071179800da
:101bd00005047800cfc4de00090578008a05780086
:101be000381f9800491f98005a1f98006b1f9800d3
:101bf0003e189000ce1890005e199000ee199000eb
:101c0000e00f5000e08f5800e00f5900e08f5900be
:101c100036003d00fe1890003100b300711f98009f
:101c20006022b8006033b8003e1c9000ce1c9000cb
:101c30005e1d9000ee1d90000804520089845a0039
:101c40000a055b008b855b0024003700fe1c9000ba
:101c5000e08f540005003d007e1290004401be005c
:101c60004400be007417980010003700fe1a900060
:101c700070806200120032007e1490004803be00a3
:101c800078179800460f9800570f98008004eb00d3
:101c9000690f98000005eb007a0f98004e0890003d
:101ca000de0890006e099000fe099000301f980039
:101cb000411f9800521f9800631f98000b003700c7
:101cc000fe109000c102780071179800050478009a
:101cd000090020000a0020000b002000381f980097
:101ce000491f98005a1f98006b1f98008e1c900087
:101cf000e08f54000d003a001a0020000a1f9800df
:101d00003e189000ce1890005e199000ee199000d9
:101d1000e00f5000e08f5800e00f5900e08f5900ad
:101d2000020032008000eb00011f98007e19900035
:101d3000020cb2001217980006042000860f510012
:101d40003d00320003003c00e00f5100080032006b
:101d500053003700050820009e119000858f510028
:101d60001a003200050c2000858f51004c003a000b
:101d700012c0b300024f7800e10021000f003700cd
:101d80000200fb004300dd00008040003002be0086
:101d90002003be003e1c9000ce1c90005e1d9000f3
:101da000ee1d90000440e10005c8e10006d0e1000e
:101db00007d8e1003a003900024fe8001e417800e0
:101dc000f44f5100eeff3a003500370012c0b30067
:101dd000024f780004012000050020006033b800a5
:101de000110037003e1c9000ce1c90005e1d90003c
:101df000ee1d90000440e10005c8e10006d0e100be
:101e000007d8e10026003900490020000402d00074
:101e10008582d2000683d2008783d2008904e9003c
:101e2000faff3a00004fe8001e407800f04f5000e3
:101e3000ecff3a001a00370012c0b300024f7800de
:101e400084002000050020006033b8001100370036
:101e50003e1c9000ce1c90005e1d9000ee1d900078
:101e60000440e10005c8e10006d0e10007d8e10028
:101e70000b003900390020000402d0008582d20016
:101e80000683d2008783d2008904e900faff3a0072
:101e9000004fe8001e407800f54f5000ecff3a007c
:101ea0001e03fb000e1d90008a0f530002003d0030
:101eb0000a4f7800040037008e1d9000868f550071
:101ec00001003d00061f98002e109000e00f50000a
:101ed00005003200fe189000e3826000020032002c
:101ee0000000e90020179800050024007e199000ea
:101ef0008502610009003200ae1190000e1a9000b8
:101f0000848f51000300340084815100231798000e
:101f1000020037008002eb00251798001e03fb002b
:101f20008003eb00071798002e149000860f5400d2
:101f3000020034000603540006179800fe1c9000af
:101f4000e48264004c00320062836400e183640038
:101f5000e00f53001b0032002e1d9000ba029000cb
:101f60000504b200090032001a047800b6c2b300ba
:101f7000e08f53000100320006c3e800064c7800f1
:101f8000ae1d9000880de8000a003700d602200040
:101f9000e08f530001003a000683e900ae1890007c
:101fa0000600780036fb070000017800e10f4100d1
:101fb000180032001e1890000000e800101f980062
:101fc00014003700e08f530012003200ae1890006a
:101fd000b10290000504b200050032001103780040
:101fe00002c2b300024b78008608e8000600370002
:101ff000ae1890000002200021fb070000017800cd
:10200000e10f4100030032001e1990000201e800b8
:10201000121f98008e119000e08f510017013200be
:1020200008c3b300830678002e1e90003c00900089
:102030000004b200040032001c0078000848780058
:10204000000ee800050037008c0078000003200037
:102050000bfb0700e10f4000030032001e1a900046
:102060000402e800141f98008d06e900efff3a0013
:102070000d179800010137008e129000e08f52007a
:10208000180032007e1b9000e802630015003a0041
:1020900008c2b3008e1690002e1e90003c009000e7
:1020a0000004b200040032001c00780008487800e8
:1020b000000ee800050037008c00780000022000c8
:1020c000effa0700e10f4000030032009e1b900072
:1020d0008703e800171f98008d06e900efff3a001c
:1020e0000d1798007e1c900062036400e1036400f9
:1020f000e00f53001b003200ae1c9000b9029000ac
:102100000504b2000900320019047800b6c2b30019
:10211000e08f53000100320006c3e800064c78004f
:102120002e1d9000080de8000a003700d60220009e
:10213000e08f530001003a000683e900ae189000da
:1021400006007800cefa070000017800e10f410098
:10215000ca0032009e1d90008b05e8001b1f9800ee
:10216000c6003700e08f5300c40032002e189000e4
:10217000b00290000504b2000500320010037800a0
:1021800002c2b300024b78000608e80006003700e0
:10219000ae18900000022000b9fa07000001780094
:1021a000e10f4100b50032009e1890008100e80068
:1021b000111f9800b10037000e1990000201e900cc
:1021c000021f9800000420009e119000808f510093
:1021d0008500320003003c00e08f5100080032000f
:1021e00092003700000820001e129000800f52005d
:1021f00066003200000c2000800f52008b003a0075
:102200008e1a90004328dd007e1b9000e00f5300e3
:102210002a003d00e7002100008043003004be009a
:102220002005be0028179800391798004a17980013
:102230005b1798000802be000a03be003e1890001b
:10224000ce1890005e199000ee1990000afc07006d
:10225000004f78000004fb00cfc4de0009057800c1
:102260008a0578002e129000be1290004e13900046
:10227000de1390000800be000a01be0072fc0700d9
:102280000203be000002be003e189000ce1890006f
:102290005e199000ee1990000400500085805800ef
:1022a0000601590087815900301f9800411f98008e
:1022b000521f9800631f980031003700be00900045
:1022c000e08f50001f0032003e1e9000ce1e900096
:1022d000e2002100000041003004be002005be00e5
:1022e0000801be000c00be0043fb0700004f780051
:1022f0000000fb00cf80de000801be004efb07009f
:102300000002560081825e00040f9800150f9800ad
:102310008002eb00250f98000003eb00360f9800b9
:102320000e0c90009e0c90002e0d9000be0d9000a3
:10233000381f9800491f98005a1f98006b1f98007b
:102340000f003700e90021000080440010017800f0
:102350003e1d9000811f7800110009000285d80001
:10236000cf007800a2002000811f78001100090032
:102370000280d80001007800cf007800004f78007c
:102380000bc3b3001ecf450028003700e40a21002c
:102390002e009000e00f500001003a00f40b2100e5
:1023a0008e1890004209dd003e1c9000ce1c90006b
:1023b0005e1d9000ee1d9000820278008502e9000b
:1023c000050033008b05d1000a85d3008984d30032
:1023d0000884d300f9ff37006f006400000042005a
:1023e000104f7800110037000e1b9000e330b8004a
:1023f0003e1c9000ce1c90005e1d9000ee1d9000d3
:10240000000278000402e900050033008b05d100ca
:102410000a85d3008984d3000884d300f9ff3700ec
:102420006740640005c3b300054f40002e1b9000b9
:10243000360090000004b200070032001601780058
:102440001e40780000497800020be800e04f500081
:1024500006003a000f0037001e00fb00ae18900087
:1024600007fa0700e10f40000a0032009e1b9000af
:102470008703e800171f9800060037007e1c9000b5
:102480007004640038079800fe1c90000902b20036
:10249000290798000e1d9000e00f550046ff3a00f6
:1024a000fe1d900068816500170032000e1090003c
:1024b000e00f50001400340008c2b300800678001a
:1024c0002e1e90003c0090000004b2000400320078
:1024d0001c00780008487800000ee800050037006e
:1024e0008c00780000022000e5f90700e10f4000b1
:1024f000030032009e1890008100e800111f980030
:102500008d06e900efff3a006e119000124278004c
:10251000044f7800e04f520022fc3a001e18900051
:102520004f06be004f05be004f04be000080fa00fb
:0425300000000600a1
:020000040000fa
:1025340045720000726f00007220000042750000b6
:10254400666600006572000020460000756c00009d
:102554006c0d0000004900003243000020520000ce
:1025640065610000640d0000004900003243000072
:102574002057000072690000746500000d0000001f
:1025840049320000432000005374000061720000cf
:10259400740d000000490000324300002052000086
:1025a4006573000074610000727400000d00000087
:1025b4004932000043200000537400006f70000093
:1025c4000d00000049320000432000004164000077
:1025d400642000004e610000636b00000d000000e9
:1025e4004932000043200000446900007363000086
:1025f4006f6e00006e650000637400006564000087
:102604000d00000049320000432000004461000036
:1026140074610000204e0000616300006b0d000037
:10262400004900003243000020420000757300009e
:10263400793100000d000000493200004320000001
:102644004275000073790000320d0000004900005b
:102654003243000020540000726100006e2000002c
:10266400424600000d0000004932000043200000f3
:102674005243000056200000546900006d650000bc
:102684006f750000740d0000004900003243000023
:102694002052000065730000746100007274000031
:1026a4002041000064640000726500007373000040
:1026b400204e0000616300006b0d00000049000023
:1026c4003243000020540000524e00002054000009
:1026d400696d0000656f0000757400000d00000056
:1026e40049320000432000005243000056200000fd
:1026f4004f76000065720000666c00006f77000082
:102704000d00000049320000432000005452000034
:102714004e200000436f00006c6c000069730000e1
:10272400696f00006e0d0000005500006e6b000024
:102734006e6f0000776e00000d0000006162000003
:102744006364000065000000257800000a000000b2
:020000040000fa
:102754000000fa00620007000080fa000000060092
:102764000800fa00881f78002007980031079800b5
:102774000000eb00000f78000000eb001007980049
:10278400110037001e007800ae0090000084400065
:10279400efff0700004c78001e007800ae009000a8
:1027a4000080400010407800ea4f500003003a00d7
:1027b4001000200010079800020037000000eb0012
:1027c400100798001e0fe8003e0090009e0078005d
:1027d400808f500003003d001e009000e10f500068
:1027e400e8ff3a001e007800ae00900080804000b0
:1027f400a0c0b300804878004f0478000080fa003d
:10280400000006000200fa00004f780000000000fb
:10281400911180000020200000806000e00f500033
:10282400fbff3a009e4078000180fb00a011880065
:102834000080fa00000006000600fa001007980065
:10284400210798000000eb00000f78000600370015
:102854001e0078009e009000008040001040780028
:10286400e8ff07001e0fe8001e0078009e0090009d
:102874000080400010407800ea4f5000040032000d
:102884002e0090009e007800808f5000f0ff3500ed
:102894000080fa00000006000200fa00070037007a
:1028a40000808000000f78001e0078001000900067
:1028b400008088001e0078009af8070000808000dd
:1028c400e00f5000f6ff3a000000eb001080880093
:1028d4000000eb00208088000080fa000000060061
:1028e4000400fa0000c0eb00004f78000080800074
:1028f400e00f50000c0032000080800010079800a8
:102904001e00900010009000008088001e009000bf
:10291400104f78001e00900082f80700208080008d
:102924000000e900208088001e4078000080fa0042
:10293400000006000400fa00204798004000200030
:10294400ddf70700000f78001e007800e00f50004c
:1029540007003a001a0307001903070010c0b30068
:10296400f302070040002000d3f70700000f7800af
:102974001e007800ae409000014878001e007800e8
:102984008000eb001100980000808000e00f5000f0
:1029940005003a001e007800008088009e00780040
:1029a4001180880005003700108080009e007800a8
:1029b400110098001e00780010808800208080009c
:1029c4000000e800208088000080fa000000060073
:1029d4003600f800809fbe00829fbe00849fbe0028
:1029e400869fbe000000fa0003003700b01180008b
:1029f40000407800cfff0700901180006100600064
:102a0400e00f5000f9ff3a00a1718000008020001f
:102a14008080600010c0b300e08f500001003200dd
:102a24000040eb000080fb00610060004b00dd0013
:102a3400a2718000f17f2f0081006100008070008e
:102a4400a0718800a0718000e100600010c0b30094
:102a5400e08f5000010032000040eb000080fb00da
:102a640061006000a2718000e1ff2f00810061001d
:102a740000807000a071880003c8a9000080fa00db
:102a84004f03be004f02be004f01be004f00be0008
:102a94003600f900004006000000fa00508ea8003d
:102aa40050aea9003136800000f82f00808060000d
:102ab4004006200000807000303688009134800089
:102ac400f00f2c0080806000003020000080700037
:102ad400903488003062a80090052000c01188005e
:102ae40081118000f0cf2f000080600080118800e9
:102af40071428000007020000080700070428800e5
:102b040003c8a90023c8a80031e2a8003342a800e2
:102b14000080fa00000006003800fa0020808000df
:102b2400e00f5000ef00340009ff07004047980011
:102b3400a1718000004020008080600010c0b300bc
:102b4400e08f5000010032000040eb000080fb00e9
:102b5400610060004a00dd00a2718000f1bf2f0017
:102b64008100610000807000a0718800ce40900058
:102b740010c3b30080cf500002003a0015eea80045
:102b8400d8003700ce40900020c3b30080cf50005f
:102b940002003a0015eea900d2003700ce409000a2
:102ba40030c3b30080cf50000e003a00a070800004
:102bb4000080ea004f00de00004078000080fb0047
:102bc4004f00dd00a2708000f1ff2700810061004a
:102bd40000807000a070880070c7b30009ff070070
:102be400c0003700ce40900040c3b30080cf5000f7
:102bf4001e003a00150507003007980041079800a9
:102c04003e00900000407800605798003e0090001d
:102c1400ce0090004809dd004800de00000071008d
:102c2400c888de0000407800705798003e0090008d
:102c3400ce0090004088de00cf80de0000407800a7
:102c4400005f98003e009000ce0090004888de00af
:102c5400cf80de0000407800105f980076004700c7
:102c640041002000f4fe07009e003700ce40900093
:102c740050c3b30080cf50001e003a00080507007f
:102c840050079800610798005e00900000407800ab
:102c9400205f98005e009000ee009000c809dd00ff
:102ca4004800de0000807100c888de000040780023
:102cb400305f98005e009000ee0090004088de00d7
:102cc400cf80de0000407800405f98005e009000f6
:102cd400ee0090004888de00cf80de0000407800df
:102ce400505f98007a00470041002000d2fe0700a0
:102cf4007c003700ce40900060c3b30080cf50000a
:102d04001c003a000000000020808000e30f500007
:102d1400fdff34007e0047004100200090fe0700c4
:102d24007e0047001001be0072079800030f980050
:102d34007e0090008e089000ee040700a0718000d1
:102d4400e100600010c0b300e08f500001003200c9
:102d54000040eb000080fb0061006000a271800075
:102d6400e1ff2f008100610000807000a0718800e5
:102d74005c003700ce40900070c3b30080cf500099
:102d84001e003a000000000020808000e30f500085
:102d9400fdff3400200220000e004000410020000e
:102da4006ffe0700200220000e0040001001be004c
:102db400120f9800230f98001e089000ae08900090
:102dc400d7040700a0718000e100600010c0b300c8
:102dd400e08f5000010032000040eb000080fb0057
:102de40061006000a2718000e1ff2f00810061009a
:102df40000807000a07188003a003700ce40900037
:102e040090c3b30080cf50000f003a00600220004e
:102e14000e004000e00207000000eb00000f780005
:102e240005003700630220001e8041006e407800d8
:102e340074fe07001e0fe8001e007800e50f500026
:102e4400f8ff360027003700ce40900010c6b300cc
:102e540080cf500011003a00c00220000e00400054
:102e6400ec0207000000eb00100798000700370091
:102e74001e009000c002b0006e40780061fe0700a2
:102e84001e0090000000e800100798001e0090004b
:102e9400e50f5000f6ff360012003700ce409000d8
:102ea40020c6b30080cf50000e003200ce40900008
:102eb40080c3b30080cf50000a003a000e007800af
:102ec4002e03b000013a290004000900315f7800a4
:102ed40000077800200320000e004000510020006d
:102ee40055fe07000080fa00000006000c00fa00fe
:102ef40030079800014f9800520798000000eb003b
:102f0400000f780010002000200798004b003700c5
:102f14002e009000e20f500017003200e40f500022
:102f240022003200e10f50002e003a00ed000700ad
:102f340020cdb30014010700204798002e409000d4
:102f4400e04f50000900320070c0b3007801070060
:102f540004010700e30007000040eb00204798004d
:102f640020cdb3000801070020479800200020006e
:102f7400200798001b0037000e489000020107004c
:102f840020479800400020002007980015003700d3
:102f94001e007800be0090000080400010407800c1
:102fa400f9000700204798001e0fe8005e0090001b
:102fb4009e007800808f500003003d002e4090005a
:102fc400e04f5000f2ff32002e409000e04f5000de
:102fd40001003a00e30007000000eb00200798001e
:102fe400000000002e409000e04f5000130032001b
:102ff4002e009000e20f500005003200e40f500054
:1030040006003200e00f50000700320009003700cc
:1030140080c0b300460107000600370090c0b3002b
:10302400430107000300370090c0b30040010700cc
:1030340000000000cb000700030037002e009000c2
:10304400e00f5000b2ff3a00411080000008200059
:1030540000806000e00f50000300320000c1b300a4
:103064003301070008e2a900411080000004200099
:1030740000806000e00f50000300320010c1b30074
:103084002b01070008c2a9002e4090000080fb001d
:103094000000e9004f00de00004078000080fa00e4
:1030a400000006000c00fa0030079800014f980059
:1030b400520798000000eb00000f78001000200079
:1030c400200798006b0037002e0090006101b900c2
:1030d4000080eb008080eb00020040008380480009
:1030e4003200200003002000820f5000838f58001c
:1030f40042003e00000601000300370015003700bf
:103104001a003700280037007600070020cdb300ee
:103114009d000700204798002e409000e04f50008b
:103124000900320070c0b300010107008d000700e0
:103134006c0007000040eb002047980020cdb3004e
:1031440091000700204798002000200020079800e5
:103154002a0037000e4890008b0007002047980093
:103164003000200020079800240037007400070076
:1031740030cdb300840007002047980040002000b1
:10318400200798001d0037001e007800be00900044
:10319400008040008040eb00a90007002047980011
:1031a4001e0fe80001003700000000005e009000e0
:1031b4000000e9009e0f5000030034002e409000f0
:1031c400e04f5000f0ff32002e409000e04f5000de
:1031d40007003a001e007800be0090000080400006
:1031e40011c0b30096000700204798005d00070057
:1031f4000000eb0020079800000000002e40900023
:10320400e04f50001b0032002e009000cf80de0003
:103214004200200003002000820f5000838f5800da
:1032240012003e00000601000d0037000f003700b9
:1032340002003700040037000600370080c0b300e6
:10324400bb0007000900370090c0b300b8000700b6
:1032540006003700e0c0b300b500070003003700e4
:1032640090c0b300b2000700000000003d0007005a
:10327400030037002e009000e00f500092ff3c0046
:10328400411080000008200000806000e00f500022
:103294000300320000c1b300a500070008e2a90042
:1032a400411080000004200000806000e00f500006
:1032b4000300320010c1b3009d00070008c2a9003a
:1032c4002e4090000080fa00000006000000fa0082
:1032d400e00520002010880007e2a8000080fa0022
:1032e400000006000000fa00401080006800600042
:1032f400e00f5000030032000642a800a0c0b30053
:103304008b0007004010800068006000e00f500050
:1033140007003a000602a8000000000030108000f8
:1033240061006000e00f5000fcff3a00020037002b
:10333400b0c0b3007e0007000080fa000000060061
:103344000000fa000622a8000000000030108000ef
:1033540062006000e00f5000fcff3a000080fa00b9
:10336400000006000000fa000642a8000000000069
:103374003010800064006000e00f5000fcff3a0051
:103384000080fa00000006000600fa00404798009a
:103394006000b800008fbe00401080006100600033
:1033a400e00f500021003a004e4090000080fb00e6
:1033b40010108800040037001000200001002000d5
:1033c4001e0f40005e97480041108000000024005a
:1033d40000806000e00f500006003200f069280011
:1033e400110020001e01be00800f5100818f590082
:1033f400f1ff3400006a2800110020001e01be0005
:10340400800f5100818f590004003a00f0c0b300ce
:103414004700070010c0b3000700370040108000c9
:103424004f00de000040780003003700c0c0b30046
:103434003f00070010c0b3000080fa00000006003f
:103444000a00fa0030079800014f98006000b800a5
:10345400008fbe000662a8000400370010002000a0
:10346400010020001e0f40005e97480040108000bd
:1034740062006000e00f500006003a00f069280086
:10348400110020001e01be00800f5100818f5900e1
:10349400f2ff3400006a2800110020001e01be0063
:1034a400800f5100818f590008003a00d0c0b3004a
:1034b4001f000700be0090000040eb008048780029
:1034c40010c0b30040479800160037000010800079
:1034d40000407800be009000804878000e489000bc
:1034e400614060000080fb00610060004500dd0079
:1034f40032108000f1fd2f00810061000080700017
:10350400301088000682a8000000000030108000ff
:1035140070006000e00f5000fcff3a000040eb0038
:10352400404798004e4090000080fa0000000600da
:103534000400fa002047980040002000def4070051
:10354400000f78001e007800e00f500004003a00dd
:103554001b00070010c0b300204798001600370076
:103564002e4090009e007800804878001e0078006d
:103574008000eb001100980030808000e00f5000c4
:1035840005003a001e007800308088009e00780014
:103594004180880005003700408080009e0078004c
:1035a400110098001e007800408088005080800040
:1035b4000000e800508088000080fa000000060047
:1035c4000400fa0000c0eb00004f78003080800057
:1035d400e00f50000c00320030808000100798008b
:1035e4001e00900010009000308088001e009000a3
:1035f400104f78001e0090004af5070050808000ac
:103604000000e900508088001e4078000080fa0025
:10361400000006000200fa00070037003080800036
:10362400000f78001e0078001000900030808800a1
:103634001e0078003bf5070030808000e00f50004a
:10364400f6ff3a000000eb00408088000000eb0029
:10365400508088000080fa00000006000200fa0092
:103664000040eb00004f7800d000200070f5070008
:103674008e003700d2ff0700004f78001e4078000c
:10368400e14f500005003a00a0292900801f78006e
:1036940073f507008f87e900840037001e40780027
:1036a400e44f500005003a00d02a2900801f78001a
:1036b4006bf507008f87e9007c0037001e40780017
:1036c400e54f500005003a00702b2900801f780058
:1036d40063f507008f87e900740037001e40780007
:1036e400e24f500005003a00202c2900801f78008a
:1036f4005bf507008f87e9006c0037001e407800f7
:10370400e64f500005003a00d02c2900801f7800b5
:1037140053f507008f87e900640037001e407800e6
:10372400e34f500005003a00a02d2900801f7800c7
:103734004bf507008f87e9005c0037001e407800d6
:10374400e74f500005003a00402e2900801f780002
:1037540043f507008f87e900540037001e407800c6
:10376400e84f500005003a00202f2900801f780000
:103774003bf507008f87e9004c0037001e407800b6
:10378400e94f500005003a0040302900801f7800be
:1037940033f507008f87e900440037001e407800a6
:1037a400ea4f500005003a0030312900801f7800ac
:1037b4002bf507008f87e9003c0037001e40780096
:1037c400eb4f500005003a00e0312900801f7800db
:1037d40023f507008f87e900340037001e40780086
:1037e400ec4f500005003a0090322900801f780009
:1037f4001bf507008f87e9002c0037001e40780076
:10380400ed4f500005003a0060332900801f780016
:1038140013f507008f87e900240037001e40780065
:10382400ee4f500005003a0070342900801f7800e4
:103834000bf507008f87e9001c0037001e40780055
:10384400ee4f500005003a0010362900801f780022
:1038540003f507008f87e900140037001e40780045
:10386400f14f500005003a0020372900801f7800ee
:10387400fbf407008f87e9000c0037001e40780036
:10388400f04f500005003a0040382900801f7800ae
:10389400f3f407008f87e90004003700703929002a
:1038a400801f7800eef407008f87e90050808000c5
:1038b400e00f50006fff3c000080fa00000006009b
:1038c4000200fa0010c0b300004f7800120020007c
:1038d400b1c6b3000e00780084fd070010c0b30029
:1038e400004f780012002000a1c6b3000e0078003b
:1038f4007efd07000040eb00004f7800120020001e
:10390400a1c1b3000e00780078fd070070c0b300b9
:10391400004f78001200200091c1b3000e0078001f
:1039240072fd070080c1b300004f78001200200030
:10393400b1c1b3000e0078006cfd070080c1b30074
:10394400004f780012002000c1c1b3000e007800bf
:1039540066fd07000040eb00004f780012002000d5
:1039640071c3b3000e00780060fd07000040eb0057
:10397400004f78001200200081c3b3000e007800cd
:103984005afd07000080fa00000006000000fa005b
:103994000080fa00000006000200fa00000f780020
:1039a40012002000c1c3b3001e007800bdfd070053
:1039b4001e00e80012002000b1c3b300b9fd0700e7
:1039c4001e80e80012002000e1c3b300b5fd07002b
:1039d4009e0078006380400012002000d1c3b30031
:1039e400b0fd07009e0078006480400012002000b3
:1039f40001c4b300abfd07009e0078006580400061
:103a040012002000f1c3b300a6fd07000080fa00f5
:103a1400000006000200fa00000f780012002000e7
:103a240041c4b3001e0078009efd07001e00e8009c
:103a34001200200031c4b3009afd07001e80e80084
:103a44001200200061c4b30096fd07009e007800b8
:103a5400638040001200200051c4b30091fd0700b0
:103a64009e007800648040001200200081c4b300ee
:103a74008cfd07009e007800658040001200200045
:103a840071c4b30087fd07000080fa00000006003f
:103a94000200fa00000f78001200200051c7b300a2
:103aa4001e0078007ffd07001e007800104078009b
:103ab4000080fb00801f7800603a2900801f780096
:103ac40060f40700e48757000080fa000000060055
:103ad4000600fa00200798002e0090000000e8007d
:103ae400104078000080fb00c800dd002e0090002c
:103af400104078000080fb0000807000cf80de0062
:103b0400a4f20700008fbe000200200003a02300df
:103b14001e00be00a2f20700008fbe001e00be0001
:103b24000080fa00000006000600fa002007980052
:103b34002e0090000000e800104078000080fb0098
:103b4400c800dd002e009000104078000080fb00cb
:103b540000807000cf80de008ef20700008fbe0070
:103b640002192c0093d723001e00be008cf207001c
:103b7400008fbe001e00be000080fa000000060098
:103b84000000fa00213a800000fe2f00008060004f
:103b9400203a8800313a800000e02f0080806000e5
:103ba400a002200000807000303a8800213a800092
:103bb400f0f32f0000806000203a880012002000fb
:103bc40080072000a1092000337420008049780078
:103bd4008149780082497800103a80000001780019
:103be4000200a0006004200071052000237420005e
:103bf40080497800814978008249780000000000fb
:103c0400113a80000000270080806000000021003d
:103c1400808f5000faff3a0000000000113a800043
:103c24000002200000806000e00f5000fbff320023
:103c3400310ea800312ea900314ea900316ea90021
:103c4400300ea90011eea900003a800060808800bf
:103c54000000eb00003a88008ffb07009bfd070083
:103c6400d300070016ff0700020007000080fa00d7
:103c7400000006000000fa00352ea800354ea8000a
:103c8400356ea800340ea800352ea90000202100ae
:103c9400a107200070010700352ea800354ea900a9
:103ca40000202100a10720006b010700354ea80069
:103cb400356ea90000202100a1072000660107003d
:103cc400356ea800340ea90000202100a1072000b1
:103cd40061010700340ea800005a2200610220008e
:103ce4005d01070060808000e100600010c0b30047
:103cf400e08f5000010032000040eb000080fb0028
:103d0400610060004900dd00a2718000f1df2f0036
:103d14008100610000807000a071880060808000d4
:103d2400e200600010c0b300e08f500001003200d8
:103d34000040eb000080fb00610060004a00dd00f1
:103d4400a2718000f1bf2f0081006100008070002b
:103d5400a0718800618080000008200080806000dd
:103d640010c0b300e08f5000010032000040eb00af
:103d74000080fb00610060004b00dd00a271800048
:103d8400f17f2f008100610000807000a071880025
:103d940061808000002020008080600010c0b3009b
:103da400e08f5000010032000040eb000080fb0077
:103db40061006000a2718000e1ff2f0081006100ba
:103dc40000807000a071880000682900810920002b
:103dd40021010700352ea800354ea800356ea80035
:0c3de400340ea8000080fa000000060069
:020000040000fa
:103df0000c10000002000000800000000010000015
:103e00000600000080000000061000000600000010
:103e100080000000fe100000100000008000000084
:103e20000e1100000600000080000000d810000005
:103e300026000000820000000f110000000f11009a
:103e40000900000000020000111100000011110023
:103e50000e02010000000000000000000000000051
:103e60000602020000000000d8100000141100003b
:103e70000200000082000000010000001611000096
:103e80000200000080000000ae1000002a000000c8
:103e900082000000303132003334350036373800cc
:103ea000394142004344450046003000313233007e
:103eb0003435360037383900616263006465660066
:103ec00000286e00756c6c00290000000e100000c8
:103ed000a0000000820000000100000000000000bf
:103ee00000000a0000000000000000000064000064
:103ef0000000000000000000e803000000000000d7
:103f000000001000270000000000000000a0860054
:103f1000010000000000000040420f00000000000f
:103f20000000800096980000000000000000e10002
:103f3000f50500000000000000ca9a003b000000e8
:103f400000000000e40b5400020000000000e80044
:103f500076481700000000000010a500d4e800001b
:103f600000000000a0724e00180900000000400090
:103f70007a10f3005a0000000080c600a47e8d0075
:103f80000300000000c16f00f28623000000000063
:103f90008a5d78004563010000006400a7b3b600a5
:103fa000e00d000000e889000423c7008a0000003b
:043fb000000000000d
:020000040000fa
:103fb4000000fa001f2ea9001f4ea900e135800061
:103fc40000f82f0080806000a002200000807000b4
:103fd400e0358800e1358000f00f28008080600023
:103fe4000090220000807000e03588000000eb00a3
:103ff400300e88000000eb00400e8800013680007f
:1040040000f82f00808060002006200000807000ef
:104014000036880001368000f00f280080806000a0
:104024000030260000807000003688000000eb009d
:10403400302e88000000eb00402e8800c1e1a8006b
:10404400c1e5a8000080fa00000006000c00fa0098
:10405400300e800001002000008fbe00500e800052
:104064000100200020079800310798002e009000de
:10407400be009000c000dd00000020003e01700082
:10408400ae8170000200be004007980051079800fe
:104094004e009000de0090000080fa000000060050
:1040a4000c00fa00302e800001002000008fbe00ba
:1040b400502e80000100200020079800310798004e
:1040c4002e009000be009000c000dd000000200023
:1040d4003e017000ae8170000200be0040079800ef
:1040e400510798004e009000de0090000080fa0016
:1040f400000006000400fa00008fbe001e00be008f
:104104004088de00cf80de0000007800500e88007a
:104114001e007800300e88000080fa0000000600bf
:104124000400fa00008fbe001e00be004088de00be
:10413400cf80de0000007800502e88001e0078003a
:10414400302e88000080fa00000006000000fa000b
:104154008bfe070091718000001020000080600039
:10416400e00f50003a003200a171800000202000ce
:104174008080600010c0b300e08f50000100320066
:104184000040eb000080fb00610060004900dd009e
:10419400a2718000f1df2f008100610000807000b7
:1041a400a0718800a1718000004020008080600020
:1041b40010c0b300e08f5000010032000040eb005b
:1041c4000080fb00610060004a00dd00a2718000f5
:1041d400f1bf2f008100610000807000a071880091
:1041e400a1718000008020008080600010c0b300b6
:1041f400e08f5000010032000040eb000080fb0023
:10420400610060004b00dd00a2718000f17f2f008f
:104214008100610000807000a0718800a07180009e
:10422400e100600010c0b300e08f500001003200d4
:104234000040eb000080fb0061006000a271800080
:10424400e1ff2f008100610000807000a0718800f0
:0842540031fa0700bfff37003b
:020000040000fa
:10425c00f03fb1000180b10006003500ee0309000b
:10426c0000000000403fb1000180b100fbff3d00a9
:10427c001000b000203fb0000200350000800900a3
:08428c00000000000000060024
:020000040000fa
:0200000401f009
:04000c0078ff000079
:020000040000fa
:0200000401f009
:040010007fff00006e
:020000040000fa
:0200000401f009
:040014007fff00006a
:020000040000fa
:0200000401f009
:04001800ffff0000e6
:020000040000fa
:0200000401f009
:04001c00dfff000002
:00000001FF
