:020000040000fa
:080000000002040000000000f2
:020000040000fa
:100008002206000022060000220600002206000048
:100018002206000022060000220600002206000038
:100028002206000022060000220600002206000028
:100038002206000022060000220600002206000018
:1000480022060000220600002206000042340000ba
:1000580022060000220600002206000022060000f8
:10006800220600002206000022060000c802000046
:1000780022060000220600002206000022060000d8
:1000880022060000220600002206000022060000c8
:1000980022060000220600008c3400002206000020
:1000a80022060000220600002206000022060000a8
:1000b8002206000022060000220600002206000098
:1000c8002206000022060000220600002206000088
:1000d8002206000022060000220600002206000078
:1000e8002206000022060000220600002206000068
:1000f8002206000022060000220600002206000058
:100108002206000022060000220600002206000047
:100118002206000022060000220600002206000037
:100128002206000022060000220600002206000027
:100138002206000022060000220600002206000017
:100148002206000022060000220600002206000007
:1001580022060000220600002206000022060000f7
:1001680022060000220600002206000022060000e7
:1001780022060000220600002206000022060000d7
:1001880022060000220600002206000022060000c7
:1001980022060000220600002206000022060000b7
:1001a80022060000220600002206000022060000a7
:1001b8002206000022060000220600002206000097
:1001c8002206000022060000220600002206000087
:1001d8002206000022060000220600002206000077
:1001e8002206000022060000220600002206000067
:1001f8002206000022060000220600002206000057
:100208002206000022060000220600002206000046
:100218002206000022060000220600002206000036
:100228002206000022060000220600002206000026
:100238002206000022060000220600002206000016
:100248002206000022060000220600002206000006
:1002580022060000220600002206000022060000f6
:020000040000fa
:100400000f3922000eef2d000e01880000000000c1
:100410000c000700e0562300010020000f00070039
:10042000000020000000e000020032000000020096
:1004300000000000823f0200000000000040da00df
:100440000000fe00201920000000e0000200320041
:10045000002020009001880000000600a102880012
:10046000800078000000eb001a003700e2804000b6
:1004700054a0b4009101ba00e280400054a0b4003e
:100480009102ba00e280400054a0b4000002eb00e8
:10049000472bde00f507b200a6018800602ce100c2
:1004a00008003a000049eb000201e80002003900b0
:1004b0003420ec0002f0a0008301e900f9ff3e00c7
:1004c000040037006128e100010032000082eb00e7
:1004d000040007001101ba000200e000e3ff3a0047
:1004e0000000060004d0a300e20f49001c00390000
:1004f000810278003549ba000201e80002003900a3
:100500003420ec0002f0a0008301e9000f0032006b
:100510002549ba000201e800020039003420ec004d
:1005200002f0a0008301e900080032000400e000ae
:100530000600320015c9ba000201e80002003900c5
:100540003420ec0002f0a0008301e9008180e80083
:1005500054a0b4000300e000e2ff3a0000000600ef
:100560009102ba00055978008301e900f7ff3200d3
:10057000c82ade00055978008301e900f3ff320044
:100580000400e000f1ff320011d9ba00eeff37009d
:100590003600f800809fbe00829fbe00849fbe0090
:1005a000869fbe000000fa00907180004500de00ca
:1005b000614060000080fb004200dd008040780068
:1005c000907180004400de00614060000080fb000c
:1005d000000040000040780080c0700090718000f2
:1005e0004300de006140600000c0700017f9b700f2
:1005f00016d9bf00e14f500004003a0017d9bf00e0
:100600000000fb00c1000700020037000000eb0003
:10061000be000700a1708000000022008080600002
:1006200010c0b300e08f5000010032000040eb002a
:100630000080fb00610060004d00dd00a2708000c2
:10064000f1ff2d008100610000807000a070880023
:10065000907180000268a9000080fa004f03be007c
:100660004f02be004f01be004f00be003600f90031
:10067000004006000000fa00506080000080fa0090
:10068000000006000200fa00000f7800803e200003
:100690009e007800808f500003003400803e2000d0
:1006a00050608800080037001e007800e00f5000fe
:1006b00003003d000000eb0050608800020037009e
:1006c0001e007800506088000080fa0000000600dc
:1006d0000000fa001160800080ff2f0000806000a1
:1006e0000010a00010608800803e2000206088007c
:1006f00011618000f03f2f000080600010618800d1
:1007000011628000f03f2f000080600010628800be
:1007100011638000f03f2f000080600010638800ac
:10072000a000200050638800506380005062880061
:100730005062800050618800a00020006063880043
:100740006063800060628800606280006061880091
:1007500023eca80023cca80043eca80043cca800bd
:1007600063eca80063cca80023aca80043aca800ad
:1007700063aca800238ca900438ca900638ca9005a
:10078000210ca800410ca800610ca8004006200024
:10079000506088000000eb005c00070001eca8003e
:1007a0000080fa00000006000000fa00386ea80081
:1007b000388ea80038aea8000268a9004142800027
:1007c000f0ff28008080600000002400008070009e
:1007d000404288002268a8000080fa00000006005d
:1007e0000200fa00000f78001e007800e10f5000b0
:1007f00003003a00232ca900230ca9000b003700aa
:100800001e007800e20f500003003a00432ca900bc
:10081000430ca900050037001e007800e30f5000cc
:1008200002003a00632ca900630ca9000080fa00c2
:10083000000006000200fa00000f78001e00780099
:10084000e10f500005003a0022eca90022cca800dc
:10085000232ca800230ca8000f0037001e007800ee
:10086000e20f500005003a0042eca90042cca8007b
:10087000432ca800430ca800070037001e00780096
:10088000e30f500004003a0062eca90062cca8001b
:10089000632ca800630ca8000080fa00000006008a
:1008a0000200fa00000f78001e007800e10f5000ef
:1008b00005003a0022eca90022cca900232ca800b4
:1008c000230ca8000f0037001e007800e20f500034
:1008d00005003a0042eca90042cca900432ca80034
:1008e000430ca800070037001e007800e30f5000fb
:1008f00004003a0062eca90062cca900632ca800b5
:10090000630ca8000080fa00000006000200fa0054
:10091000000f78001e007800cf80de0072002000fb
:1009200003002000820f5000838f58007b003e00a0
:1009300000060100070037000d0037001d003700da
:100940002d0037003d0037004d0037005d003700b7
:100950006d00370010002000d1ff070020002000ac
:10096000cfff070030002000cdff070072003700e6
:10097000c0c88000e00f50000700320010002000c7
:1009800097ff070020002000c5ff0700300020006f
:10099000a8ff07006800370010002000a5ff07002f
:1009a00020002000beff0700300020008cff070061
:1009b00061003700c0c88000e00f5000070032001f
:1009c000100020009bff07002000200084ff07008c
:1009d00030002000b2ff0700570037001000200051
:1009e0007fff07002000200092ff0700300020005a
:1009f000abff070050003700c0c88000e00f500078
:100a00000700320010002000a5ff07002000200092
:100a100073ff07003000200086ff07004600370004
:100a2000100020009eff07002000200081ff07002b
:100a3000300020006aff07003f003700c0c8800078
:100a4000e00f5000070032001000200094ff070064
:100a50002000200077ff07003000200060ff070023
:100a600035003700100020008dff07002000200017
:100a70005bff0700300020006eff07002e003700ec
:100a8000c0c88000e00f50000700320010002000b6
:100a900053ff07002000200066ff07003000200001
:100aa0007fff0700240037001000200061ff0700cf
:100ab000200020004aff07003000200078ff0700d8
:100ac0001d003700c0c88000e00f50000700320052
:100ad0001000200057ff07002000200070ff0700d3
:100ae000300020003eff07001300370010002000f8
:100af0003bff07002000200069ff070030002000b6
:100b00004cff07000c0037001000200049ff0700d1
:100b10002000200032ff07000700370010002000ef
:100b20005fff0700200020005dff0700300020006d
:100b30005bff0700000000000080fa0000000600d4
:100b40001c00fa0050002000200798003000200010
:100b50003007980010002000400798006000200037
:100b600050079800400020006007980020002000f7
:100b70007007980030002000000f980060002000ef
:100b8000100f980020002000200f98005000200037
:100b9000300f980010002000400f98004000200007
:100ba000500f9800907180004500de0061406000a9
:100bb0000080fb00c200dd00907180004400de0078
:100bc000614060000080fb000000400080807000f9
:100bd000907180004300de00614060000080fb00f7
:100be0000080700010079800c0c88000e00f50001f
:100bf00006003a001e0090000000e90000004000de
:100c0000640040006e0f7800050037001e00900061
:100c10000000e90000004000700040006e0f780006
:100c20009e1f7800804b2a00801f78004602070034
:100c3000e48757001e00780034ff07000080fa00a8
:100c4000000006000040da000000fe00889fbe00a1
:100c50008a9fbe008c1f7800760007007d0033005d
:100c600003866c006450e1002e0032006420e10035
:100c7000330032006150e1002f0032006120e100ba
:100c80003100320085855500eb07b00009002000d7
:100c900008042000050037000804440089844c0043
:100ca0000a0031000603430087834b000001530014
:100cb00081815b00f8ff33000203be000800a00042
:100cc0000804440089844c00f6ff3900c639dd0071
:100cd0008301730001003200130020008904d10059
:100ce0000884d3000998a300050032000800a7007b
:100cf0000300a0008904d1000884d3008b05e8001c
:100d00008904d1000884d3000001eb000281d200e5
:100d10002200070001f0a1000cf0a70001f0a000e4
:100d2000550037006420e100570032000801be0082
:100d30000200be00f7ff37006120e10052003200e0
:100d40006000b800f3ff37000000200001f8270022
:100d5000f0ff3700839f68000100e00002003d00c3
:100d600060001000e08018000300e00002003d0079
:100d700060011100e08119007a0007004f00e000d7
:100d800002003b0060001000e08018000000060038
:100d90004f89de0082017800820037008100200048
:100da000618055000b003d000b00200061fe2f000c
:100db0000100e1001d0034008281710061016400c6
:100dc0008904d1000884d3000000e800faff3a004b
:100dd00071002000610064000300700002006000e8
:100de0000900320061044400e0844c000988a50039
:100df000050032008b05e8006808e10002003a00b7
:100e00008904d1000884d300f20f20000258e100c9
:100e100005003d00c75ddd00f907b200898075005f
:100e200008007800000006000bf827008b0078000f
:100e3000000005000004be00990007000003be008a
:100e40000405be000200be0095000700844f750037
:100e5000000006000200be006450e10005003600fc
:100e60006420e100020036000968a30001003a0096
:100e70000800be000160a0004f0678004f05be00cc
:100e80004f04be0000000600f0ff2f00f1ff270016
:100e9000f9ff3700889fbe008a9fbe008c1f780034
:100ea000e4ff0700ebff330003866c006450e100b1
:100eb000240032006420e100270032006150e1008c
:100ec000220032006120e100210032008b854200c7
:100ed000eb07b1000134b800003ab8000804420042
:100ee00089844a00013ab8000030b8008880400088
:100ef00009014a00040033000000400081804800de
:100f0000020149008b05e900c909dd008301700079
:100f10000100320013002000c814de004814dd0078
:100f20004709de001200b200c808de000884700025
:100f30009aff070001f0a1000cf0a70001f0a0004b
:100f4000cdff37006120e100cfff32000801be0075
:100f50000200be00f7ff37006150e100fcff3a00dd
:100f6000c9ff37006022b800060220000000d00050
:100f70008180d2000482d2008582d2000000a000cd
:100f80000202520083825a00030031000202420032
:100f900083824a000000a1000603e900f3ff3a0043
:100fa00000000600881f7800030478000300e000ba
:100fb00007003d0060001000e0801800600119008b
:100fc000e081190002003b0001f02d000300370012
:100fd0000400070008f0a70001f0a0004f0478000b
:100fe00000000600889fbe008a9fbe00008270003d
:100ff0000402710004827100260032000004be0069
:101000000200be006011b8006b09200095022000ac
:101010000182cf000a0039000541b1000082cf00f3
:10102000070039000541b1000982cf0004003900f2
:101030000541b1000882cf00010039000541b1002f
:1010400005425200120032000a003b00828171000a
:10105000610164008100d1000080d3008984d30045
:101060000884d3008b05e8000442e800f7ff3a004b
:10107000070037000804440089844c000000480041
:10108000818048008b05e9000442e900f9ff3a003d
:1010900042ff07004f05be004f04be0000000600df
:1010a000c70ade00f107b200f50fb20008003200f7
:1010b000e1cf4200020032000170a00024000500d0
:1010c000810f700001003200040805004400050093
:1010d000810f700002003a00140005008502e9004b
:1010e0000000400081c04800fcff3b000170a000f0
:1010f000240005000400fa00889fbe008a9fbe00fd
:101100008c9fbe00e1b6210072db8000e00f510031
:101110000b003a006481400072db8800c2db88006b
:10112000a1009800b1db8800214190000204a000da
:10113000a2409800614190000204a000e2409800a3
:10114000670440004244de004244dd00b1db800021
:101150000002eb0086b82100093922008684540081
:1011600064004400000f7800614eb90001003700b0
:101170008b00780021409000610060000200320086
:101180000a0037009308780091017800234090000e
:1011900061006000fbff320008814000828f510037
:1011a00002003900e00f540056003d009105780020
:1011b000818f5500eeff3e00868f550003003900f9
:1011c000e0b62100808f5500e9ff3900c0db8000c8
:1011d000808f50005c003a00e0b62100808f5500ff
:1011e00059003a000402e800e10f5200e0ff360027
:1011f00022002000811f7800110009008204d8001d
:10120000cf007800800f540005003600890f54008d
:10121000030031000885e8000a0545001300370087
:101220006142b800b2ff2f00030020000c01510002
:101230008d815900820f5200838f5a000a003d00b1
:101240003a3922000605550008054500811f78003f
:10125000110009000985d80000057800cf0078004a
:101260008955b80001003700080578000a007800a9
:1012700016079800b80807001e039000e10f400011
:1012800006003a001e0578000a007800b208070040
:101290001e039000e10f40002b003200c1db8000f4
:1012a00080087800c1db8000e4814000214190008b
:1012b000830f5000020032000204a000010037003a
:1012c0000204a100a2409800640555000a054000f0
:1012d0000a087800cadb8800e1b62100010d780019
:1012e000c2db8000a24090000104a00021419800d0
:1012f000a04090000104a100214098000002eb00f2
:101300009bff3700b2db8800828f51000700360058
:101310001202be00d4db8800e5db880011097800ea
:101320000040eb00b2db800020419800b5db80007c
:1013300085087800214090000004a000a04098009b
:1013400064804000010037000000eb004f06be0043
:101350004f05be004f04be000080fa0000000600ea
:101360000000fa0064005000b0db8800a04090004c
:101370000104a100214098000080fa00000006004e
:101380000000fa00889fbe008a9fbe00800478009b
:1013900001047800648154009205780069f997008f
:1013a000610161000200320009007800ecff0700d3
:1013b000080078004fff070000047800e00f540099
:1013c0001b003200890f54001900320068bd9700dd
:1013d0000805550042d5de00098055004280de0038
:1013e0000a017800800f55000100360000017800e6
:1013f0004211dd000800be0012000700890f5400f2
:101400000b0031004255dd000a054400890f5500ec
:101410000700360089045500c2ccde00c24cdd0056
:1014200089044400d0db8000e1db8000808cbe00ba
:10143000080078004f05be004f04be000080fa008f
:10144000000006000000fa0080017800020037006a
:10145000b1597800040178000202e900e00f510060
:10146000fbff3a000080fa00000006000000fa00ce
:10147000889fbe000004be00060037000000fb008d
:101480008900780037000700e10f400005003200b6
:101490000804e80018407800e04f5000f7ff3a00d9
:1014a0000000eb004f04be000080fa0000000600c0
:1014b0000000fa00881f780041b52100ebff07000b
:1014c0000004780041b52100a0002000250007009d
:1014d000080078004f0478000080fa000000060041
:1014e0000000fa0041b521001e0007000080fa004c
:1014f000000006000c00fa00889fbe00000478007f
:10150000f0ff2700500798008004eb0019079800af
:10151000080f780028079800200c2000300798005a
:1015200068015700ceb897000e007800fc00070055
:101530001e007800094878001e0014004f04be0009
:101540000080fa00000006000000fa006801570061
:10155000ceb8970040b52100f10007000080fa00e6
:10156000000006000000fa00889fbe000104780019
:10157000b8009000628160008084eb003c00320083
:10158000810178000320b2001801900002003a00a7
:10159000e00f510036003a000190a000310498009d
:1015a00080047800f90fb200e00f510002003a0009
:1015b00028009000000c7800ea8f540006003a00e2
:1015c000010078000008b20003003a0088007800ab
:1015d000d0002000e3ff070018009000d800900022
:1015e000810f50000b0032000000e800100498004a
:1015f0001800780009487800000ce80010c0b3001b
:10160000e1b7210080487800ea8f540018003a00c2
:101610000500370088007800094078005d07070062
:101620008004780012003700380090000010b200eb
:101630000f00320018019000a800900048009000b0
:101640009607070098009000810f500004003200b8
:10165000380090000003b300300498008084eb0051
:101660000000eb001004980028009000000c7800a7
:10167000090078004f04be000080fa000000060058
:101680000000fa00889fbe008a9fbe000084fb0015
:10169000d1c6b300814f5000210036004b06200018
:1016a000110009000b84d800810578007200400009
:1016b0004300dd00e99c2100008044006022b80066
:1016c0000600200007fe23005001be004000be00bf
:1016d00070090700aa00200000027800811f78002e
:1016e000110009008a85d8000002fd00cf007800b3
:1016f000690242004322dd00048244005403be001c
:101700004402be0063090700809fbe00110009006b
:101710000a84d800010478004f00be001000370092
:10172000ea4f500013003600a90020001100090004
:101730000984d80001047800690040004300dd00fe
:10174000e99c2100008044006022b80006002000cf
:1017500007fe23005001be004000be004d090700f7
:101760004344dd00888444003902be002903be00e2
:10177000080037004344dd00e09c210008044000dd
:101780006022b8000600200007fe23003800be00db
:101790002801be003f0907004f05be004f04be00f0
:1017a0000080fa00000006000000fa00889fbe00da
:1017b0008a9fbe00d1c6b300e04f500025003d0017
:1017c0000040ea000004fb00814f50000b00340091
:1017d00042062000110009000204d8000100780030
:1017e000a9002000110009000900d800690040008c
:1017f0004300dd00ea9c210023003700ea4f50003f
:1018000011003400a2002000110009000204d800d9
:101810000104780080007800e9804000c308dd0002
:10182000e09c2100810040004344dd0008004000ae
:101830003002be002003be005101be004100be00c8
:1018400014090700320037004344dd00e09c21000a
:101850002c0037000004fb00814f50001c003400b6
:1018600042062000110009000204d800010078009f
:10187000a9002000110009000900d80069004000fb
:101880004300dd00ea912100000045003002be0067
:101890002003be008b0920008a8545003b00be0066
:1018a0002b01be00fb080700809fbe00110009004d
:1018b0000904d800010478004f00be004344dd0055
:1018c000080545003a02be002a03be00dcff3700cf
:1018d000ea4f500009003400a20020001100090066
:1018e0000204d8000104780080007800e9804000fc
:1018f000c308dd00e0912100caff37004344dd004a
:10190000e0912100080440003800be002801be001c
:101910004f05be004f04be000080fa000000060024
:101920005200fa00889fbe008a9fbe008c9fbe00b6
:101930007027980061179800721798000000eb005c
:101940006027980088063700ee1090008100e800bc
:101950006117980052c2b30082cf520006003a00cd
:101960000003eb0007c3b30003c2b300b1c2b3006e
:101970006e10900014003700fe219000330190009b
:101980000204b20005003200930178008549780016
:101990007e229000030ae800070037000501fb00e3
:1019a000fe20900002007800eefe070000017800a3
:1019b000e10f41006c063200ee2290008502e80043
:1019c000652798006806370090427800d8c2b300b7
:1019d00088cf52000b0032000001e80088cf52008f
:1019e00005003c0083cf52000900320081cf520035
:1019f0000e003a000800370087cf52000b003a0073
:101a0000070037000630a0000000e800eeff3700b6
:101a10000600a000030037000610a00001003700f8
:101a20000620a00002007800e7ff3700601798004a
:101a3000e2016300010032000600a100e80163003a
:101a4000010032000620a1008501fb000303b10064
:101a5000e98f51000e003e00010020006e11900041
:101a6000ea08b80001fd2f00808040001200fb0052
:101a7000808040005200fb000003b100e90f5000dd
:101a8000f7ff3600011f9800621798000c0037001e
:101a90000005eb000a1f9800a2c2b30082cf5200db
:101aa00007003a00fe1590004b0078007b17980065
:101ab000001f9800ee1090008100e8006117980068
:101ac000e2c2b300ee119000934f11001f003a00e4
:101ad00006e0a00016279800644151008301e80049
:101ae0006317980013427800824f520003003200bf
:101af000030020006e1190000c0037007e13900050
:101b0000c603780076179800072798006e14900097
:101b10000804e8006817980010003700ea18b800b9
:101b20000003b100810140000201e8009200fb00c7
:101b300000fd2f0001004000e90f5000f7ff3600c4
:101b400003279800621798000400370006c0a00021
:101b5000162798008004eb0009279800c9c6b30037
:101b60001e219000ee119000334678000c4f780053
:101b7000894f56002b0032001227980063179800f7
:101b8000c2c6b300824f560014003c004dc6b300dd
:101b90008d4f5600e000320009003c0074415100b6
:101ba000824f56002d0032006b414100824f56009b
:101bb000ae003200e04f5600f0053200cf00370093
:101bc00062c6b300824f56001c00320063414100e0
:101bd000824f5600c9003a00cf0037003dc7b3001e
:101be0008d4f56002300320007003c00f2c6b300c0
:101bf000824f5600150032000241e800824f560025
:101c0000be003a001500370052c7b300824f56009d
:101c1000be00320063414100824f5600b7003a00d7
:101c200011003700700061000100280001003a0037
:101c30000101200001017100cbff37001e2590003b
:101c40000aa0a0001a279800b30037009e25900034
:101c50000b60a0001b279800af0037001e209000eb
:101c60000050a000102798009e2090000170a00056
:101c7000a80037007e119000420678007217980085
:101c80002c279800e00f560002003a0004b421000f
:101c9000242798008002eb003527980002003700c7
:101ca0008100e80031279800be2090002e2390008c
:101cb000068040008043eb0090cf1300f8ff3a000d
:101cc0000e249000e00f540005003200be24900066
:101cd000890f540002003100080578003a27980067
:101ce000be2290008004eb008e1d9000858f550071
:101cf00001003600858455001e20900068066000b3
:101d000031003a008901780008c2b300fe26900035
:101d1000100037003d0090000004b20004003200c3
:101d20001d00780008487800800ee80005003700a4
:101d30008d007800000220000afe0700e10f40003d
:101d400003003200ee2090008100e8006127980037
:101d5000890178008904e900e08f5100edff3a0025
:101d6000190037003d0090000004b2000900320065
:101d70009d017800080178003240780080497800a1
:101d8000830ee80002047800e04f50000a003a0099
:101d900013003700080178003200fb0002047800cd
:101da0008d007800062f9800eefd07000e2b9000a6
:101db000e10f40000a0032006e2190000201e800ad
:101dc0006227980006003700090378002e2490004f
:101dd000be2490004e259000de259000fe26900047
:101de000090078008004e900e00f5000ddff3a00b0
:101df00028279800392798004a2798005b279800e1
:101e000086047800e00f56005705320011003700b5
:101e1000380090000004b20004003200180078007e
:101e20000c487800000ce8000500370088007800b6
:101e300000022000cbfd0700e10f4000030032004c
:101e4000ee2090008100e800612798008d04780062
:101e5000020037000cc2b3007e2490008906e9001e
:101e6000e08f5400eaff3a003f0537007e119000f2
:101e700042067800721798000c027800cfa2de00ac
:101e80000503780086037800441f9800551f9800ca
:101e9000661f9800771f98000605be000404be0068
:101ea0004844de00c84add0008847200084f78000c
:101eb0001e2390007006630009003200e04f5400ba
:101ec00007003200e14f4400050032001847980037
:101ed0002447980027002000372798000400370087
:101ee0000e7c9000184798001900200039279800b0
:101ef0000e05e8002a27980071ff37002e2798006a
:101f000010002000302798006dff37009e209000c1
:101f1000010cb300112798000c7020001e219000c6
:101f20000c066100a50232000c0021000c066100c5
:101f30000200320063002000032798001e22900058
:101f400070066200090032007e1090004005be005d
:101f50004004be0070179800481f9800591f980051
:101f60006a1f98007b1f98000a0037007e119000be
:101f70004200be0072179800c80607000002be00ab
:101f80000203be00441f9800551f9800661f98006a
:101f9000771f98006022b8006033b8004e18900098
:101fa000de1890006e199000fe1990000d060700d3
:101fb00080027800e08f52000c003d004e1c900023
:101fc000de1c90006e1d9000fe1d90000bf0a20024
:101fd000481f9800591f98006a1f98007b1f98009f
:101fe0009e2490003900b300192798000006eb00ea
:101ff0002c0798006022b8006033b8004e1890009b
:10200000de1890006e199000fe1990005906070026
:10201000800278008c8f52003a0032004e189000f7
:10202000de1890006e199000fe19900090070700ce
:102030006401470014070700ae0690008d06e90012
:10204000e36eb800ad002000809fbe0011000900c3
:102050000d06d800000678004f00be002c0798003f
:10206000e00f560002003d000c06e9002c07980026
:102070002e0690000c41ea0002407800cafd0700dd
:102080004e1a9000de1a90006e1b9000fe1b90000e
:10209000000707000002be000203be0014179800ec
:1020a0002517980036179800471798006022b80047
:1020b0000600200007ff2300ca0507008002780001
:1020c000e08f520002003d000c06e9000c003700d2
:1020d0006022b80006002000470224001e10900075
:1020e000ae1090003e119000ce119000c205070086
:1020f00080027800e08f5200020035000c06e800f4
:102100002c0798008e229000f88f52000f003c00a0
:10211000054078005afd07000002be000203be0021
:102120004e189000de1890006e199000fe19900075
:102130002f0507000004be000205be00481f9800de
:10214000591f98006a1f98007b1f98002e06900068
:10215000e90f560016003c006022b8006033b8005a
:102160004e189000de1890006e199000fe19900035
:102170000006070080027800e08f52003500320030
:102180004e189000de1890006e199000fe19900015
:1021900061060700e00f5000e08f5800e00f590083
:1021a000e08f59002b003a00e10f5600290034005f
:1021b0000400200005002e00b6e0220017012400d4
:1021c0001e109000ae1090003e119000ce119000b5
:1021d0008405070080027800e08f520002003d0075
:1021e0007306560001003700720656002c0798004f
:1021f0004e4090006cfd07000002be000203be00ce
:10220000141798002517980036179800471798005c
:102210004e189000de1890006e199000fe19900084
:102220007a0507003c060700202798003127980010
:1022300042279800532798006000b8006011b8004a
:10224000401f9800511f9800621f9800731f98004c
:10225000190037004e189000de1890006e1990009b
:10226000fe1990002c0607002027980031279800bf
:102270004227980053279800580607000002be0026
:102280000203be004e189000de1890006e199000f8
:10229000fe199000f40607000004be000205be000f
:1022a000481f9800591f98006a1f98007b1f9800cc
:1022b0000006eb002c07980012c0b300024f780014
:1022c000e1a721000f0037000200fb004300dd0002
:1022d000008040003002be002003be002e2490008b
:1022e000be2490004e259000de2590000440e100c1
:1022f00005c8e10006d0e10007d8e100040039007c
:10230000024fe8001e417800f44f5100eeff3a0002
:10231000824378002e0490008e1c900008845400a4
:102320000e2590000a0454008703fb008703540025
:10233000071f9800e00f5500020032008703e900f4
:10234000071f98009e259000e3836500030032007c
:102350000e1890000000e900001f98009e209000d9
:10236000e48360004c00320062866000e186600019
:10237000e00f56001b0032007e219000b203900057
:102380000704b2000900320092047800bcc2b30016
:10239000e08f5600010032000cc6e8008c4c78003b
:1023a000fe2190008909e8000a003700dc022000c5
:1023b000e08f560001003a000c86e900fe209000f4
:1023c0000c00780067fc070080027800e18f420073
:1023d000280032006e2290000402e8006427980072
:1023e00024003700e08f560022003200fe229000c9
:1023f000b50390000704b20005003200150678000e
:1024000002c2b300024e78008c0ae80006003700d2
:10241000fe2090000002200052fc0700800278009d
:10242000e18f4200130032006e2390000603e800a3
:10243000662798000f003700380090000004b200b3
:10244000040032001800780009487800000ce80009
:1024500005003700880078000003200041fc0700d9
:10246000e10f4000010032008d06e8000c06e90093
:102470000400370009c3b3000e1e9000ee26900042
:102480007e249000e00f5600ebff3c000c1f9800ec
:102490006d279800800037001e249000e803640038
:1024a00018003a000f003700380090000004b20016
:1024b000040032001800780009487800000ce80099
:1024c00005003700880078000002200025fc070086
:1024d000e10f4000010032008d06e8000c06e90023
:1024e0000400370009c2b3000e1e9000ee269000d3
:1024f0007e249000e00f5600ebff3c000c1f98007c
:102500006d2798009e24900062866400e186640036
:10251000e00f56001b0032007e259000ba039000a9
:102520000704b200090032009a047800bcc2b3006c
:10253000e08f5600010032000cc6e8008c4c780099
:10254000fe259000890de8000a003700dc0220001b
:10255000e08f560001003a000c86e900fe20900052
:102560000c007800fffb070080027800e18f42003a
:10257000490032006e2090000000e80060279800bb
:1025800045003700e08f560043003200fe209000e7
:10259000b10390000704b200050032001106780074
:1025a00002c2b300024e78008c08e8000600370033
:1025b000fe20900000022000eafb07008002780065
:1025c000e18f4200340032006e2190000201e800e9
:1025d00062279800300037007e229000340190007e
:1025e0000204b2000300fb00e00f510013003200b0
:1025f000140678004300dd00008046003002be0073
:102600002003be000800be000a01be00d30607007a
:10261000a4002000050020006033b800d8060700a1
:102620000203be000002be0000c3b300004e420021
:10263000fe2090008c08e800130037004300dd0006
:10264000008046003002be002003be000800be002d
:102650000a01be00c1060700a400200005002000fa
:102660006033b800c60607000203be000002be00c9
:102670000403b000fe20900004007800b9fb0700be
:10268000e10f4000090032006e2190000201e800d5
:102690006227980005003700eda721002e24900046
:1026a000be2490004e259000de2590001e4078004c
:1026b0008041e900034f7800e04f5000c6ff3a0028
:1026c00011003700380090000004b200040032000e
:1026d0001800780009487800000ce8000500370071
:1026e00088007800000320009efb0700e10f4000f7
:1026f000010032000c06e8002e0090000000e90006
:10270000200798000300370009c3b3006e2690002d
:102710007e2490002e009000e00f5000e9ff3c0066
:102720006c2798008e219000f28f51000300340036
:1027300022c1b300024f7800020037000ec29000a1
:10274000044f78001e4678008c02fb000e23900098
:102750008502530005279800e04f56001200320012
:10276000fe239000b70290000504b200050032007d
:1027700017067800e2c2b300024e78008c0be80026
:1027800006003700fe209000e002200075fb0700e5
:1027900080027800e18f4200030032006e24900036
:1027a0000804e800682798001e407800fefb070038
:1027b0000002be000203be004e189000de1890001a
:1027c0006e199000fe19900032050700d204070030
:1027d0002027980031279800422798005327980017
:1027e000eda7210040003700fe229000b5019000c7
:1027f0000304b2000401fb00e08f5100130032001b
:10280000150678004311dd00028146003202be0049
:102810002203be002e209000be2090004e2190008a
:10282000de2190004d060700a400200005002000d6
:102830006033b8005206070008c3b300084e4000da
:10284000fe2490008c0ce800160037004311dd00d8
:10285000028146003202be002203be002e209000fc
:10286000be2090004e219000de2190003b06070024
:10287000a4002000050020006033b80040060700d7
:102880000203be000002be000403b000fe20900060
:102890000400780033fb070000017800e10f4100dd
:1028a000030032006e2590000a05e8006a279800b0
:1028b0001e01fb004311dd00028146003202be0012
:1028c0002203be002e209000be2090004e219000da
:1028d000de2190002a060700202798003127980063
:1028e00042279800532798001e4178000242e900d1
:1028f000044f7800e04f5100bbff3a000f00370053
:10290000380090000004b200040032001800780083
:1029100009487800000ce8000500370088007800be
:10292000000320000ffb0700e10f40000100320010
:102930008d06e8000c06e9000400370009c3b30067
:102940000e269000ee2690007e249000e00f5600a8
:10295000ebff3a006d2798009e229000688162008c
:10296000810232000e1b9000e00f53007e02340003
:1029700009c2b300060678007e249000380090005b
:102980000004b20004003200180078000948780002
:10299000000ce800050037008800780000022000e5
:1029a000f0fa0700e10f4000010032008d06e80058
:1029b0000c06e900f1ff3a006a0237009e229000ff
:1029c000050cb20043003a009e239000e08f5300b4
:1029d00005003d007e1090004005be004004be0092
:1029e00070179800100037009e209000f082600061
:1029f000120032007e1290004401be00741798004d
:102a0000120f9800230f9800140690004fe6de0086
:102a10003c0f98004c0f98001e0c9000ae0c9000dc
:102a20003e0d9000ce0d9000282798003927980081
:102a30004a2798005b2798000b003700fe1490008f
:102a4000c90278007917980005007800cf80de0071
:102a50000101780082017800202798003127980032
:102a600042279800532798002e229000be22900003
:102a70004e239000de239000e00f5200e08f5a00ba
:102a8000e00f5b00e08f5b0038003d009e2290006d
:102a90003500b300152798006044b8006055b800b1
:102aa0002e209000be2090004e219000de2190004c
:102ab0000000540081805c0002015d0083815d00a4
:102ac0002027980031279800422798005327980024
:102ad000260037009e209000e08f500005003d004a
:102ae0007e1490004803be004802be00781798008c
:102af0000e0037009e249000f08264001000320027
:102b00007e1090004005be00701798005a0798008c
:102b10006b0798007c0798000c0f98005e029000ed
:102b2000ee0290007e0390008e0b90002427980008
:102b30003527980046279800572798000b00370044
:102b40007e139000c602780076179800050478007e
:102b5000090020000a0020000b0020002827980010
:102b6000392798004a2798005b2798008e24900008
:102b7000e08f54000d003a001a0020000a27980048
:102b80002e209000be2090004e219000de2190006b
:102b9000e00f5000e08f5800e00f5900e08f59001f
:102ba000020032008000eb00012798001e219000f7
:102bb000020cb200421f98000c0420008c0f510040
:102bc0003d00320003003c00e00f510008003200dd
:102bd0005300370005082000ce199000858f510062
:102be0001a003200050c2000858f51004c003a007d
:102bf00012c0b300024f7800e1a721000f00370098
:102c00000200fb004300dd00008040003002be00f7
:102c10002003be002e249000be2490004e2590007c
:102c2000de2590000440e10005c8e10006d0e10087
:102c300007d8e1003a003900024fe8001e41780051
:102c4000f44f5100eeff3a003500370012c0b300d8
:102c5000024f780008012000090020006055b800ec
:102c6000110037002e229000be2290004e239000cb
:102c7000de2390000820e10009a8e1000ab0e1008d
:102c80000bb8e10026003900450020000804d00000
:102c90008984d2000a85d2008b85d2008502e900a2
:102ca000faff3a00004fe8001e407800f04f500055
:102cb000ecff3a001a00370012c0b300024f780050
:102cc00088002000090020006055b800110037007e
:102cd0002e229000be2290004e239000de23900012
:102ce0000820e10009a8e1000ab0e1000bb8e1000a
:102cf0000b003900350020000804d0008984d20080
:102d00000a85d2008b85d2008502e900faff3a00dd
:102d1000004fe8001e407800f54f5000ecff3a00ed
:102d20001e06fb000e239000860f560002003d0099
:102d3000064f7800040037008e2390008c8f5300dc
:102d400001003d000c2798000e1c9000e00f54007d
:102d5000050032009e249000e382640002003200ed
:102d60000804e900081f9800050024001e259000b3
:102d700085026500090032008e1d90000e20900033
:102d8000808f550003003400808555000b1f98008c
:102d9000020037008000eb00011f98001e06fb00b8
:102da0000001eb00521798008e1990008c8f510093
:102db000020034000c8651005c1798001e2290001f
:102dc000e40262004c003200e2036200610462002f
:102dd000e08f53001b0032007e239000b60290006b
:102de0000504b2000900320016067800b7c2b3002d
:102df000e00f54000100320087c3e800074e78005e
:102e0000fe2390008c0be8000a003700d702200058
:102e1000e00f540001003a008783e900fe20900093
:102e200007007800cff9070000017800e10f4100aa
:102e3000180032006e2490000804e800682798000b
:102e400014003700e00f540012003200fe249000fe
:102e5000b90290000504b200050032009903780021
:102e600002c2b300824b7800870ce80006003700ee
:102e7000fe20900000022000baf90700000178004f
:102e8000e10f4100030032006e2590000a05e800c2
:102e90006a279800de159000e08f55000f01320080
:102ea00008c3b3000b067800ee269000fe249000c5
:102eb000390090000004b2000400320019007800cc
:102ec00008487800800ce800050037008900780089
:102ed00000032000a3f90700e10f400001003200c9
:102ee0008d06e8000c06e900f1ff3a005c17980037
:102ef0006d279800f90037005e109000e00f500039
:102f0000180032009e209000e882600015003a0010
:102f100008c2b30000067800ee269000fe24900060
:102f2000390090000004b20004003200190078005b
:102f300008487800800ce800050037008900780018
:102f40000002200087f90700e10f40000100320075
:102f50008d06e8000c06e900f1ff3a005c179800c6
:102f60006d2798001e219000e2036100610461005a
:102f7000e08f53001b003200fe219000b30290004e
:102f80000504b2000900320013067800b7c2b3008e
:102f9000e00f54000100320087c3e800074e7800bc
:102fa0007e2290000c0ae8000a003700d7022000b9
:102fb000e00f540001003a008783e900fe209000f2
:102fc0000700780067f9070000017800e10f410071
:102fd000c2003200ee2290008502e80065279800ca
:102fe000be003700e00f5400bc0032007e2390008a
:102ff000b60290000504b200050032009603780086
:1030000002c2b300824b7800070be80006003700cd
:10301000fe2090000002200052f907000001780015
:10302000e10f4100ad003200ee2390008703e8007d
:1030300067279800a90037000e2490000804e900d3
:103040000827980000042000ce1c9000808f5400b8
:103050007d00320003003c00e08f54000800320085
:103060008a003700000820004e1d9000800f550098
:103070005e003200000c2000800f550083003a00f3
:103080008e2590004358dd009e209000e08f500078
:1030900022003d00e2a72100000041003002be00f6
:1030a0002003be00041f9800151f9800261f9800db
:1030b000371f98002e209000be2090004e219000d7
:1030c000de21900025040700004f78000004fb007b
:1030d000cfc4de00090578008a0578000e1a90003a
:1030e0009e1a90002e1b9000be1b90000800be0090
:1030f0000a01be008d0407002e249000be2490001b
:103100004e259000de2590000004540081845c0070
:1031100002055d0083855d001d003700ce04900030
:10312000e08f54001f0032002e269000be26900033
:10313000eaa72100000045003004be002005be00c3
:103140000801be000c00be0086f70700004f7800a3
:103150000000fb00cf80de000801be006f03070007
:103160000001560081815e00520f9800630f9800a5
:103170008001eb00730f98000002eb000417980029
:103180005e0c9000ee0c90007e0d90008e1590006d
:1031900028279800392798004a2798005b2798002d
:1031a0000f003700e9a721000080440010017800db
:1031b0002e259000811f7800110009000285d8009b
:1031c000cf007800a2002000811f780011000900c4
:1031d0000280d80001007800cf007800004f78000e
:1031e0000bc3b3001ecf450028003700e4b1210017
:1031f0003e009000e00f500001003a00f4b22100c0
:103200008e2090004209dd002e249000be24900004
:103210004e259000de259000820278008502e900ac
:10322000050033008b05d1000a85d3008984d300c3
:103230000884d300f9ff37006f00640000004200eb
:10324000104f7800110037000e239000e330b800d3
:103250002e249000be2490004e259000de25900084
:10326000000278000402e900050033008b05d1005c
:103270000a85d3008984d3000884d300f9ff37007e
:103280006740640005c3b300054f40007e239000f3
:10329000360090000004b2000700320016017800ea
:1032a0001e40780000497800020be800e04f500013
:1032b00006003a000f0037001e00fb00fe209000c1
:1032c000a8f80700e10f40000a003200ee2390004a
:1032d0008703e80067279800060037001e24900047
:1032e00070046400480798009e2490000902b20010
:1032f000390798000e259000e00f55004eff3a0068
:103300009e25900068816500170032005e109000d5
:10331000e00f50001400340008c2b300000678002b
:10332000ee269000fe249000390090000004b200c8
:10333000040032001900780008487800800ce8008a
:1033400005003700890078000002200085f807009a
:10335000e10f4000010032008d06e8000c06e90094
:10336000f1ff3a006d279800ee109000914278002e
:10337000054f7800e0cf520073f93a006e209000bc
:103380004f06be004f05be004f04be000080fa008d
:10339000000006000200fa00889fbe00004f78007f
:1033a0000104780038009000800078000104b20029
:1033b00032003a00e200600005003a000003b3006a
:1033c00030049800110498000080eb002c003700b6
:1033d000d8049000e08f540006003a00120020004c
:1033e0008e007800480090002c0007001904980017
:1033f00022003700a8009000e08f500008003a003b
:1034000011b8210021049800010c7800210020004f
:1034100051049800110498000030a0003004980076
:1034200018019000a8009000480090001b000700c1
:10343000280090008080eb00110498001e4878005e
:10344000000ce800a0c0b3009e4f10000b003a0033
:10345000380090000010b2000800320018019000ff
:10346000a8009000480090000c0007000000eb004e
:103470001004980028009000000c78001e00fb004b
:103480004f04be000080fa00000006000000fa00b1
:1034900000c0da000080fa00000006000a00fa000e
:1034a000e20f500021003e0020dc8000e10f5000c0
:1034b000060032008523200044232000232320001f
:1034c00000232000e08f520004003a0085222000f3
:1034d0004422200023222000002220000600280091
:1034e0009003630002003a00870a78001008730016
:1034f000004020001300600001003a0013a0a0006b
:103500000200780006003700930278000510b20030
:10351000fdff3200b102fb00050a78000000e9005f
:10352000e00f5000f8ff3a00080037003300200099
:10353000030f7800100798002107980032079800c1
:103540000e007800d1ff07003e01900002007800d5
:103550000080fa00000006000000fa00889fbe000c
:103560008004780030dc8000e00f500004003a0056
:103570000f0007000084eb00e00f5000080035004a
:1035800038dc8000e08f5400050032000900440060
:1035900007000700e00f500001003d000084eb0031
:1035a000080078004f04be000080fa00000006000a
:1035b0000000fa00e00f500004003a0081b821003a
:1035c00031dc880080007800060037008080eb0046
:1035d00002392200820f500002003e0030dc8800d9
:1035e0008000eb00010078000080fa000000060077
:1035f0002800fa00889fbe008a9fbe008c9fbe00f4
:1036000007067800878669000c003b0003047800f9
:103610008704780008f0a10009f0a100840f500091
:10362000858f5800860f5900890f5c000300330016
:103630000cf0a20001003a000cf0a100fe0007000f
:103640006400e1005f003200780147006408e10097
:10365000610032006c014700748557003200be00e3
:103660001201be003a04be001a05be001e039000ff
:10367000be0a90008503530006003d000004fd00d3
:103680008104fd000205fd008305fd008703ea00bb
:10369000050378000df8a300040032006004140054
:1036a000e0841c0060051d00e0851d006022b8005c
:1036b0007d0320000d38e1008006eb000b0039008f
:1036c0004433dd00f300b20083017300390037009a
:1036d000848272000d027800e10664008b85d100bf
:1036e0000a85d3008984d3000884d3008703e900c6
:1036f000f7ff3b0008004000898048000a014900ac
:103700008b81490004003b0060001000e08018003d
:1037100060011900e08119000358a300090032007c
:103720008d82720084827200610260008301d10088
:103730000281d3008180d3000080d3000603e8001b
:103740001b0037000348a30017003a000600e00002
:10375000170034000603e9000d00a3000000480034
:103760008180480002014900838149000348a30089
:103770000f003a000600e000090034000603e900eb
:103780000000400081804800020149008381490017
:1037900001003a000003eb000348a300f5ff3200ec
:1037a0006022b800020037008482720061826600e5
:1037b0007500070003f0a1000cf0a70003f0a000c3
:1037c000b1003700640147006408e10002003a00dc
:1037d0000df8a300a9003a003200be001201be009d
:1037e000a90037008f1fd100080307008f87e90069
:1037f0000000e00000000600809feb0003030700cc
:103800008f87e9000000e000000006002800fa00b1
:10381000889fbe008a9fbe008c9fbe0003866b00ff
:10382000850007006400e100440032006408e10004
:103830004a0032006100e100460032006108e10008
:1038400049003200ec0647006000b8003d02be00af
:103850003d03be00f48657006011b8003d04be0071
:103860003d05be007d0320000b0037000000a000d6
:103870008d06e900130032000402420085824a00ee
:1038800006034b0087834b00000040008180480006
:1038900002014900838149000802520089825a00ce
:1038a0000a035b008b835b00f0ff3b0008024200d1
:1038b00089824a000a034b008b834b008d06e90086
:1038c000edff3a008482720086827200f707b20030
:1038d0008782720001003200150020001e04900053
:1038e0003e0b900006035400e63fb0000368a300bf
:1038f000070032000000a7000500a0008301d100ee
:103900000281d3008180d3000080d3000603e80049
:103910008301d1000281d3008180d3000080d300d5
:103920000002eb000482d2001700070003f0a100a0
:103930000cf0a70003f0a00053003700640247001a
:103940006408e1004d0032003400be003401be00c6
:10395000f6ff37006108e100480032006011b8004e
:103960006000b800f1ff370003ff270002002000cd
:10397000fbff3700801feb00a40207008f87e900e0
:103980000000e000000006001800200057002000a2
:10399000080453000d003d000600200097fc2f0096
:1039a0000740e1001e003400848272006102600062
:1039b0008301d1000281d3008180d3000080d30035
:1039c0000804e800f8ff3a004700200061046000a6
:1039d00005047400040464000d003200610040001e
:1039e000e080480060014900e081490003b8a5007b
:1039f000070032000603e8006538e10004003a00e1
:103a00008301d1000281d3008180d3000080d300e4
:103a1000f87f20000830e10003003500080378003b
:103a20006000b8006011b8004433dd00f300b2005c
:103a30008301730000000600680447000294be0082
:103a40000094be00fc0447008694be008494be002f
:103a500009007800b602070008007800b4020700e9
:103a600099007800814f70000b003b000800be00f9
:103a70008f0207004f00b10003003700f3ff27005b
:103a8000f2ff2f006110b9004f06be004f05be00c7
:103a90004f04be000080fa00000006008103780099
:103aa0007ff507000001be006000b8000478a300a5
:103ab00013003a006220e10015003e000d003900bd
:103ac0008301d1000281d3008180d3008301d10022
:103ad0000281d3008180d3008301d1000281d30011
:103ae0008180d3000538b000c42add00f300b200a5
:103af0008381720007f0a70003f0a0000000060019
:103b0000f3ff2700f2ff2f006110b900fbff370021
:103b100003ff2700f7ff37001400fa00889fbe005c
:103b20008a9fbe008c9fbe000004be000205be003e
:103b3000680047000a90be000890be007c020700a3
:103b40000070a7000bf0a1000bf8a30020003a00c2
:103b50009e0990000e099000fe0090006e009000fb
:103b60009e0290003443200084825200c6ff32003f
:103b70000a003c00b4fc2f000428e10014003400cb
:103b80008301d1000281d3008180d3000080d30063
:103b90008502e800faff3a00bbff3700b4002000be
:103ba0000428e10007003c0000004000818048003c
:103bb00002014900838149008502e900faff3a00c9
:103bc000b1ff370003002800020020000100370089
:103bd0006011b8006000b800abff3700889fbe00de
:103be000008270000402710004827100240032001f
:103bf00036432000c50020008383cf000a0039002f
:103c00000541b1008283cf00070039000541b100b2
:103c10008183cf00040039000541b1008083cf00cb
:103c2000010039000541b10085c353006022b8008e
:103c3000120032000a003b008482720061026000c0
:103c40008301d1000281d3008180d3000080d300a2
:103c50000603e8008743e800f7ff3a000700370053
:103c60000000400081804800020149008381490032
:103c70000603e9008743e900f9ff3a0042ff070025
:103c80004f04be0000000600d301070005097800bc
:103c9000000006002800fa00889fbe008a9fbe0030
:103ca0008c9fbe0003866b0063ff07000028a30003
:103cb00064003a000128a30067003a000008a3004e
:103cc00062003a000108a30065003a001e0090005f
:103cd000be08900081064000ed3fb100f48057001f
:103ce000ee019000111ab8008e099000311bb80047
:103cf0009e099000311cb800511db800f485570092
:103d000046000700fe0190003a0007008b85e8009e
:103d10003e0007008e09900040000700ee01900071
:103d2000340007008b85e800380007008e099000fa
:103d3000400007009e0990001b18b800890440004d
:103d40000a854800fe019000340007008b85e800da
:103d500038000700ee019000300007008e09900047
:103d60001b18b800890440000a8548000a98a3007f
:103d700008003a000402420085824a0006034b0014
:103d800087834b0008044c0089844c000a054d00d1
:103d90008d06e90084827200850273004c3add00d2
:103da000850272000100320015002000443ade0056
:103db0001400b2004538de00cb45dd000b0070007a
:103dc000c540de00cb4ddd008b8070004549de0034
:103dd000cb55dd000b017100c551de000d037800ed
:103de000e9fe070003f0a1000cf0a70003f0a0001b
:103df00025ff37001b18b8008502400006834800e5
:103e0000e0834b0060044c00070037001b18b8002b
:103e10000603400087834800faff37001b18b800ec
:103e20008703400008844800e0844c0060054d0092
:103e3000000006001b18b8000804400089844800f0
:103e4000faff37000108a3000cff3a005800be003b
:103e50005801be00e3ff37000008a30007ff3a0047
:103e600009047800f9ff370007f0a200e0fd3700f1
:103e70001400fa00889fbe008a9fbe008c9fbe007f
:103e80000005be000206be00680047000c90be00a0
:103e90000a90be00a60107006400e1001a0032008b
:103ea00016003e006100e1001a0032006e0490002e
:103eb000fe0490000e0b90009e0b90006011b80065
:103ec0009e0590000b38b100d50120008281710061
:103ed000610164008703d1000683d3008984d30085
:103ee0000884d3008502e900f8ff3a00abf307002d
:103ef0000df0a70001f0a000e3fe3700f1ff27005e
:103f0000f0ff2f00e0fe370001f82700000020003e
:103f1000f7ff37006000b800f5ff3700020ab9006c
:103f2000001bb9000200b80081004200810043007c
:103f3000000006000000fa00889fbe008a9fbe00b5
:103f40003004be002005be000404440085844c00fb
:103f500006054d0087854d000898be000a90be00fa
:103f60000440e10005c8e10006d0e10007d8e10007
:103f700002003100680040001008e8004f05be0054
:103f80004f04be000080fa00000006000000fa00a6
:103f9000889fbe008a9fbe008c1f780000067800b4
:103fa0003c04be002c05be000400540085805c006b
:103fb00006015d0087815d00009ebe00029ebe007e
:103fc000100020000440e10005c8e10006d0e10037
:103fd00007d8e100010039000000eb001c0e1000c2
:103fe0004f0678004f05be004f04be000080fa0067
:103ff000000006001200fa00889fbe008a9fbe00e3
:104000008c9fbe000205be000004be00540798004d
:104010006507980076079800070f98000000eb00ee
:104020004007980030079800200798001007980074
:10403000000f780000067800fd032000ce019000fc
:104040003e00900003814100ae009000e08f5100df
:1040500003003d0021000700b6ff07000200370003
:104060001e000700c9ff0700ce009000e08f50003f
:104070000700350014002000050020006033b80060
:1040800008047200898472000a0573008b8573002e
:104090000c06e8008d0f5600e8ff3400e08f50005a
:1040a00002003d0027000700a2ff07004eb897005e
:1040b000e00f500002003a003e04be002e05be0094
:1040c0000800be000a01be004f06be004f05be003c
:1040d0004f04be000080fa0000000600cf01de00a1
:1040e00002817100420798004f09de000000400085
:1040f00000007100300798001e0090004f01de00a4
:104100008180400081007100210798001e02780024
:10411000cf20de00000040000080700010079800f3
:104120000800be000a01be004f18de000402420073
:10413000000f72000804440089844c000a054d00f9
:104140008b854d005e029000ee0290007e03900091
:104150008e0b90000e007800000006000000fa00b0
:10416000881f780018002000881f7800a1ff070032
:104170008f87e9004f0478000080fa0000000600f5
:104180000000fa00801feb009aff07008f87e9000c
:104190000080fa00000006000000fa00889fbe00c0
:1041a0008a9fbe008c1f7800e00f5000e08f5800ff
:1041b000e00f5900e08f59000f003d006044b80047
:1041c0006055b8000000540081805c0002015d0071
:1041d00083815d001c0020000820e10009a8e100a7
:1041e0000ab0e1000bb8e1000d003d001a00070025
:1041f0000006eb000a0037000006eb00e00f52005b
:10420000e08f5a00e00f5b00e08f5b0004003d0090
:104210006044b8006055b8000f0007001c00200083
:10422000ceff0700e00f5600060032006022b80003
:104230006033b8000000520081805a0002015b0028
:1042400083815b004f0678004f05be004f04be001f
:104250000080fa00000006000402540085825c0021
:1042600006035d0087835d00000006000000fa0081
:10427000889fbe008a9fbe008c1f7800e00f500010
:10428000e08f5800e00f5900e08f59000d003d000d
:104290006044b8006055b8000000540081805c00a4
:1042a00002015d0083815d001c0020000820e10008
:1042b00009a8e1000ab0e1000bb8e1000d003d00e3
:1042c000080037000006eb00e00f5200e08f5a00b4
:1042d000e00f5b00e08f5b0006003d006044b8002b
:1042e0006055b8000402540085825c0006035d003e
:1042f00087835d00a2ff0700e00f56000600320032
:104300006022b8006033b8000000520081805a007b
:1043100002015b0083815b004f0678004f05be0001
:104320004f04be000080fa00000006000000fa0002
:10433000889fbe008a9fbe008c1f78000006eb009d
:10434000e00f5000e08f5800e00f5900e08f590057
:1043500007003d006044b8006055b80000005400fc
:1043600081805c0002015d0083815d001c002000f3
:10437000e00f5200e08f5a00e00f5b00e08f5b001f
:1043800007003d006044b8006055b80004025400c6
:1043900085825c0006035d0087835d000c00a2003f
:1043a0008a000700e00f5600060032006022b800c5
:1043b0006033b8000000520081805a0002015b00a7
:1043c00083815b004f0678004f05be004f04be009e
:1043d0000080fa00000006000003be0030f3070072
:1043e0006220e100020032000600be000500050068
:1043f000e507b100f107b20004f0230084807000eb
:1044000007f0a70001f0a00024000500889fbe006f
:104410008a9fbe008c9fbe000404be000605be003d
:10442000809fbe00829fbe002f0007000406780018
:104430000800be000a01be002b00070084067800b9
:104440004f03be004f02be008d4f76007fb0970035
:1044500013003300f0ff2f008b8f6b0006003b0032
:104460000d0666000c00a7000a00370007f0a60042
:10447000100020000a003700880f5200898f5a0070
:104480008a0f5b008b8f5b00030039001000200057
:1044900001003e000000200007f0a7000000ea0035
:1044a0004f06be004f05be004f04be0000000600d0
:1044b000e48240001078a30007003200640240004c
:1044c0001178a3003400be001401be0004003200c5
:1044d0000330a700000006003500be001501be0035
:1044e0000330a0000000060005ff270005826100e0
:1044f000070032000428e10001003200240005001a
:104500000600070001003a00440005000408050009
:1045100002000700f9ff3a00140005006f826100f5
:1045200081027000850271008502720000000600a1
:10453000800078005002be005003be004439de0007
:10454000f700b200f37f2000030161000900320090
:104550000218e10016003a00850172008301730021
:10456000838173000008200015003a0040002000fd
:10457000130037008501720083017300838173008b
:1045800005003a0004a8be0006a8be0010002000e6
:104590000b0037000201e9000402420085824a0054
:1045a00006034b0087834b000748a300f9ff320046
:1045b0000740a00004a8be0006a8be0020002000fe
:1045c000800098009200980000000600889fbe00be
:1045d0008a9fbe008c9fbe000404b8000506b80088
:1045e0008904460060854e000606b8000a054600ac
:1045f000e0854e000706b8008b054600040eb800a3
:10460000890446000a854e00e0854d00050eb8007d
:104610000a0546008b854e00060eb8008b05460045
:104620000416b8000a0546008b854e000516b80032
:104630008b054600041eb8008b0546000800be002e
:104640000a01be004f06be004f05be004f04be006b
:044650000000060060
:020000040000fa
:1046540045720000726f0000722000004275000075
:10466400666600006572000020460000756c00005c
:104674006c0d00000049000032430000205200008d
:1046840065610000640d0000004900003243000031
:104694002057000072690000746500000d000000de
:1046a400493200004320000053740000617200008e
:1046b400740d000000490000324300002052000045
:1046c4006573000074610000727400000d00000046
:1046d4004932000043200000537400006f70000052
:1046e4000d00000049320000432000004164000036
:1046f400642000004e610000636b00000d000000a8
:104704004932000043200000446900007363000044
:104714006f6e00006e650000637400006564000045
:104724000d000000493200004320000044610000f5
:1047340074610000204e0000616300006b0d0000f6
:10474400004900003243000020420000757300005d
:10475400793100000d0000004932000043200000c0
:104764004275000073790000320d0000004900001a
:104774003243000020540000726100006e200000eb
:10478400424600000d0000004932000043200000b2
:104794005243000056200000546900006d6500007b
:1047a4006f750000740d00000049000032430000e2
:1047b40020520000657300007461000072740000f0
:1047c40020410000646400007265000073730000ff
:1047d400204e0000616300006b0d000000490000e2
:1047e4003243000020540000524e000020540000c8
:1047f400696d0000656f0000757400000d00000015
:1048040049320000432000005243000056200000bb
:104814004f76000065720000666c00006f77000040
:104824000d000000493200004320000054520000f3
:104834004e200000436f00006c6c000069730000a0
:10484400696f00006e0d0000005500006e6b0000e3
:104854006e6f0000776e00000d00000025750000eb
:104864000a000000256900000a0000002535000048
:104874002e320000660a00000025000069200000b6
:104884002569000020250000692000002530000073
:10489400352e00003266000020250000303500006f
:1048a4002e32000066200000253500002e32000064
:1048b40066200000253400002e320000662000002f
:1048c400253500002e340000662000002535000048
:1048d4002e34000066200000253500002e34000030
:1048e40066200000253500002e34000066200000fc
:1048f400253500002e340000662000002535000018
:104904002e34000066200000253500002e340000ff
:1049140066200000253500002e34000066200000cb
:10492400253500002e3400006620000025350000e7
:104934002e34000066200000253500002e340000cf
:1049440066200000253500002e340000660a0000b1
:104954000025000073000000257800000a00000014
:10496400257800002f6e0000000000002564000080
:04497400000000003f
:020000040000fa
:10497800f003fa00889fbe008a9fbe008c9fbe008d
:104988000040eb00004f78000000eb001007980093
:104998006000b80020079800310798000000eb007d
:1049a8004007980002c8800013c8800000fa200061
:1049b80001002000800f5100818f5900130034003e
:1049c8002aef070081c88000810f500004003d00d5
:1049d80026ef07000000e80028ef0700070037006f
:1049e80022ef070081c88000810f500003003400c7
:1049f8001eef07000000e90020ef07006000b80084
:104a080000c8880011c888000600370000c8800068
:104a180011c8800061004000e080480000c888009c
:104a280011c8880040c88000e00f500021043400fd
:104a3800cb060700204f9800a170800000002200dc
:104a48008080600010c0b300e08f50000100320089
:104a58000040eb000080fb00610060004d00dd00bd
:104a6800a2708000f1ff2d008100610000807000bd
:104a7800a0708800ae48900000c3b30080cf5000fb
:104a88001f003a001a0b0700600798006e0090009c
:104a980000407800df0607006e0090004800de0046
:104aa80000407800db060700e0c88000801f78001f
:104ab80000432a00801f7800a1f20700e48757000e
:104ac800e1c880006e00900000805000801f7800d0
:104ad80040432a00801f780099f20700e4875700b6
:104ae8006e009000790b0700809fbe0080432a006b
:104af800801f780092f20700e6875700ed03370021
:104b0800ae48900010c3b30080cf50000a003a00ae
:104b18000064200001002000ab0b0700406a200061
:104b2800010020009f0b070080702000010020007a
:104b3800ae0b0700df033700ae48900020c3b30078
:104b480080cf50004f003a00cb0b07007007980049
:104b5800010f98007e00900000407800ad06070025
:104b68007e0090008e0890004809dd004800de00b5
:104b780000007100c888de0000407800a506070024
:104b88007e0090008e0890004088de00cf80de0016
:104b9800004078009f0607007e0090008e08900075
:104ba8004888de00cf80de000040780099060700c4
:104bb800990b070070079800010f98007e0090007d
:104bc80000407800930607007e0090008e08900051
:104bd800480add004800de0000007200c888de00d8
:104be800004078008b0607007e0090008e08900039
:104bf8004088de00cf80de00004078008506070090
:104c08007e0090008e0890004888de00cf80de008d
:104c1800004078007f060700af0b07007007980078
:104c2800010f98007e009000004078007906070088
:104c38007e0090008e089000c80add004800de0063
:104c480000807200c888de00004078007106070006
:104c58007e0090008e0890004088de00cf80de0045
:104c6800004078006b0607007e0090008e089000d8
:104c78004888de00cf80de00004078006506070027
:104c88008c033700ae48900030c3b30080cf50008b
:104c980007003a00c1c8800010002000e08f5000d3
:104ca800010032000000eb00c0c888008103370013
:104cb800ae48900040c3b30080cf500004003a00d3
:104cc80010c0b30016f9b7009bef0700790337004f
:104cd800ae48900050c3b30080cf500003003a00a4
:104ce8000040eb0016f9b70072033700ae48900099
:104cf80060c3b30080cf500016003a0081c880001e
:104d0800503b2000808f500004003c0080c8800089
:104d18002003b00080c8880066033700a0718000b7
:104d2800e100600010c0b300e08f500001003200c5
:104d38000040eb000080fb0061006000a271800071
:104d4800e1ff2f008100610000807000a0718800e1
:104d580058033700ae48900070c3b30080cf5000ae
:104d680016003a0081c8800020032000808f500080
:104d78000400340080c880002003b10080c8880087
:104d88004c033700a0718000e100600010c0b30040
:104d9800e08f5000010032000040eb000080fb0073
:104da80061006000a2718000e1ff2f0081006100b6
:104db80000807000a07188003e033700ae48900064
:104dc80080c3b30080cf500013003a00803e20001b
:104dd80080c8880058ef0700a1718000008020007b
:104de8008080600010c0b300e08f500001003200e6
:104df8000040eb000080fb00610060004b00dd001c
:104e0800a2718000f17f2f00810061000080700096
:104e1800a071880027033700ae48900090c3b30004
:104e280080cf500012003a006009200080c8880036
:104e3800a1718000008020008080600010c0b30055
:104e4800e08f5000010032000040eb000080fb00c2
:104e5800610060004b00dd00a2718000f17f2f002f
:104e68008100610000807000a07188001103370084
:104e7800ae48900030c6b30080cf500010003a0012
:104e8800a1708000000024008080600010c0b30082
:104e9800e08f5000010032000040eb000080fb0072
:104ea800610060004e00dd00a2708000f1ff2b0061
:104eb8008100610000807000a0708800fd0237004a
:104ec800ae48900040c6b30080cf500002003a00c0
:104ed80015cea800f7023700ae48900050c6b300c0
:104ee80080cf500002003a0015cea900f102370029
:104ef800ae48900060c6b30080cf50000b003a0067
:104f080030c3b300d00507000000000040c880008f
:104f1800e00f5000fdff340091050700205798006e
:104f28002e509000bb050700e2023700ae48900003
:104f380070c6b30080cf500003003a0010c3b3001e
:104f4800c1050700db023700ae48900080c6b300f9
:104f580080cf500003003a0020c3b300ba05070011
:104f6800d4023700ae48900090c6b30080cf5000fe
:104f780002003a001d090700ce023700ae48900033
:104f8800a0c6b30080cf500002003a00eaee070046
:104f9800c8023700ae489000b0c6b30080cf5000ba
:104fa80003003a000000eb0056ee0700c10237008c
:104fb800ae489000c0c6b30080cf50003e003a0013
:104fc8006000b80000c8880011c8880021003700b8
:104fd80008c8800019c88000c5090700800078004b
:104fe8000800780000014000001021000000410086
:104ff800010878008085290001002000030c0700c3
:10500800a1708000000022008080600010c0b30002
:10501800e08f5000010032000040eb000080fb00f0
:10502800610060004d00dd00a2708000f1ff2d00de
:105038008100610000807000a070880000c88000b6
:1050480011c8800061004000e080480000c8880066
:1050580011c8880002c8800013c88000f03f2000f3
:1050680001002000800f5100818f5900d8ff3400c3
:10507800a1708000000021008080600010c0b30093
:10508800e08f5000010032000040eb000080fb0080
:10509800610060004c00dd00a2708000f1ff2e006e
:1050a8008100610000807000a07088000000eb00a3
:1050b800a0c888007f023700ae489000d0c6b30071
:1050c80080cf500041003a00a1c88000f0032000c2
:1050d800808f50003a003c00a0c880004400dd00ea
:1050e800200f9800011021002e08900000004000b9
:1050f80000804000300f98006000b80000c88800a9
:1051080011c888002300370000000000111180003a
:105118000020200000806000e00f5000fbff3a00f4
:1051280000c8800011c8800000007800be08900008
:1051380000804000104078000000fb00201188002b
:10514800a1718000008020008080600010c0b30042
:10515800e08f5000010032000040eb000080fb00af
:10516800610060004b00dd00a2718000f17f2f001c
:105178008100610000807000a071880000c8800074
:1051880011c8800061004000e080480000c8880025
:1051980011c8880002c8800013c88000f0012000f0
:1051a80001002000800f5100818f5900d6ff340084
:1051b800a0c880000000e800a0c888003d023700b1
:1051c8000000eb00a0c888003a023700ae48900003
:1051d800e0c6b30080cf50000e003a0080c3b30091
:1051e800190507000000000040c88000e40f5000c7
:1051f800fdff3400401220000e0040005100200046
:10520800db040700401220000e004000a6f0070053
:1052180028023700ae48900010c7b30080cf500076
:10522800f4003a00a0718000e100600010c0b300f3
:10523800e08f5000010032000040eb000080fb00ce
:1052480061006000a2718000e1ff2f008100610011
:1052580000807000a0718800070a0700c2c6b3006a
:10526800320a070030879900eb090700d2c6b3005d
:105278002e0a070040879900170a070042c7b300a3
:105288002a0a07005087990019090700400f98005b
:105298004e0890008d090700608799007187990072
:1052a8004e0890009a090700008f9900118f990005
:1052b80010d72300512c2400208f9900318f99009a
:1052c800703d2a0081142400408f9900518f990065
:1052d80010ae270041012400608f9900718f99005a
:1052e800d0a3200071fb2b0000979900119799001b
:1052f8000000200001f023002097990031979900c1
:10530800608f2200c1f923004097990051979900b6
:10531800d0cc2c00811724006097990071979900d0
:1053280050b82e00d1112400009f9900119f9900b8
:10533800901220000e00400058070700901220002d
:105348000e004000120020008000eb00a6070700b6
:10535800209f9900319f9900901220000e00400074
:1053680032002000210020009f070700409f99007d
:10537800519f9900901220000e004000520020001a
:105388004100200098070700609f9900719f9900cd
:10539800901220000e0040005707070090122000ce
:1053a8000e004000120020008000eb00a907070053
:1053b80000a7990011a79900901220000e00400044
:1053c8003200200021002000a207070020a7990032
:1053d80031a79900901220000e00400052002000d2
:1053e800410020009b07070040a7990051a799009a
:1053f8004ea09100dea0910060b79b0071b79b00a2
:105408002ea19100bea191000ea391009ea3910030
:105418006e9d9100fe9d91004e9a9100de9a91003a
:1054280004a79b0015a79b002e989100be98910099
:1054380020a79b0031a79b000e9a91009e9a91008d
:1054480044a79b0055a79b006e909100fe90910089
:1054580060a79b0071a79b004e929100de9291007d
:1054680004af9b0015af9b002e909100be90910059
:1054780020af9b0031af9b000e9291009e9291004d
:1054880044af9b0055af9b006e889100fe88910049
:1054980060af9b0071af9b004e8a9100de8a91003d
:1054a80004b79b0015b79b002e8e9100be8e91000d
:1054b8000e8c91009e8c91006e829100fe8291006c
:1054c8005e80910020b79b00ce80910031b79b0091
:1054d8003e80910040b79b00c11c2000810047001e
:1054e80051b79b006eb09300feb09300809fbe0042
:1054f800829fbe00869fbe008a9fbe000ea09300ba
:105508009ea09300809fbe002ea09300bea0930093
:10551800809fbe004ea09300dea09300809fbe0037
:105528006ea09300fea09300809fbe000ea893007b
:105538009ea89300809fbe002ea89300bea893004b
:10554800809fbe004ea89300dea89300809fbe00f7
:105558006ea89300fea89300809fbe000eb0930033
:105568009eb09300809fbe008c9fbe00889fbe00a7
:10557800849fbe00aeb09300811f78003eb19300b7
:10558800821f78004eb29300841f7800f0432a00ef
:10559800801f78005eb09300d4ef07008f04b1003d
:1055a800c01c20000e004000801f7800b04a2a006e
:1055b800801f7800e2ef0700e4875700a0718000a1
:1055c800e100600010c0b300e08f5000010032001d
:1055d8000040eb000080fb0061006000a2718000c9
:1055e800e1ff2f008100610000807000a071880039
:1055f80030013700ae48900090c7b30080cf50000c
:1056080002003a009a0807002a013700ae489000c5
:10561800a0c7b30080cf500004003a003013200028
:105628000e004000cb06070022013700ae4890006c
:1056380080c7b30080cf50004c003a0020142000ef
:105648000e004000500f9800801320000e0040000c
:1056580092060700801320000e0040001200200070
:105668008000eb00e0060700102799002127990029
:10567800801320000e00400032002000210020008e
:10568800d906070030279900412799008013200088
:105698000e0040005200200041002000d206070002
:1056a8005027990061279900801320000e004000c0
:1056b80091060700801320000e0040001200200011
:1056c8008000eb00e306070070279900012f99007e
:1056d800801320000e00400032002000210020002e
:1056e800dc060700102f9900212f99008013200055
:1056f8000e0040005200200041002000d50607009f
:10570800302f9900412f99006000b80000c8880028
:1057180011c888000d00370000c8800011c880003b
:1057280000007800de0890000080400010407800fb
:10573800b803070000c8800011c88000610040005d
:10574800e080480000c8880011c8880002c88000ae
:1057580013c880007001200001002000800f510054
:10576800818f5900ecff3400d2003700ae4890001a
:1057780020c7b30080cf50008f003a00a07180008e
:10578800e100600010c0b300e08f5000010032005b
:105798000040eb000080fb0061006000a271800007
:1057a800e1ff2f008100610000807000a071880077
:1057b800601820000e004000600f9800ae08070037
:1057c800c2c6b300d90807003087990092080700bd
:1057d800d2c6b300d508070040879900be08070065
:1057e80042c7b300d108070050879900c0070700d7
:1057f800700f98007e0890003408070060879900b1
:10580800718799007e08900041080700008f990071
:10581800118f990010d72300512c2400208f990054
:10582800318f9900703d2a0081142400408f99001f
:10583800518f990010ae270041012400608f990014
:10584800718f9900d0a3200071fb2b00009799005d
:10585800119799000000200001f02300209799007b
:1058680031979900608f2200c1f923004097990071
:1058780051979900d0cc2c0081172400609799008b
:105888007197990050b82e00d1112400009f9900fb
:10589800119f9900a01520000e004000ff05070089
:1058a800a01520000e004000120020008000eb0030
:1058b8004d060700209f9900319f9900a0152000f0
:1058c8000e0040003200200021002000460607009c
:1058d800409f9900519f9900a01520000e0040009c
:1058e80052002000410020003f060700609f9900f9
:1058f800719f9900a01520000e004000fe050700ca
:10590800a01520000e004000120020008000eb00cf
:105918005006070000a7990011a79900a0152000bc
:105928000e00400032002000210020004906070038
:1059380020a7990031a79900a01520000e0040006b
:1059480052002000410020004206070040a79900ad
:1059580051a799006000b80000c8880011c88800e5
:105968000d00370000c8800011c8800000007800d2
:10597800ee089000008040001040780025030700e2
:1059880000c8800011c8800061004000e080480025
:1059980000c8880011c8880002c8800013c88000a9
:1059a8005004200001002000800f5100818f590011
:1059b800ecff34003f003700ae48900030c7b3001a
:1059c80080cf50003b003a00401620000e004000f7
:1059d8000017980046070700101798001e1090003f
:1059e800ba07070020379900313799001e10900038
:1059f800c7070700403799005137990010d723008f
:105a0800512c24006037990071379900703d2a00a5
:105a180081142400003f9900113f9900d0a3200071
:105a2800211a2400203f9900313f9900c017200017
:105a38000e004000b0050700c01720000e0040000f
:105a4800520020004100200002060700403f990054
:105a5800513f99006000b80000c8880011c888004c
:105a68000d00370000c8800011c8800000007800d1
:105a78008e1090000080400010407800e50207007a
:105a880000c8800011c8800061004000e080480024
:105a980000c8880011c8880002c8800013c88000a8
:105aa8007001200001002000800f5100818f5900f3
:105ab800ecff34004f06be004f05be004f04be0089
:105ac8000080fa00000006000a00fa0040c88000c2
:105ad800e00f500098003400a102070040479800ea
:105ae800ce40900050c6b30080cf500009003a0065
:105af800400620005060880010002000c0c88800c0
:105b080010c0b30016f9b70015aea9000aec0700db
:105b180089003700ce40900020c7b30080cf5000e6
:105b280038003a006000b800008fbe001d00370042
:105b3800ef060700800078001e0078000001400092
:105b4800001021000000410001087800808529002c
:105b5800010020002d090700a1708000000022002c
:105b68008080600010c0b300e08f50000100320058
:105b78000040eb000080fb00610060004d00dd008c
:105b8800a2708000f1ff2d0081006100008070008c
:105b9800a070880010002000010020001e0f4000a7
:105ba8005e974800f03f2000010020001e01be0063
:105bb800800f5100818f5900ddff3400a1708000f3
:105bc800000021008080600010c0b300e08f50000a
:105bd800010032000040eb000080fb006100600023
:105be8004c00dd00a2708000f1ff2e0081006100f2
:105bf80000807000a07088000000eb00a0c888003a
:105c08004d003700ce40900040c7b30080cf500011
:105c18003b003a00a1c88000f0032000808f5000ac
:105c280034003c00a0c880004400dd003007980024
:105c3800011021003e00900000004000008040005c
:105c4800400798006000b800008fbe001f003700b2
