:020000040000fa
:080000000002040000000000f2
:020000040000fa
:1000080090020000900200009002000090020000a0
:100018009002000090020000900200009002000090
:100028009002000090020000900200009002000080
:100038009002000090020000900200009002000070
:020000040000fa
:020000040000fa
:100400000f8020000e7f24000e01880000000000f5
:100410000c000700a05a2000010020001100070076
:10042000000020000000e000020032000000020096
:100430000000000094020200000000000040da000a
:100440000000fe004440a900000020000000e00081
:100450000300320000002000a00188004440a800f2
:100460000000060091018800800078000000eb0089
:1004700015003700e280400032a0b4009101ba00bc
:10048000e280400032a0b4009102ba00e280400055
:1004900032a0b4000002eb00472bde00f507b200eb
:1004a000602ce10004003a000059eb008301e900f0
:1004b000fdff3e00040037006128e100010032002a
:1004c0000082eb00040007001101ba000200e00006
:1004d000e8ff3a00000006003159ba008301e90044
:1004e0000c0032002159ba008301e90008003200f3
:1004f0000400e00003003a00e280400032a0b400b3
:10050000f5ff370011d9ba008301e900faff3a007c
:100510008100e800e180400032a0b4000000060045
:080520000040da000000fe00bb
:020000040000fa
:100528000400fa0090022000303a8800213a800046
:10053800f0f32f0000806000203a8800213a800004
:1005480000fe2f0000806000203a88001200200082
:1005580080072000a109200033742000804978001a
:100568008149780082497800120020006004200048
:1005780071052000237420008049780081497800a3
:100588008249780000000000113a8000000027002e
:100598008080600000002100808f5000faff3a0040
:1005a80000000000113a8000000220000080600076
:1005b800e00f5000fbff3200113a8000f0fb2f00e3
:1005c8000081600060042000710520002374200071
:1005d800804978008149780082497800e1348000b8
:1005e800f00f2e00808060000080200000807000e6
:1005f800e0348800e134800000fe2f0000806000b5
:100608007000b300e0348800f0348000f001b300db
:10061800f034880001358000f00f2e0080806000e3
:10062800001020000080700000358800013580002f
:1006380000fe2f00008060000010a0000035880038
:1006480010358000f001b300103588002135800096
:1006580000fe2f0000806000c000b3002035880035
:100668007136800000fe2f00008060003000b3006b
:100678007036880011368000f00f2e0080806000f0
:10068800002021000080700010368800113a800098
:100698000004200000817000600420007105200023
:1006a80023742000804978008149780082497800c5
:1006b8000080eb00601988008080eb0010002000ab
:1006c800dc0007008080eb0020002000d900070034
:1006d800100020000d010700200020000b0107007a
:1006e80084000700210c800080ff2f00008060003c
:1006f800200c8800409c2000100c8800409c2000a2
:10070800000c88008461a900409c2000100c88001f
:10071800210c800080ff2f00008060006000b30083
:10072800200c880011e1a9001021a90010c1a9001e
:1007380081088000f0fc2f00008060000040a000cd
:10074800800888000000eb0030088800803821000d
:100758006008880011e1a8000000eb00100798006d
:100768000000eb00000f78000500370000000000d3
:1007780003003700000000000100370000000000ff
:100788001011800061006000e00f5000f7ff320098
:10079800111180000010200000806000e00f500060
:1007a800f4ff32001011800062006000e00f50007a
:1007b800020032000000eb00301188003011800088
:1007c800100798001e009000e10f50000e003a003c
:1007d800100020007c000700000f78001e00780041
:1007e800004078000080fb00201188000000000015
:1007f800111180000010200000806000e00f500000
:10080800fbff3200deff37001e009000e20f5000b1
:100818000c003a001e0078004800de000040780016
:100828000080fb00201188000000000011118000ea
:100838000010200000806000e00f5000fbff320035
:10084800cfff37001e009000e30f50000e003a0063
:10085800200020005c000700000f78001e007800d0
:10086800004078000080fb00201188000000000094
:10087800111180000010200000806000e00f50007f
:10088800fbff3200beff37001e009000e40f50004f
:100898000c003a001e0078004800de000040780096
:1008a8000080fb002011880000000000111180006a
:1008b8000010200000806000e00f5000fbff3200b5
:1008c800afff37001e009000e50f500003003a000c
:1008d800100020008d000700a9ff37001e009000bf
:1008e800e60f5000a5ff3a0020002000870007000f
:1008f800a3ff37000000fa0021e2a9003010200011
:10090800401188000111800090ff2f0000806000d6
:10091800001188002002a90001118000f0cf2f00eb
:10092800008060000011880020a2a9002062a900b0
:1009380021e2a8002342a8000080fa000000060077
:100948000000fa000000eb00000388000000eb0044
:10095800100388000000eb00401288008540a900c1
:100968009540a9004382a9004362a90042e2a80079
:100978004342a9004322a9004302a90042c2a90098
:1009880042a2a90040c2a90041e2a8000080fa00e2
:10099800000006000400fa001007980040128000ca
:1009a800000f78001e009000401288000000000030
:1009b8000012800061006000e00f5000fcff320070
:1009c8000080fa00000006000400fa0010079800f2
:1009d8000000eb00000f78001e009000e10f5000af
:1009e80007003a00010f8000000028000080600026
:1009f800e00f500002003a00200f8000000f78003e
:100a08001e009000e20f500007003a00810f80009e
:100a18000000280000806000e00f500002003a004b
:100a2800a00f8000000f78001e0078000080fa00f8
:100a3800000006000400fa00000f78001107980073
:100a48001e007800e10f500010003a00010f8000ee
:100a58000000280000806000e00f50000b003a0002
:100a6800010f80000070200000807000000f8800d7
:100a78001e009000e00f5000020035001e0090009c
:100a8800010037000080eb00300f88001e0078005e
:100a9800e20f500010003a00810f8000000028008b
:100aa80000806000e00f50000b003a00810f8000ca
:100ab8000070200000807000800f88001e009000e9
:100ac800e00f5000020035001e00900001003700c2
:100ad8000080eb00b00f88000080fa0000000600dc
:100ae8000200fa00000f78001e007800e10f5000a5
:100af80004003a00010f8000f08f2f000080600092
:100b0800000f88000080fa00000006000200fa00ca
:100b1800000f78001e007800e10f500003003a0033
:100b280000002800200f8800e1e1a9001e007800dd
:100b3800e20f500003003a0000002800a00f8800d0
:0c0b4800f1e1a9000080fa0000000600a6
:020000040000fa
:040b5400000000009d
:020000040000fa
:0200000401f009
:04000c00f8ff0000f9
:020000040000fa
:0200000401f009
:040010007bff000072
:020000040000fa
:0200000401f009
:040014007fff00006a
:020000040000fa
:0200000401f009
:04001c00ddff000004
:00000001FF
